:020000040800F2
:10400000E84900208D43000877B900087FB900080F
:1040100087B900088FB9000897B9000800000000B0
:104020000000000000000000000000009BB9000834
:104030009DB90008000000009FB90008A1B9000860
:10404000A7430008A7430008A7430008A7430008A8
:10405000A7430008A7430008A7430008A743000898
:10406000A7430008A7430008A7430008A743000888
:10407000A7430008A7430008A7430008A743000878
:10408000A7430008A7430008A7430008A743000868
:10409000A7430008A7430008A74300083DBA00084B
:1040A000A7430008A7430008A7430008A743000848
:1040B000A7430008A7430008A7430008A743000838
:1040C000A7430008A7430008A7430008A743000828
:1040D000A7430008EBB90008A7430008A74300085E
:1040E000A7430008A7430008A7430008DFF80CD047
:1040F0000AF076FB004800476D8A0008E849002076
:10410000EFF30980704780F309887047EFF3088068
:10411000704780F30888704740BA7047C0BA70474C
:104120001CB50020019000908D48006840F480305C
:104130008B49086000BF8A48006800F40030009096
:104140000198401C0190009818B90198B0F5A06F33
:10415000F1D18348006800F4003010B101200090D4
:1041600001E0002000900098012844D17D480068BB
:1041700040F010007B4908600846006820F003000A
:1041800008600846006840F0020008607448406813
:10419000734948600846406848600846406840F4F3
:1041A000806048600846406820F47C1048600846FB
:1041B000406840F4D81048600846006840F08070BD
:1041C000086000BF6648006800F000700028F9D061
:1041D0006348406820F00300614948600846406831
:1041E00040F00200486000BF5D48406800F00C00ED
:1041F0000828F9D13DE001205B49087000F080FEFD
:10420000012000F002FF00BF212000F0BCFE0028CA
:10421000FAD05448006840F010005249086008463F
:10422000006820F0030008600846006840F00200C3
:104230000860002000F009FF002000F018FF4FF494
:10424000806000F00BFF4FF46011002000F0E0FEF2
:10425000012000F0E9FE00BF392000F094FE0028A4
:10426000FAD0022000F0E3FE00BF00F0E9FE0828CB
:10427000FBD11CBD10B5FFF753FF10BD10B538487A
:10428000006840F001003649086008464068374938
:1042900008403349486008460068354908403049BD
:1042A00008600846006820F48020086008464068DE
:1042B00020F4FE0048604FF41F008860FFF7DAFF2B
:1042C0004FF000602B490860411300F0A8F810BDC2
:1042D00010B5002100200022214B5B6803F00C0187
:1042E00021B1042906D0082928D107E0224B234C0C
:1042F000236027E0224B214C236023E0184B5B68AE
:1043000003F47010164B5B6803F48032022303EB56
:10431000904022B91B4B4343184C23600DE0104BD7
:104320005B6803F4003323B1134B4343134C236006
:1043300003E0134B4343114C236003E00E4B0F4C3F
:10434000236000BF00BF064B5B68C3F303130E4C32
:10435000E15C0A4B1B68CB40084C236010BD000099
:104360000010024000200240610000200000FFF821
:10437000FFFFF6FE08ED00E000127A0000000020CA
:104380000024F40000093D00040000200648804796
:1043900006480047FEE7FEE7FEE7FEE7FEE7FEE72A
:1043A000FEE7FEE7FEE7FEE77D420008ED4000087D
:1043B00031490143314A1160704770B50021002333
:1043C0000F22C47804B32D4C246804F4E064C4F5CF
:1043D000E064210AC1F10403CA40447804FA03F1FD
:1043E0008478144021430901254C0678A1550478AE
:1043F00004F01F050124AC4005786D11AD0005F1F6
:10440000E025C5F8004109E0047804F01F05012407
:10441000AC401C4D0678761145F8264070BD1A4A0E
:104420000A400243154B1B1F1A60704739B1134AEB
:10443000121D12680243114B1B1D1A6006E00F4A41
:10444000121D126882430D4B1B1D1A607047042811
:1044500008D14FF0E021096941F004014FF0E0225A
:10446000116107E04FF0E021096921F004014FF0EC
:10447000E0221161704700000000FA050CED00E039
:1044800000E400E080E100E080FFFF1F00204449DD
:104490000860091D0860091D0860091D0860414881
:1044A0003F4914310860704700213D498279002A54
:1044B0003AD00A46126803689A430B461A600A1DEE
:1044C000126803689A430B1D1A60027911440A6846
:1044D00003681A430A60324A0832126803689A4332
:1044E0002F4B08331A601A1D126803689A432C4B2D
:1044F0000C331A604279102A0ED11A1F1268036811
:104500001A43274B08331A601A1D126803681A43AE
:10451000234B0C331A600DE02149427911440A689B
:1045200003681A430A6005E0027911440A680368C7
:104530009A430A6070470021016001710C214171AA
:104540000021817170471649103109680143144AEE
:1045500010321160704701460020114A143212686F
:104560000A400AB1012000E0002070470C491431D4
:1045700008607047014600200022094B1B6803EACF
:104580000102074B14331B680B4013B10AB1012021
:1045900000E00020704702491431086070470000B5
:1045A00000040140FFFF0F0001460020FE4A106892
:1045B00000F03800084310607047FB49096821F09B
:1045C0000801F94A116011460968014311607047FA
:1045D000F549096821F01001F34A11601146096894
:1045E000014311607047F148EF494860F048486066
:1045F0007047EE48EC494860ED4848607047EA482B
:10460000006940F08000E84908617047E6480069A9
:1046100040F08000E449086170470420E249C9681D
:1046200001F0010109B101200EE0DF49C96801F084
:10463000040109B1022007E0DB49C96801F010015B
:1046400009B1032000E00420704700B502460423AE
:10465000FFF7E3FF034603E0FFF7DFFF0346521EC9
:10466000012B01D1002AF7D102B90523184600BD5C
:1046700030B5044604254FF43020FFF7E6FF054629
:10468000042D17D1C848006940F00200C6490861EE
:1046900008464461006940F0400008614FF4302052
:1046A000FFF7D3FF0546C048006941F6FD71084099
:1046B000BD490861284630BD10B504244FF43020B0
:1046C000FFF7C3FF0446042C16D1B748006940F039
:1046D0000400B54908610846006940F040000861DF
:1046E0004FF43020FFF7B1FF0446AF48006941F6B0
:1046F000FB710840AC490861204610BD00B5024678
:104700000423FFF78AFF034603E0FFF786FF034613
:10471000521E012B01D1002AF7D102B905231846F8
:1047200000BD10B504244FF43020FFF7E7FF044626
:10473000042C16D19C48006940F004009A49086195
:104740000846006940F0400008614FF43020FFF750
:10475000D5FF04469448006941F6FB710840924930
:104760000861204610BD00208F49C96901F002018F
:1047700009B1012000E00020704730B5A5250424D0
:10478000FFF7F1FF00B100254FF43020FFF75DFF88
:104790000446042C3AD1854883498860844888605F
:1047A0000846006940F0200008610846006940F0B2
:1047B000400008614FF43020FFF747FF0446042C07
:1047C0001BD17948006941F6DF71084076490861DC
:1047D0000846006940F01000086176480580E00254
:1047E000FFF733FF0446052C10D06F48006941F6EF
:1047F000EF7108406C49086108E0052C06D06A4852
:10480000006941F6EF71084067490861204630BDF4
:1048100078B506460C46042500200090E802FFF714
:1048200014FF0546042D24D15F48006940F00100C3
:104830005D4908613480E802FFF707FF0546042D53
:1048400010D1B01C0090200C00990880E802FFF7FE
:10485000FCFE05465448006941F6FE710840524985
:10486000086106E05048006941F6FE7108404E4973
:104870000861284678BD70B504460D460426F0024E
:10488000FFF7E3FE0646042E11D14748006940F0C9
:104890000100454908612580F002FFF7D6FE064673
:1048A0004148006941F6FE7108403F4908613046C1
:1048B00070BD70B505460E460424E002FFF7C5FE44
:1048C0000446042C17D13948374988603848886035
:1048D0000846006940F0100008612E80E002FFF7F2
:1048E000B4FE0446052C06D02F48006941F6EF714E
:1048F00008402D490861204670BD2DE9F04304466B
:104900004FF6FF763746B046B1460425E443E6B29B
:10491000C4F30727C4F307484FEA1469E802FFF716
:1049200094FE0546042D49D120481F49886020483F
:1049300088600846006940F010000861FF2E06D02C
:104940001C4808300680E802FFF77FFE0546042D6C
:1049500008D1FF2F06D017480A300780E802FFF77A
:1049600074FE0546042D0AD1B8F1FF0F07D0114897
:104970000C30A0F80080E802FFF767FE0546042D22
:104980000AD1B9F1FF0F07D00A480E30A0F8009005
:10499000E802FFF75AFE0546052D0FD002480069D0
:1049A00041F6EF71084007E000200240230167450F
:1049B000AB89EFCD00F8FF1F664908612846BDE8C6
:1049C000F08330B5054604244FF43020FFF73DFE58
:1049D0000446042C41D160485E4988605F48886085
:1049E0000846006940F0200008610846006940F070
:1049F000400008614FF43020FFF727FE0446042CE6
:104A000022D15448006941F6DF71084051490861DC
:104A10000846006940F0100008611DB100205049AF
:104A2000088002E0A5204E4908804FF43020FFF7AF
:104A30000CFE0446052C10D04648006941F6EF7183
:104A400008404449086108E0052C06D04148006947
:104A500041F6DF7108403F490861204630BDF0B59E
:104A600005460E46174604243B483A4988603B48B1
:104A70008860E002FFF7E9FD0446042C19D13548AF
:104A8000006940F010003349086147F0F8003043F6
:104A900028433349891C0880E002FFF7D6FD04460D
:104AA000052C06D02B48006941F6EF7108402949D2
:104AB00008612046F0BD2748C06980087047254836
:104AC000006A704700202349096801F0200109B1FC
:104AD000012000E00020704729B11E4A12690243FC
:104AE0001C4B1A6104E01B4A12698243194B1A617C
:104AF000704701460020012908D1164AD26902F008
:104B000001020AB1012008E0002006E0114AD26843
:104B10000A400AB1012000E0002070470D49C8603A
:104B2000704704200B49C96801F0010109B1012057
:104B30000EE00849C96801F0040109B1022007E04C
:104B40000449C96801F0100109B1032000E0042004
:104B5000704700000020024023016745AB89EFCD7C
:104B600000F8FF1F10B50446CC48844208D101214B
:104B7000042000F04DFB0021042000F049FB46E03A
:104B8000C748844208D10121082000F041FB0021E0
:104B9000082000F03DFB3AE0C248844208D10121E0
:104BA000102000F035FB0021102000F031FB2EE03A
:104BB000BD48844208D10121202000F029FB0021BA
:104BC000202000F025FB22E0B848844208D10121D2
:104BD000402000F01DFB0021402000F019FB16E0F2
:104BE000B348844208D10121802000F011FB00214C
:104BF000802000F00DFB0AE0AE48844207D101217D
:104C0000801500F005FB0021A01500F001FB10BD90
:104C100010B50121084600F0FBFA0021012000F048
:104C2000F7FA10BD2DE9F0410246002500260020CC
:104C300000230024002791F803C00CF00F0591F821
:104C400003C00CF0100CBCF1000F03D091F802C0AF
:104C50004CEA050591F800C0BCF1000F31D0146892
:104C600000202BE04FF0010C0CFA00F3B1F800C06B
:104C70000CEA03069E4220D183004FF00F0C0CFA81
:104C800003F7BC4305FA03FC4CEA040491F803C0A3
:104C9000BCF1280F06D14FF0010C0CFA00FCC2F851
:104CA00014C00AE091F803C0BCF1480F05D14FF0E1
:104CB000010C0CFA00FCC2F810C0401C0828D1D32B
:104CC0001460B1F800C0BCF1FF0F34DD546800205F
:104CD0002EE000F1080C4FF0010808FA0CF3B1F8CF
:104CE00000C00CEA03069E4221D183004FF00F0C56
:104CF0000CFA03F7BC4305FA03FC4CEA040491F8F0
:104D000003C0BCF1280F05D100F1080C08FA0CF81B
:104D1000C2F8148091F803C0BCF1480F07D100F12C
:104D2000080C4FF0010808FA0CF8C2F81080401C7B
:104D30000828CED35460BDE8F0814FF6FF710180A2
:104D4000022181700421C1707047024600209368DF
:104D50000B400BB1012000E000207047014688683D
:104D600080B2704702460020D3680B400BB101208F
:104D700000E0002070470146C86880B270470161BA
:104D80007047416170470AB1016100E041617047BD
:104D9000C16070474FF480320A4382618161826151
:104DA00082698269704702460020434B18684FF6BB
:104DB0008073184040EA021008433F4B1860704768
:104DC0003E49C8617047F0B50A460023002400211F
:104DD000002500F00046B6F1004F02D1364EF169D1
:104DE00001E0354E7168C0F3034583B200F440160C
:104DF000B6F5401F08D121F070612F4E766826F07D
:104E000070662D4F7E6012E000F48016B6F5801FAC
:104E100006D1032606FA05F4A14341F0706106E0CD
:104E2000460D360103FA06F6B14341F0706122B136
:104E3000460D360103FA06F6314300F00046B6F19E
:104E4000004F02D11C4EF16101E01B4E7160F0BDBC
:104E500030B500228B071C0F0F2303FA04F2164B08
:104E600008338C1053F824309343134C08348D10BE
:104E700044F8253023468C1053F824308C07240F37
:104E800000FA04F423430C4C08348D1044F8253008
:104E900030BD0A49DC31086070470000000801405D
:104EA000000C0140001001400014014000180140B6
:104EB000001C014000200140000001400000204291
:104EC0000E49086070470D49486070470B4988607B
:104ED00070474AF6AA200949086070474CF6CC4052
:104EE00006490860704701460020044AD2680A401B
:104EF0000AB1012000E000207047000000300040AF
:104F0000DF48006840F00100DD490860084640685D
:104F1000DC490840DA49486008460068DA49084038
:104F2000D74908600846006820F4802008600846D9
:104F3000406820F4FE0048604FF41F00886070470E
:104F4000CF49096821F48031CD4A116011460968C2
:104F500021F480211160B0F5803F03D0B0F5802F9F
:104F60000ED106E0C649096841F48031C44A116097
:104F700007E0C349096841F4A021C14A116000E07B
:104F800000BF00BF704710B501460022002300207B
:104F90004A11012A02D1BA4C236806E0022A02D142
:104FA000B74C236A01E0B64C636A01F01F0201248A
:104FB00094401C400CB1012000E0002010BD38B529
:104FC000002000900024002500BF3120FFF7DBFF08
:104FD00005460098401C00900098B0F5A06F01D0E5
:104FE000002DF2D03120FFF7CEFF08B1012400E000
:104FF0000024204638BD01460020A14A106820F058
:10500000F80040EAC10010607047A049086070478E
:10501000024600209A4B586820F47C1042EA0103B3
:105020001843974B58607047984908667047014687
:105030000020934A506820F00300084350607047F6
:105040008F48406800F00C007047014600208C4AF1
:10505000506820F0F000084350607047014600207F
:10506000874A506820F4E06008435060704701466A
:105070000020834A506820F4605040EAC10050602C
:10508000704729B17E4A527A02437D4B5A7204E03E
:105090007B4A527A82437A4B5A7270477B49D831A5
:1050A0000860704701460020754A506820F440406F
:1050B0000843506070470021714A20321170704AD5
:1050C00082F82010012802D004280AD104E001212E
:1050D0006B4A2032117005E00521694A20321170B7
:1050E00000E000BF00BF704769490860704764492D
:1050F000096A0143624A1162704765494439086090
:10510000704730B500210022002400235C4D6D68FB
:1051100005F00C0121B1042905D0082923D105E0AF
:105120005C4D056022E05C4D05601FE0544D6D68EC
:1051300005F47012524D6D6805F48034022505EBBC
:1051400092421CB9554D554305600BE04C4D6D68BE
:1051500005F400351DB14F4D5543056002E04E4D3D
:105160005543056002E04B4D056000BF00BF444D54
:105170006D6805F0F0010909494D6B5C0568DD407B
:1051800045603F4D6D6805F4E061090A444D6B5C74
:105190004568DD4085603A4D6D6805F46051C90A87
:1051A0003F4D6B5C4568DD40C560354D6D6805F46D
:1051B0004041890B3B4D6B5CC568B5FBF3F5056160
:1051C00030BD29B12E4A526902432D4B5A6104E089
:1051D0002B4A526982432A4B5A61704729B1284AA7
:1051E00092690243264B9A6104E0254A9269824300
:1051F000234B9A61704729B1214AD2690243204B5F
:10520000DA6104E01E4AD26982431D4BDA617047BD
:1052100029B11B4AD2680243194BDA6004E0184AEC
:10522000D2688243164BDA60704729B1144A12697A
:105230000243134B1A6104E0114A12698243104B76
:105240001A61704712494039086070470F49C864B5
:1052500070470B49C87170470948406A40F0807038
:1052600007494862704701460020054A92680A4093
:105270000AB1012000E000207047014988727047A0
:10528000001002400000FFF8FFFFF6FE000042425F
:105290008004424200127A000024F40000093D001C
:1052A000140000202400002010B50446BE488442AB
:1052B00008D101218014FFF7ABFF0021A014FFF7F4
:1052C000A7FF16E0B948844208D101210014FFF776
:1052D000ACFF00212014FFF7A8FF0AE0B448844285
:1052E00007D10121C013FFF7A0FF0021E013FFF752
:1052F0009CFF10BD10B50022028802F441520B88B9
:105300004C8823438C882343CC8823430C89234334
:105310004C8923438C892343CC8923431A4302803D
:10532000838B4FF2FF74234083830B8A038210BD6B
:105330002DE9F04F85B005460C464FF000090227D5
:105340004FF000084FF0010B0026B246A88B4FF239
:1053500040010840A88302202884B5F81C90A0686A
:10536000022801D100BF38E0A08810B94FF0010B2E
:1053700001E04FF0020B8D48854200D100E000BFF4
:105380006846FFF7BEFEDDF800A0E088B0F5007FBC
:105390000AD14FEA1A2000EB80004000A168B0FB60
:1053A000F1F0401D86B20BE04FEA4B10BAFBF0F073
:1053B00000EB80004000A168B0FBF1F0401D86B218
:1053C0000A20B6FBF0F606F00108A6EB0800C0F3D1
:1053D0004F074FF6FF7000EA0828022F01DBFF2F6E
:1053E00002DD02274FF00008E08840EA0800384359
:1053F0002884A088A189084361880843218808433C
:1054000040F4006040EA0909A5F81C9005B0BDE829
:10541000F08F0021018041808180C1800181418124
:105420008181C18107210182704700210180418073
:105430008180C1800221816000218181704721B17A
:10544000028842F04002028004E002884FF6BF73F7
:105450001A400280704721B1828B42F480628283BD
:1054600004E0828B4FF6FF331A408283704730B5D9
:10547000002400230C110125A540ABB21AB1858888
:105480001D43858002E085889D43858030BD1AB12B
:1054900083880B43838002E083888B43838070473B
:1054A000818170470146888970474FF6FF629142BB
:1054B00004D0028842F48072028004E002884FF631
:1054C000FF631A400280704721B1828842F00402D3
:1054D000828004E082884FF6FB731A408280704716
:1054E00002884FF2FF731A40028002880A4302804A
:1054F0007047018841F480510180704721B10288D2
:1055000042F40052028004E002884DF6FF731A4014
:105510000280704702460020012901D0108B00E074
:10552000908A70470146088A7047B1F5804F04D1D0
:10553000028842F48042028004E002884BF6FF7346
:105540001A40028070470246002013890B400BB1BD
:10555000012000E000207047CA4302817047F0B587
:105560000246002000240023002501F00F07012639
:10557000BE40B4B20B1101269E40B3B2968806EA33
:1055800003051689264016B10DB1012000E0002068
:10559000F0BD10B5002201F00F040123A3409AB220
:1055A000D343038110BD00000030014000380040AB
:1055B000003C004010B50446FE48844208D1012159
:1055C000C014FFF725FE0021E014FFF721FEC4E020
:1055D000B4F1804F08D101210846FFF726FE0021D3
:1055E0000120FFF722FEB8E0F348844208D10121F0
:1055F0000220FFF71AFE00210220FFF716FEACE0A2
:10560000EE48844208D101210420FFF70EFE00215C
:105610000420FFF70AFEA0E0E948844208D10121F6
:105620000820FFF702FE00210820FFF7FEFD94E0AE
:10563000E448844208D101211020FFF7F6FD002143
:105640001020FFF7F2FD88E0DF48844208D10121F5
:105650002020FFF7EAFD00212020FFF7E6FD7CE097
:10566000DA48844208D101214014FFF7D1FD00211E
:105670006014FFF7CDFD70E0D548844209D10121C7
:10568000C804FFF7C5FD00214FF40020FFF7C0FD5F
:1056900063E0D048844209D101210805FFF7B8FD35
:1056A00000214FF48010FFF7B3FD56E0CA48844252
:1056B00009D101214805FFF7ABFD00214FF400108F
:1056C000FFF7A6FD49E0C548844208D101214020EA
:1056D000FFF7ABFD00214020FFF7A7FD3DE0C048EC
:1056E000844208D101218020FFF79FFD0021802006
:1056F000FFF79BFD31E0BB48844208D101218015B2
:10570000FFF793FD0021A015FFF78FFD25E0B648B8
:10571000844209D101210804FFF77AFD00214FF4EA
:105720008030FFF775FD18E0B048844209D10121AF
:105730004804FFF76DFD00214FF40030FFF768FDCE
:105740000BE0AB48844208D101218804FFF760FDDB
:1057500000214FF48020FFF75BFD10BD002202887E
:10576000944B98420ED0994B98420BD0B0F1804F99
:1057700008D0914B984205D0904B984202D0904B64
:10578000984204D14FF68F731A404B881A438D4BC1
:10579000984207D08C4B984204D04FF6FF431A40F2
:1057A000CB881A4302808B8883850B880385814BC5
:1057B00098420BD0854B984208D08B4B984205D02D
:1057C0008A4B984202D08A4B984201D10B7A0386C9
:1057D00001238382704770B5002400220023058CCA
:1057E0004FF6FE7635400584028C8388048B4FF695
:1057F0008F752C40B51E2C400D882C43751E2A40F9
:105800000D892A434D882A436A4DA8420BD06F4D1B
:10581000A84208D0744DA84205D0744DA84202D0C9
:10582000734DA84213D14FF6F7752A404D892A438C
:105830004FF6FB752A408D882A434FF6FF652B40B3
:105840004FF6FF552B408D892B43CD892B43838009
:105850000483CD888586028470BD70B50024002243
:105860000023058C4FF6EF7635400584028C838843
:10587000048B48F6FF752C404FF6FF452C400D88F1
:105880004FF6FF7606EA05252C434FF6DF752A40D2
:105890000D8906EA05152A434D8806EA05152A43AF
:1058A000444DA84202D0494DA8421DD14FF67F7504
:1058B0002A404D894FF6FF7606EA05152A434FF632
:1058C000BF752A408D8806EA05152A434FF6FF3535
:1058D0002B404FF2FF752B408D8906EA85052B433F
:1058E000CD8906EA85052B4383800483CD8805870F
:1058F000028470BD70B5002400220023058C4FF691
:10590000FF6635400584028C8388848B4FF68F7543
:105910002C404FF6FC752C400D882C434FF6FF555C
:105920002A400D894FF6FF7606EA05252A434D8861
:1059300006EA05252A431F4DA84202D0234DA8425E
:105940001DD14FF2FF752A404D894FF6FF7606EACA
:1059500005252A434FF6FF352A408D8806EA05259E
:105960002A434EF6FF752B404DF6FF752B408D896F
:1059700006EA05152B43CD8906EA05152B438380DE
:105980008483CD888587028470BD70B50022002392
:105990000024058C4EF6FF7635400584038C848800
:1059A000828B48F6FF752A404FF6FF452A400D8846
:1059B00020E00000002C01400004004000080040EE
:1059C000000C004000100040001400400034014072
:1059D000004C0140005001400054014000180040BC
:1059E000001C0040002000400040014000440140F5
:1059F000004801404FF6FF7606EA05252A434DF69A
:105A0000FF752B400D8906EA05352B434D8806EAC4
:105A100005352B43FA4DA84202D0FA4DA84208D1D1
:105A20004BF6FF752C408D894FF6FF7606EA8515FB
:105A30002C4384808283CD88A0F84050038470BDBD
:105A4000828B4FF2FF331A408283828B4FF6FF73B3
:105A500003EA01231A4382837047F0B50C461546CA
:105A6000002200210026078C4EF6FF7C07EA0C0777
:105A70000784828B018C4FF6FF7707EA043640F6E5
:105A8000FF473A404FF6FF7707EA05273A434FF6BC
:105A9000FF7707EA03373A43D94FB8420ED0D94FC0
:105AA000B8420BD0B0F1804F08D0D74FB84205D0E4
:105AB000D64FB84202D0D64FB84206D14DF6FF7746
:105AC000394046F48057394305E047F6FF573940DF
:105AD00044F48057394382830184F0BD828B4FF6B2
:105AE000F3731A408283828B0A4382837047F0B536
:105AF0000C461546002200210026078C4FF6FF6C4D
:105B000007EA0C070784828B018C4FF6FF7707EAC0
:105B100004264FF60C773A404FF6FF7707EA031753
:105B20002F433A43B64FB8420ED0B64FB8420BD0CF
:105B3000B0F1804F08D0B44FB84205D0B34FB8424F
:105B400002D0B34FB84206D14FF6FF57394046F462
:105B50008077394305E04FF2FF57394044F48077AE
:105B6000394382830184F0BD028B4FF2FF331A4028
:105B70000283028B4FF6FF7303EA01231A43028369
:105B80007047F0B50C461546002200210026078C10
:105B90004FF6EF7C07EA0C070784028B018C4FF667
:105BA000FF7707EA041640F6FF473A404FF6FF77C3
:105BB00007EA03373A434FF6FF7707EA05273A43E8
:105BC0008F4FB8420ED08F4FB8420BD0B0F1804FFC
:105BD00008D08D4FB84205D08C4FB84202D08C4FC0
:105BE000B84206D14FF6DF77394046F01007394307
:105BF00005E04FF65F77394044F0100739430283E0
:105C00000184F0BD028B4FF6F3731A400283028BBE
:105C10000A4302837047F0B50C4615460022002166
:105C2000068C4FF6FE773E400684028B018C4FF6C1
:105C30000C7632407E1C06EA03162E433243704E29
:105C4000B0420ED06F4EB0420BD0B0F1804F08D0B2
:105C50006D4EB04205D06D4EB04202D06C4EB04297
:105C600006D14FF6FD76314044F00106314305E0A0
:105C70004FF6F576314044F001063143028301844A
:105C8000F0BD70B505460C465D4885420ED05D48B6
:105C900085420BD0B5F1804F08D05B48854205D0D6
:105CA0005A48854202D05A48854200D100E000BFE0
:105CB000208850B92389A28861882846FFF7ABFF66
:105CC000E1882846FFF79EFF25E0208804280AD1B6
:105CD0002389A28861882846FFF753FFE188284678
:105CE000FFF742FF17E0208808280AD12389A288FD
:105CF00061882846FFF7FBFEE1882846FFF7EEFEA5
:105D000009E02389A28861882846FFF7A6FEE1887A
:105D10002846FFF795FE70BD2DE9F04105460C467B
:105D200000260127608808B9022600E00026A08826
:105D3000012801D1022700E001272088A0B923898A
:105D4000A28861882846FFF766FFE1882846FFF7AA
:105D500059FF23893A4631462846FFF712FFE1886A
:105D60002846FFF701FF13E02389A28861882846AF
:105D7000FFF707FFE1882846FFF7F6FE23893A463A
:105D800031462846FFF747FFE1882846FFF73AFFEC
:105D9000BDE8F0810A884B881A438B881A43CB8868
:105DA0001A430B891A434B891A438B891A43A0F86B
:105DB000442070474FF6FF71818000210180C1802F
:105DC0004180017270470021018041808180C18043
:105DD000018141818181C181704700210180418021
:105DE000012181800021C180018170470021018053
:105DF00041808180C18001814181818170470000A3
:105E0000002C014000340140000400400008004024
:105E1000000C004021B1028842F00102028004E03F
:105E200002884FF6FE731A400280704731B1B0F815
:105E3000442042F40042A0F8442005E0B0F8442099
:105E4000C2F30E02A0F8442070471AB183890B43B5
:105E5000838102E083898B4383817047818270470D
:105E600041EA0203A0F8483070471AB183890B4316
:105E7000838102E083898B438381704701894FF6D8
:105E8000F8721140018170470A46002101894FF6DE
:105E90008F73194011430181704730B504460D4698
:105EA00029462046FFF7F0FF208940F007002081B7
:105EB00030BD2DE9F04104460D4616461F46602DC3
:105EC00006D13B46012231462046FFF75AFE05E047
:105ED0003B46012231462046FFF79DFE29462046DB
:105EE000FFF7D2FF208940F007002081BDE8F08154
:105EF00030B50C4600210189C9B24FF6FF7505EA9D
:105F00000325154325432943018130BD2DE9F04187
:105F100005460E4617469846002443463A46314603
:105F20002846FFF7E5FF2C894FF6F870044044F04F
:105F300007044FF68F70044044F070042C81BDE8D4
:105F4000F081F0B504460D4616461F463B463246E4
:105F500029462046FFF7CCFF208940F4804020816D
:105F6000F0BD0185828270470A46002101884FF604
:105F70008F731940114301807047F0B50C461546E8
:105F80001E460021002200230189028B038C4FF65C
:105F9000F877394021434FF6FC473A4040F2011769
:105FA0003A434FF6DD773B404FF6FF7707EA061797
:105FB0002F433B43018102830384F0BD0A46002145
:105FC000018B4FF68F7319401143018370470A46C6
:105FD0000021018B48F6FF7319404FF6FF7303EA67
:105FE00002231943018370470A460021818B4FF633
:105FF0008F7319401143818370470A460021818BBA
:1060000048F6FF7319404FF6FF7303EA0223194362
:106010008183704721B1028842F08002028004E04F
:1060200002884FF67F731A400280704721B1828840
:1060300042F00402828004E082884FF6FB731A402B
:106040008280704721B1828842F00802828004E099
:1060500082884FF6F7731A408280704721B1828898
:1060600042F00102828004E082884FF6FE731A40FB
:10607000828070470A460021018B4FF6F773194062
:106080001143018370470A460021018B4FF2FF73D1
:1060900019404FF6FF7303EA022319430183704747
:1060A0000A460021818B4FF6F77319401143818313
:1060B00070470A460021818B4FF2FF7319404FF65B
:1060C000FF7303EA02231943818370470A460021C4
:1060D000018B4FF6FB7319401143018370470A4649
:1060E0000021018B4FF6FF3319404FF6FF7303EA8F
:1060F00002231943018370470A460021818B4FF622
:10610000FB7319401143818370470A460021818B3C
:106110004FF6FF3319404FF6FF7303EA022319438A
:10612000818370470A460021018B4FF67F73194027
:106130001143018370470A460021018BC1F30E0110
:106140004FF6FF7303EA02231943018370470A469F
:106150000021818B4FF67F73194011438183704773
:106160000A460021818BC1F30E014FF6FF7303EA4B
:1061700002231943818370470A460021018C4FF6A0
:10618000FD7319401143018470470A460021018CB8
:106190004FF6F77319401143018470470A460021F6
:1061A000018C4FF6DF7319404FF6FF7303EA0213B9
:1061B0001943018470470A460021018C4FF67F7312
:1061C00019404FF6FF7303EA021319430184704725
:1061D0000A460021018C4FF6FF5319404FF6FF731A
:1061E00003EA02231943018470470A460021018C07
:1061F0004FF2FF7319404FF6FF7303EA022319436E
:10620000018470470A460021018C4DF6FF73194046
:106210004FF6FF7303EA023319430184704730B528
:10622000002301248C40A3B2048C9C430484048C7E
:1062300002FA01F5ADB22C43048430BD30B5002321
:1062400004248C40A3B2048C9C430484048C02FA82
:1062500001F5ADB22C43048430BD70B50346002077
:1062600000241846183001258D40ACB21D8CA54382
:106270001D8409B1082909D100EB6100056825F0EA
:10628000700505600568154305600EE00D1FC5F338
:106290004E052844056825F4E045056005684FF67D
:1062A000FF7606EA02263543056070BD21B10288FB
:1062B00042F00202028004E002884FF6FD731A40A9
:1062C0000280704721B1028842F00402028004E09B
:1062D00002884FF6FB731A400280704721B1828812
:1062E00042F08002828004E082884FF67F731A4079
:1062F0008280704702884FF6F7731A400280028846
:106300000A430280704782884FF68F731A4082805A
:1063100082880A438280704702894FF6F8731A40D8
:10632000028102890A430281704702894FF67F7316
:106330001A40028102890A430281704781847047B2
:1063400081857047818670470187704781877047D4
:10635000A0F84010704702884FF6FF431A400280B1
:1063600002880A43028070470146888E70470146C2
:10637000088F70470146888F70470146B1F840008A
:1063800070470146888C70470146088D7047024669
:106390000020138A0B400BB1012000E00020704761
:1063A000CA430282704730B5024600200023002411
:1063B000158A05EA0103958905EA010413B10CB1B8
:1063C000012000E0002030BDCA4302827047000077
:1063D00010B50446FB48844209D101218803FEF729
:1063E00017FF00214FF48040FEF712FF32E0F6481D
:1063F000844209D101214804FEF717FF00214FF420
:106400000030FEF712FF25E0F048844209D1012157
:106410008804FEF70AFF00214FF48020FEF705FFF5
:1064200018E0EB48844209D10121C804FEF7FDFEC3
:1064300000214FF40020FEF7F8FE0BE0E54884420F
:1064400008D101210805FEF7F0FE00214FF480106D
:10645000FEF7EBFE10BD2DE9F04786B005460E466F
:106460000024A24600BFA1460027B08900B100BFAA
:106470002F462C8A4CF6FF700440F08804432C828F
:10648000AC894EF6F3100440B08831890843718915
:1064900008430443AC81AC8A4FF6FF400440B08906
:1064A0000443AC8201A8FEF72CFEC648874202D105
:1064B000DDF810A001E0DDF80CA0A88900F4004090
:1064C00040B10AEBCA0000EB0A1031684900B0FB8A
:1064D000F1F807E00AEBCA0000EB0A103168890006
:1064E000B0FBF1F86420B8FBF0F00401200964214E
:1064F00001FB1089A88900F4004040B1322000EB74
:10650000C900B0FBF1F000F00700044308E03220BE
:1065100000EB09106421B0FBF1F000F00F00044320
:106520002C8106B0BDE8F0874FF4165101600021C0
:106530008180C18001810C214181002181817047CE
:1065400010B502460020108A4FF2FF0318400B8856
:106550004C8823438C882343CC88234318431082E0
:1065600010BD0021018041808180C180704721B130
:10657000828942F40052828104E082894DF6FF73E1
:106580001A4082817047F0B503460024002600259A
:10659000002040F66A17B94200D100BF1846C1F387
:1065A000421401F01F06012707FA06F5012C01D15C
:1065B0000C3004E0022C01D1103000E014301AB18C
:1065C00007682F43076002E00768AF430760F0BD2C
:1065D0001AB1838A0B43838202E0838A8B438382CE
:1065E0007047028A4FF6F0731A400282028A0A4309
:1065F0000282704782894FF2FF731A40828182893A
:106600000A438281704721B1828942F0020282816D
:1066100004E082894FF6FD731A4082817047028A36
:106620004FF6DF731A400282028A0A4302827047E1
:1066300021B1028A42F48042028204E0028A4BF6CF
:10664000FF731A4002827047C1F3080282807047CC
:1066500001468888C0F308007047818941F0010134
:1066600081817047028BD2B20283028B42EA0122FF
:1066700002837047028B02F47F420283028B0A433B
:106680000283704721B1828A42F02002828204E0B4
:10669000828A4FF6DF731A408282704721B1828A64
:1066A00042F01002828204E0828A4FF6EF731A40B1
:1066B0008282704721B1828A42F00802828204E01D
:1066C000828A4FF6F7731A408282704721B182891D
:1066D00042F40042828103E08289C2F30E02828189
:1066E000704721B1828A42F40062828204E0828A89
:1066F0004FF2FF731A4082827047828A4FF6FB7313
:106700001A408282828A0A438282704721B1828A39
:1067100042F00202828204E0828A4FF6FD731A4040
:106720008282704702460020B1F5007F00D100BF91
:1067300013880B400BB1012000E00020704701F4EA
:106740000072B2F5007F00D100BFCA4302807047DB
:1067500070B50246002400230025002040F66A168A
:10676000B14200D100BFC1F3421501F01F03012661
:1067700006FA03F3012D02D19689334006E0022D7B
:1067800002D1168A334001E0968A33400C1201266A
:1067900006FA04F41688344013B10CB1012000E06D
:1067A000002070BD10B50022002340F66A14A142FB
:1067B00000D100BF0A1201249440A3B2DC4304803C
:1067C00010BD000000380140004400400048004077
:1067D000004C00400050004000200021FB4A117096
:1067E00051709170D17011710022F84981F8FB202D
:1067F00000BF06E0F6490A5CF449491D0A54411CF1
:10680000C8B2F628F6DB704702460878424082EAB2
:106810000210C2B20888001280EA022080EAC20098
:1068200080EA221008800888704738B503460C4675
:1068300046F26330009000BF13F8015B69462846BA
:10684000FFF7E2FF601EC0B2041EF5D1BDF80000E4
:1068500038BD0FB42DE9F0430646489D479C4FF0E4
:106860000008C1460020207006F0010078B1D94828
:10687000007808B9012000E00020D64908700846D9
:10688000007840F002012278501C2070A954D148B1
:10689000007800F0080020B12178481C207005F82D
:1068A000019006F0020028B19DF820102278501CBB
:1068B0002070A95406F0040028B19DF82110227818
:1068C000501C2070A95406F0080028B19DF8221031
:1068D0002278501C2070A95406F0100028B19DF8B1
:1068E00023102278501C2070A95406F0200028B1F3
:1068F0009DF824102278501C2070A95406F0400006
:1069000090B14FF000080BE00DF1250010F80810D1
:106910002278501C2070A95408F1010000F0FF08F3
:106920009DF824004045EFDC06F0800028B19DF87A
:106930001B112278501C2070A95406F4807068B195
:1069400021782846FFF771FF07462278501C2070F7
:10695000AF54390A2278501C2070A954BDE8F003C6
:106960005DF814FB2DE9F043ADF5017D05460024EB
:10697000DFF86482072699A103C97F917E90A14622
:106980004FF48067002091490870A4204870380AAD
:106990008870CF700846067100BF06E07EA8015DD2
:1069A0008A48401D0155601CC4B2B442F6DB8748DA
:1069B00080F8FB9080A8F02284490C31CDE93C0896
:1069C000684607F02BFBFC2280493FA807F026FB16
:1069D000FF203FA90EC9FFF73CFF9DF80002287079
:1069E0000DF5017DBDE8F0832DE9F041FEB00546CF
:1069F000794F4FF002080C244EF203160020734921
:106A00000870A4204870200A88700846C47080F876
:106A10000480310A417186717DA8F0226B490C31E6
:106A2000CDE93C07684607F0F9FAFC2267493EA821
:106A300007F0F4FA7F203EA90EC9FFF70AFF9DF880
:106A4000F40128707EB0BDE8F0812DE9F041FEB080
:106A50000546614F4FF002080C244EF2011600204B
:106A60005A490870A4204870200A88700846C470EB
:106A700080F80480310A417186717DA8F022534963
:106A80000C31CDE93C07684607F0C8FAFC224F49B3
:106A90003EA807F0C3FA7F203EA90EC9FFF7D9FE32
:106AA0009DF8F40128707EB0BDE8F0812DE9F04139
:106AB000FEB004460E46484F4FF002080C25002059
:106AC00042490870A4204870280A88700846C5709A
:106AD00080F80480210A417184717DA8F0223B492D
:106AE0000C31CDE93C07684607F098FAFC2237499B
:106AF0003EA807F093FA7F203EA90EC9FFF7A9FE32
:106B00009DF8F40130707EB0BDE8F081F0B5FFB0C3
:106B100004460D461646304F00202C490870B02020
:106B20004870200A8870CC70084680F8FB507EA818
:106B3000F0220C31CDE93C07684607F06FFAFC22E1
:106B400022493FA807F06AFA9F203FA90EC9FFF724
:106B500080FE9DF8F80130707FB0F0BD2DE9F04364
:106B6000FFB005460E4617469846DFF86C900024A5
:106B7000002016490870D6204870280A8870CD7009
:106B80000846067100BF05E0395D1048401D0155FB
:106B9000601CC4B2B442F7DB7EA8F0220B490C3172
:106BA000CDE93C09684607F039FAFC2207493FA8BD
:106BB00007F034FA7F203FA90EC9FFF74AFE9DF87F
:106BC000F80188F800007FB0BDE8F083BC00002029
:106BD000B801002028000020AE020020D27600007C
:106BE0008501010070B5FEB00546344E1E24A2207A
:106BF00033490870D6204870200A88700846C4704F
:106C0000002008717DA8F0220C31CDE93C066846D1
:106C100007F004FAFC222A493EA807F0FFF93F20BA
:106C20003EA90EC9FFF715FE9DF8F40128707EB04D
:106C300070BD2DE9F04106460F46204D0024F2229A
:106C40002146641C6A542146641C6E540221284665
:106C5000FFF7EBFD80462146641C05F801804FEAF2
:106C600018222146641C6A543C70BDE8F08170B55E
:106C700004460D46002625B129462046FFF7D5FDDE
:106C800006464EB9281F205C4FF47F4101EA0020E0
:106C9000E91E615C084370BD002605212046FFF710
:106CA000C4FD06460EB11220F5E760784FF47F412F
:106CB00001EA0020A1780843EDE70000AE020020C1
:106CC000BC00002038B5002000900024F621C24806
:106CD00007F0BDF96946C04801F084FB04465CB981
:106CE000BD480078052807D1BB484078782803D1F3
:106CF000B9480079022801D0112038BDF621B648E4
:106D000007F0A5F9002000906946B34801F0A3FB05
:106D100004461CB9B0480078D02801D01120ECE717
:106D2000F621AD4807F093F9002000906946AA4883
:106D300001F0CDFB044644B9A7484078902804D11F
:106D4000A548807808B90020D7E71120D5E738B5E5
:106D50000020009000250024F6219F4807F077F9D5
:106D600069469D4801F0E6FB044634B99A484078EC
:106D7000902802D19848807808B1012038BDF621CA
:106D8000954807F064F9002000906946924801F0A8
:106D900004FC044634B9904880788F49497840EA29
:106DA000012501E00120E9E7F6218B4807F04FF9C2
:106DB000E9B26B46884A002001F024FC04460CB975
:106DC0000020DBE70120D9E7F8B507460E46002092
:106DD000009000240025F6217F4807F038F90020B4
:106DE000009069467C4801F046FC054635B97A4872
:106DF0004078902802D17848807808B11120F8BDF9
:106E0000F621754807F023F9002000906946724882
:106E100001F065FC054635B96F4880786E494978C0
:106E200040EA012401E01120E9E71624F6216A482E
:106E300007F00DF900200090A11C6B46664A01F096
:106E400083FC054645B9A21C6349491C384607F036
:106E5000E5F8A01C308001E01120D0E70020CEE74B
:106E60002DE9FC41054600200190002600246878A9
:106E7000297840EA0127FFF76AFF064616B10B2082
:106E8000BDE8FC81F621544807F0E1F800200190AC
:106E900001A9514801F0EFFB064636B94E4840784B
:106EA000902802D14C48807808B10B20E8E70024F4
:106EB00025E04FF00208A01CB84202DD381B00F0AC
:106EC000FF0800200190F621434807F0C0F801A810
:106ED0002A19414B41460090204601F06EFC0646BF
:106EE00056B93D484078902806D13B48807818B97B
:106EF00004EB0800C4B201E00B20C1E700BFBC42B4
:106F0000D7DB0020BCE738B5002000900024F62134
:106F1000314807F09CF8FFF71AFF04460CB1112026
:106F200038BD69462C4801F084FC044634B92A482F
:106F30004078902802D12848807808B11120EFE7E6
:106F4000F621254807F083F8002000906B46224A7E
:106F50000121042001F0A0FC04462CB91E48407811
:106F600000F04000402801D01120D9E7F6211A484E
:106F700007F06DF8002000906946174801F0C8FC42
:106F8000044644B914484078902804D112488078C7
:106F900008B90020C4E71120C2E738B500200090EE
:106FA0000024F6210C4807F052F869460A4801F01F
:106FB000E2FC04466CB908480078C22809D10648AA
:106FC0004078E02805D104488078B42801D1002019
:106FD00038BD1120FCE700000808002000B589B08A
:106FE00001211520FEF7FAF801210803FEF703F945
:106FF0004020ADF8200003208DF8220018208DF8E5
:10700000230008A9F648FDF70DFE8020ADF820000A
:1070100003208DF8220018208DF8230008A9F048DD
:10702000FDF700FE2020ADF8200003208DF822009F
:1070300018208DF8230008A9E948FDF7F3FD10207A
:10704000ADF8200003208DF8220010208DF82300D9
:1070500008A9E348FDF7E6FD1020ADF82000032065
:107060008DF8220010208DF8230008A9DD48FDF7D7
:10707000D9FD2020ADF8200004208DF8230008A9B8
:10708000D848FDF7CFFD0020ADF80C004FF482701A
:10709000ADF80E000020ADF81000ADF81200ADF80C
:1070A00014004FF40070ADF816002020ADF8180061
:1070B0000020ADF81A000720ADF81C0003A9CA484B
:1070C000FEF718F905210220FDF7C2FE20200090EE
:1070D00000208DF804000C208DF8050001208DF8AB
:1070E00006006846FDF7E0F94FF4A060FDF760F98F
:1070F00017208DF8080000208DF809008DF80A008F
:1071000001208DF80B0002A8FDF757F90121B648C0
:10711000FEF795F91020B2491031086009B000BDA2
:1071200000B587B001210920FEF758F80121880336
:10713000FEF761F84FF48040ADF8180003208DF899
:107140001A0018208DF81B0006A9A848FDF76AFD53
:107150004FF40040ADF8180003208DF81A001820F5
:107160008DF81B0006A9A148FDF75CFD4FF4005007
:10717000ADF8180003208DF81A0018208DF81B00B8
:1071800006A99A48FDF74EFD0820ADF81800032027
:107190008DF81A0010208DF81B0006A99348FDF702
:1071A00041FD1020ADF8180003208DF81A001020C2
:1071B0008DF81B0006A98D48FDF734FD2020ADF8A1
:1071C000180004208DF81B0006A98848FDF72AFD49
:1071D0000020ADF804004FF48270ADF806000020E6
:1071E000ADF80800ADF80A00ADF80C004FF40070DF
:1071F000ADF80E001820ADF810000020ADF8120018
:107200000720ADF8140001A97948FEF773F80121B1
:107210007748FEF714F9082074491031086007B068
:1072200000BD10B5FFF7DAFEFFF77AFF10BD7FB59E
:1072300005460C4601210220FDF7DDFFADF80850A0
:10724000ADF804400020ADF80A00ADF8060001A931
:107250006848FEF783FA012211466648FEF7F5FDFD
:107260001D208DF8000000208DF8010001208DF810
:1072700002008DF803006846FDF79FF87FBDF8B562
:10728000054600240026A879012804D15A4800792F
:10729000401C59490871FA21584806F0D8FE61226D
:1072A0002046611CCCB255490A540846204429683E
:1072B0000160201DC4B25148204451494968016011
:1072C000201DC4B200222046611CCCB24B490A5496
:1072D0002046611CCCB249490A54474842792046AD
:1072E000611CCCB245490A5443484079401C42498C
:1072F0004871084602792046611CCCB23F490A54C5
:10730000EA792146601CC4B23C484254E87902281C
:1073100001D0E87918BB0F222046611CCCB2374956
:107320000A546A7B374B03EB0211344A10190F22BF
:1073300006F074FE04F10F00C4B2E87938B932489F
:1073400002782046611CCCB22C490A5405E0FF2289
:107350002046611CCCB229490A5401260CE00022C7
:107360002046611CCCB225490A54FF222146601CEC
:10737000C4B2224842540A26E87978B92A7B2146C9
:10738000601CC4B21D4842542A7B03461819A968E0
:1073900006F044FE287B2044C4B205E000222046CB
:1073A000611CCCB215490A54601E81B21348401CBE
:1073B00000F06FFB014611480155601CC4B2212248
:1073C0002046611CCCB20D490A540D484472009607
:1073D0006B792A79417A094803F088F9F8BD0000F1
:1073E000000801400010014000300140000C014045
:1073F0000038004000040040C43900207D0C00200B
:10740000790B00200A340020770D002070B5054666
:1074100004242846FDF72CF90446042C01D020460C
:1074200070BD00212846FDF726FA0446042C01D041
:107430002046F5E705F58060FDF71AF90446204679
:10744000EEE770B504460D4606220623502095FB54
:10745000F0F04FF6FF7606EA4001FD4E06EB812084
:107460000288481C06EB80200388BCB1012C1ED189
:1074700043B94EF6EE60824201D1084670BD481C09
:1074800080B2FBE742B94EF6EE60834202D1481C5F
:1074900080B2F3E70846F1E7AB20EFE70AB9084608
:1074A000ECE713B9481C80B2E8E7AB20E6E70846F2
:1074B000E4E72DE9F0470646884604270025002426
:1074C000A14631460120FFF7BCFF0546AB2D01D197
:1074D000BDE8F087DE4800EB8524681CDC49891E86
:1074E00001EB802913E02068401C78B94146204612
:1074F000FDF7C1F90746042F01D03846E8E73146C9
:10750000A01CFDF7B8F907463846E1E7241D4C45B5
:10751000E9D38020DCE72DE9F04706460F4600243A
:10752000A0464FF001090025A24631460020FFF792
:1075300088FF0446AB2C01D1BDE8F087C44800EBBE
:10754000842A601CC249891E01EB80250AE0B5F837
:107550000080B04505D135F8020C38804FF00009A5
:1075600004E02D1F0AF102008542F0D800BF484612
:10757000E2E72DE9F84F06468846062000900627E8
:1075800000254FF000094FF0000A4FF0FF3B308814
:107590000090B8F80070009800286DD0A0F56E40FB
:1075A000EE3860B3A0F588501138002879D147B97A
:1075B0003046FDF75DF80446042C1FD02046BDE898
:1075C000F88F4EF6EE60874210D13046FDF750F846
:1075D0000446042C01D02046F1E700214046FDF787
:1075E0004AF90446042C09D02046E8E73046FFF764
:1075F0000DFF0446042C01D02046E0E7CCE0D7BBC9
:1076000000252DE0F0889249711A890A01EB810169
:1076100005EB0111884201D10FFA85FB5D451DD0B4
:107620004FF4C031711A890A01EB810105EB011198
:1076300088B28849FFF76FFF8246BAF1010F0DD07B
:107640004FF4C031711A890A01EB810105EB011178
:1076500088B280490988FFF72CFF8146681C85B2F3
:10766000502DCFDB00213046FDF705F90446042CF0
:1076700003D02046A3E708E026E04046FCF7F8FFE9
:107680000446042C1FD0204699E74FF6FF7087422E
:1076900011D14046FCF7ECFF0446042C02D02046F2
:1076A0008DE770E000213046FDF7E5F80446042C34
:1076B00009D0204683E73046FFF7A8FE0446042C95
:1076C00001D020467BE767E03FB93046FFF79EFEDA
:1076D0000446042C56D0204671E74FF6FF708742CF
:1076E00007D14046FCF7C4FF0446042C4AD020468C
:1076F00065E7002533E0B8F806005549711A890A94
:1077000001EB810105EB0111884201D10FFA85FBE4
:107710005D4522D04FF4C031711A890A01EB810115
:1077200005EB011188B24B49FFF7F5FE8246BAF12D
:10773000010F12D04FF4C031711A890A01EB810197
:1077400005EB011188B243490988FFF7B2FE814673
:10775000B9F1040F01D0484631E7681C85B2502DBD
:10776000C9DB00214046FDF786F80446042C01D011
:10777000204624E73046FCF77BFF0446042C01D06A
:1077800020461CE708E03046FFF740FE0446042C84
:1077900001D0204613E700BF00BF04200FE770B5FB
:1077A0000646FCF720FF9EB900240EE0621C284B21
:1077B00003EB822103EB8420FFF7DBFE0546042D5B
:1077C00001D0284670BDA01C44B20E2CEEDB19E09F
:1077D000002415E01E4901EB8420FCF749FF054613
:1077E000042D01D02846EDE7194901EB8420FFF76D
:1077F0000DFE0546042D01D02846E3E7A01C44B247
:107800000E2CE7DB2846DDE72DE9FC5F05468A46BE
:107810000426002001900090002400278046834623
:1078200081462946FFF70DFE0446204604EBD07141
:107830004910A4EB410101290ED1601E044901EB5E
:1078400080200190084600EB8420009018E00000A2
:10785000008001082A000020204604EBD071491066
:10786000A4EB410149B9601C374901EB802001902C
:10787000084600EB8420009002E0AB20BDE8FC9FAE
:107880004EF6EE610198FCF7F6FF0646042E01D095
:107890003046F3E751462846FFF70BFE8046B8F125
:1078A000040F01D04046E9E7502095FBF0F01FFAA5
:1078B00080F909EB89004FF6FF7101EA001716E025
:1078C000AF4212D021493846FFF725FE8346BBF16F
:1078D000010F0AD01D4801883846FFF7EAFD8046AF
:1078E000B8F1040F01D04046C8E7781C87B209F10F
:1078F000010000EB8000B7EB001FE1DB0098FCF714
:10790000B7FE0646042E01D03046B7E700210198A5
:10791000FCF7B1FF0646042E01D03046AEE73046F4
:10792000ACE770B505460E46002431462846FFF701
:10793000C0FD0446802C04D131462846FFF764FF81
:107940000446204670BD0000008001082A00002087
:1079500038B50446354951F824000121FDF73EFCB5
:10796000334830F81400ADF8000010208DF8030003
:1079700003208DF802002F4951F824006946FDF7D5
:1079800051F938BD08B1012807D1294931F8101043
:10799000284A52F8202051610AE0032801D0022829
:1079A00006D1234931F81010224A52F820201161E3
:1079B000704708B1012807D11D4931F810101D4A40
:1079C00052F8202011610AE0032801D0022806D1D4
:1079D000174931F81010174A52F8202051617047AA
:1079E000144951F82010C968114A32F8102051404A
:1079F000104A52F82020D160704708B50120ADF838
:107A0000000003208DF8020010208DF80300694665
:107A10000948FDF707F908BD10B50320FFF798FFE7
:107A20000220FFF795FFFFF7E8FF10BD50F80008B0
:107A300048F800082C0000200010014010B5044652
:107A400021461A48FEF700FE00BF80211748FEF7C6
:107A500069FE0128F9D110BD70B504460D46E1B2AA
:107A60001248FEF7F1FD00BF80211048FEF75AFED4
:107A70000128F9D1204670BD10B5044600BF202171
:107A80000A48FEF74FFE0128F9D10848FEF7E0FD4D
:107A900010BD10B502460B461078012103E0545C7E
:107AA00060404C1CA1B29942F9DB10BD0038014086
:107AB0007047704708B50121FC48FDF784F90121A2
:107AC0001C20FDF78BFB4FF47070ADF80000032015
:107AD0008DF8020010208DF803006946F448FDF788
:107AE000A1F800224021F248FDF74DF900224FF4A1
:107AF0008071EF48FDF747F901225102EC48FDF78C
:107B000042F900228021EA48FDF73DF94FF48070E8
:107B1000ADF8000003208DF8020010208DF803005E
:107B20006946E448FDF77EF801221102E148FDF7BD
:107B30002AF94FF40040ADF8000003208DF8020050
:107B400010208DF803006946DA48FDF76BF8012232
:107B5000D103D848FDF717F94FF4F850ADF80000FD
:107B600003208DF8020010208DF803006946D248EA
:107B7000FDF758F8BDF800100022CF48FDF703F9D3
:107B80004FF4E050ADF8000003208DF80200102003
:107B90008DF803006946C648FDF744F8BDF80010AB
:107BA0000022C348FDF7EFF808BD70B50446012276
:107BB0001102BF48FDF7E7F801225102BC48FDF76A
:107BC000E2F80122D103BB48FDF7DDF801221102E2
:107BD000B848FDF7D8F8B8480C30006820F4F850E1
:107BE000B5490C3108600846006804F01F0140EAFE
:107BF0000120B1490C310860AD48C06820F4E05064
:107C0000AB49C8600846C06804F0E00140EA411092
:107C1000A749C86001228915A548FDF7B4F80220DC
:107C200003F014FA03F00AFA03F008FA00224FF402
:107C300080719F48FDF7A7F89F48001D00686FF30B
:107C400013009D49091D0860084600689B490843C8
:107C50009949091D08609648406899490840944927
:107C6000486008464068954944390843904948604F
:107C7000002249158E48FDF786F800224FF4004196
:107C80008C48FDF780F803F0D9F98B48083000687C
:107C9000C0F3042086498968C1F3822140EA411576
:107CA00003F0CCF90122D1038248FDF76CF80122E0
:107CB00051027F48FDF767F8012003F0C7F97E48BD
:107CC000001D00686FF313007B49091D086008461A
:107CD00000687C4908437849091D08607448406879
:107CE0007749084072494860084640687549333909
:107CF00008436F494860284670BD70B505460C467C
:107D0000012211026A48FDF73EF86B480C3000680A
:107D100020F4F85068490C3108600846006805F006
:107D20001F0140EA012064490C3108606048C068C6
:107D300020F4E0505E49C8600846C06805F0E001E4
:107D400040EA41105A49C860022003F07FF900223E
:107D50004FF480715648FDF716F8022003F076F9CB
:107D600000224FF400715248FDF70DF852480C30D4
:107D7000006820F4F85050490C310860084600684B
:107D800004F01F0140EA01204B490C3108604848CB
:107D9000C06820F4E0504649C8600846C06804F056
:107DA000E00140EA41104249C8600022891541487B
:107DB000FCF7E9FF022003F049F9012211023D48D6
:107DC000FCF7E1FF012251023948FCF7DCFF70BDEE
:107DD00070B504460D4629462046FFF78EFFE0B2F7
:107DE000FFF7E3FE064633462A46214636A006F054
:107DF0008FFF70BD70B505460C4600262846FFF77C
:107E0000D4FE064646EA04012846FFF776FF70BD19
:107E100070B505460C4600262846FFF7C6FE064606
:107E200026EA04012846FFF768FF70BD10B503215C
:107E30001120FFF7EDFF10BD70B500244FF4005581
:107E4000FFF738FE002240211948FCF79CFF40F65E
:107E5000C41003F0FBF8012240211548FCF793FF02
:107E60004FF47A7003F0F2F8002240211048FCF73A
:107E70008AFF4FF4967003F0E9F800BF0120FFF786
:107E800094FE00F03F0020B1281EA5F101018DB243
:107E9000F4D105B901244CBB80210020FFF72DFF50
:107EA0000120FFF782FE10B3012424E0000230001D
:107EB0000010014000080140000C0140444404004F
:107EC000FF00F0FF3333030041646472203D20253E
:107ED0003478202C5752203D20253478202C5244D1
:107EE000203D20253478200D0A00000003E0002109
:107EF0000846FFF702FF9CBB00211F20FFF7FDFE95
:107F0000142003F0A3F840211F20FFF7F6FE1420F1
:107F100003F09CF840211F20FFF77AFFAD211B20C2
:107F2000FFF7EBFEFF211C20FFF7E7FE41211E209B
:107F3000FFF7E3FE1A212920FFF7DFFE02212B20A5
:107F4000FFF7DBFE02212D20FFF7D7FE5B2111207A
:107F5000FFF7D3FE3F211220FFF7CFFEFFF766FFAA
:107F6000204670BD10B50446012C06D0022C0DD061
:107F7000032C14D0042C24D11AE007212A20FFF767
:107F8000BCFE6A212C20FFF7B8FE23E007212A203F
:107F9000FFF7B3FEA0212C20FFF7AFFE1AE0092166
:107FA0002A20FFF7AAFEA0212C20FFF7A6FE11E051
:107FB00009212A20FFF7A1FEFF212C20FFF79DFEBB
:107FC00008E007212A20FFF798FE21462C20FFF722
:107FD00094FE00BF00BF06212B20FFF78EFE10BDD0
:107FE0002DE9F84F804644464FF0000B0027002053
:107FF0000090207812282FD00DDC072826D005DC31
:10800000B0B1012818D0032842D119E00B281ED0A6
:108010000C283DD11CE019282CD004DC14281FD0DA
:10802000162835D120E01A2828D01E2830D129E082
:108030000027002000902EE01127102000902AE059
:108040000727042000904FF0010B24E000BF00BF81
:108050000527042000901EE01127102000901AE050
:1080600004270420009016E00627042000904FF01B
:10807000010B10E00527042000900CE005270420E8
:10808000009008E03D27042000904FF0010B02E033
:108090001720207000BF00BF2078172873D0002160
:1080A0000846FFF72AFE7F210620FFF726FE7F21E4
:1080B0000720FFF722FE00210120FFF71EFE01210D
:1080C0000920FFF797FE47F080010620FFF715FE15
:1080D000002605E0A01C815D0220FFF70EFE761C45
:1080E0006078B042F6D821780120FFF706FE4FF401
:1080F000005600BF0720FFF758FD0546761E46B123
:1081000005EA070000F0200018B900982840002870
:10811000F0D04FF07D0AAEB305EA070000F0200072
:1081200080BB0A20FFF741FD00F0170048BB4FF06D
:10813000000ABBF1000F31D00420FFF736FD0546E1
:108140000520FFF732FD00F00709B9F1000F04D058
:10815000681E09EBC000607002E0E806000E607067
:1081600005B90125002605E00220FFF71EFDA11C30
:108170008855761CAE42F7D3F8222146404605F0DA
:108180004DFF0BE000E011E005EA070000F02000E1
:1081900010B14FF0010A01E04FF07D0A7F21062067
:1081A000FFF7ABFD7F210720FFF7A7FD5046BDE895
:1081B000F88F10B503211120FFF71CFE10BD000041
:1081C000F8B505460C466F466A20FFF7CBFE032143
:1081D0002220FFF792FD08210920FFF719FE072151
:1081E0000F20FFF78AFD1E208DF8000001208DF87A
:1081F00001008DF802502220FFF7D7FC06460F2021
:10820000FFF7D3FC06463846FFF7EAFE064656B9A6
:108210009DF80100102806D19DF8020020709DF8FD
:108220000300607000E00B263046F8BD2DE9FE43E8
:1082300005460F464FF00008E9466A20FFF792FE18
:108240000F212220FFF759FD08210920FFF7E0FD4B
:108250001E208DF8000007208DF8010093208DF876
:10826000020070218DF80310002409E0285D80EAE7
:1082700008082A5D0DF10200A11C4254601CC4B222
:10828000042CF3DB8DF808804846FFF7A9FE06466C
:108290006EB9D9F802003860D9F806007860B9F8EC
:1082A0000A0038819DF80100082800D00B263046CE
:1082B000BDE8FE832DE9FC4705460E460027B8467B
:1082C000E9466A20FFF74EFE28211A20FFF715FD28
:1082D00008210920FFF79CFD03212220FFF70DFD57
:1082E0001E208DF8000002208DF80100932D03D18F
:1082F00093208DF8020004E0952D02D195208DF891
:10830000020020218DF803104846FFF769FE8046E1
:10831000B8F1000F1BD1002405E00DF10200005D53
:108320004740601CC4B2042CF7DB0DF10200005D75
:10833000B84202D04FF0080809E0002405E00DF132
:108340000200005D3055601CC4B2042CF7DB202114
:108350001A20FFF75DFD4046BDE8FC872DE9FE438E
:1083600005460F464FF00008E9466A20FFF7FAFD80
:108370000F212220FFF7C1FC08210920FFF748FD4B
:108380001E208DF8000007208DF8010095208DF843
:10839000020070218DF80310002409E0285D80EAB6
:1083A00008082A5D0DF10200A11C4254601CC4B2F1
:1083B000042CF3DB8DF808804846FFF711FE0646D3
:1083C0006EB9D9F802003860B9F80600B88099F89B
:1083D0000800B8719DF80100082800D00B2630462F
:1083E000BDE8FE83F0B585B006460F466D466A20AF
:1083F000FFF7B8FD03212220FFF77FFC08210920A9
:10840000FFF706FD1E208DF8000004208DF8010006
:10841000E0208DF8020040218DF803100221A81CF5
:10842000FEF703FAC1B28DF804100221A81CFEF772
:10843000FCF9010A8DF805102846FFF7D1FD044626
:108440003CB90F22A91C304605F0E8FD002005B01C
:10845000F0BD2046FBE7F0B585B006460F466D46F9
:108460006A20FFF77FFD03212220FFF746FC082149
:108470000920FFF7CDFC1E208DF8000005208DF8A7
:108480000100D0208DF8020011218DF80310002189
:108490008DF804100321A81CFEF7C7F9C1B28DF8AE
:1084A00005100321A81CFEF7C0F9010A8DF806107B
:1084B0002846FFF795FD04463CB90F22A91C30461B
:1084C00005F0ACFD002005B0F0BD2046FBE7F0B59F
:1084D00089B006460F46002008906D466A20FFF7D7
:1084E00041FD07212220FFF708FC08210920FFF7A2
:1084F0008FFCFEF771F908A8FEF734FA1E208DF8FC
:1085000000009DF820008DF801009DF82020FE4914
:10851000A81C05F083FD2846FFF762FD04463CB920
:108520001E22A91C304605F079FD002009B0F0BDDF
:108530002046FBE7F0B589B006460F4600200890BC
:108540006D466A20FFF70EFD07212220FFF7D5FBBD
:1085500008210920FFF75CFCFEF73EF908A8FEF7AA
:1085600043FA1E208DF800009DF820008DF80100D0
:108570009DF82020E449A81C05F050FD2846FFF78F
:108580002FFD04463CB91E22A91C304605F046FDCD
:10859000002009B0F0BD2046FBE7F0B589B00646E3
:1085A0000F46002008906D466A20FFF7DBFC07218C
:1085B0002220FFF7A2FB08210920FFF729FCFEF784
:1085C0000BF908AA02210020FEF7A0FA1E208DF860
:1085D00000009DF820008DF801009DF82020CA4978
:1085E000A81C05F01BFD2846FFF7FAFC04463CB921
:1085F0001E22A91C304605F011FD002009B0F0BD77
:108600002046FBE72DE9F04389B00746884614462B
:108610009946002008906E466A20FFF7A3FC0721C8
:108620002220FFF76AFB08210920FFF7F1FBFEF784
:10863000D3F808AA41463846FEF768FA1E208DF89E
:1086400000009DF820008DF801009DF82020AE4923
:10865000B01C05F0E3FC3046FFF7C2FC054645B907
:108660001E22B11C204605F0D9FC002009B0BDE84F
:10867000F0832846FAE7F0B589B006460F46002099
:1086800008906D466A20FFF76DFC07212220FFF756
:1086900034FB08210920FFF7BBFBFEF79DF808A972
:1086A0000120FEF703FA1E208DF800009DF820003F
:1086B0008DF801009DF820209349A81C05F0AEFC20
:1086C0002846FFF78DFC04463CB91E22A91C304603
:1086D00005F0A4FC002009B0F0BD2046FBE7F0B592
:1086E00089B006460F46002008906D466A20FFF7C5
:1086F00039FC07212220FFF700FB08210920FFF7A2
:1087000087FBFEF769F808AA02210020FEF7FEF9B0
:108710001E208DF800009DF820008DF801009DF8C6
:1087200020207949A81C05F079FC2846FFF758FC61
:1087300004463CB91E22A91C304605F06FFC0020FF
:1087400009B0F0BD2046FBE72DE9F043BFB0074676
:1087500088461446994600203E906E46CE20FFF78C
:1087600001FC07212220FFF7C8FA08210920FFF7A2
:108770004FFBFEF731F83EAA41463846FEF7C6F9F0
:108780001E208DF800009DF8F8008DF801009DF87E
:10879000F8205D49B01C05F041FC3046FFF720FC95
:1087A000054645B9F622B11C204605F037FC0020ED
:1087B0003FB0BDE8F0832846FAE72DE9F047C0B0A6
:1087C0000746884691461C46DDF820A100203F90D0
:1087D00001AE0420FFF7C6FB07212220FFF78DFA28
:1087E00008210920FFF714FBFDF7F6FF3FAB4A46CF
:1087F00041463846FEF7B2F91E208DF804009DF878
:10880000FC008DF805009DF8FC203F49B01C05F0E8
:1088100005FC3046FFF7E4FB054645B9F622B11CDE
:10882000204605F0FBFB002040B0BDE8F08728465D
:10883000FAE7F0B589B006460F46002008906D466D
:108840006A20FFF78FFB07212220FFF756FA082145
:108850000920FFF7DDFAFDF7BFFF08A8FEF7F5F8DE
:108860001E208DF800009DF820008DF801009DF875
:1088700020202549A81C05F0D1FB2846FFF7B0FBB6
:1088800004463CB91E22A91C304605F0C7FB002057
:1088900009B0F0BD2046FBE72DE9F04389B007465B
:1088A000884614469946002008906E466A20FFF7D5
:1088B00059FB07212220FFF720FA08210920FFF7A2
:1088C000A7FAFDF789FF08AA41463846FEF71EF9C8
:1088D0001E208DF800009DF820008DF801009DF805
:1088E00020200949B01C05F099FB3046FFF778FBC2
:1088F00005465DB91E22B11C204605F08FFB002005
:1089000009B0BDE8F0830000AE0200202846F7E77A
:10891000F0B589B006460F46002008906D466A20E3
:10892000FFF720FB07212220FFF7E7F908210920A4
:10893000FFF76EFAFDF750FF08A8FEF753F91E2067
:108940008DF800009DF820008DF801009DF8202092
:108950004549A81C05F062FB2846FFF741FB044689
:108960003CB91E22A91C304605F058FB002009B076
:10897000F0BD2046FBE7F0B585B006460F466D46D4
:108980006A20FFF7EFFA03212220FFF7B6F908214A
:108990000920FFF73DFA1E208DF8000003208DF816
:1089A0000100C2208DF80200E0218DF80310B421EF
:1089B0008DF804102846FFF713FB04463CB90F223C
:1089C000A91C304605F02AFB002005B0F0BD20466A
:1089D000FBE72DE9F84304460D461646E8460F200E
:1089E000FFF7C0FA1E208DF8000002208DF801006C
:1089F000E0208DF802008DF803404046FFF7F0FAC2
:108A000007469DF80100C11700EB5171C91029708C
:108A1000012903DCBDF80200308000E07D273846E4
:108A2000BDE8F88338B500246D466A20FFF79AFA4E
:108A30001E208DF8000002208DF8010050208DF8D6
:108A4000020000218DF803102846FFF7C9FA0446FA
:108A500024B1012C01D01B2C00D1002400210120C5
:108A6000FFF74BF9204638BDAE02002002F05CFC57
:108A700001E000F001F8FCE710B501F0FEFC00F0A9
:108A800087FB01F08BFE01F0C7FD10BDF0B5044679
:108A90000B46002120460EE005787B2D0AD0057894
:108AA000222D07D005782C2D04D007780D464E1CBA
:108AB000F1B25F55401C05783A2DEDD100255D548B
:108AC0000021401C08E00578222D04D007780D46CF
:108AD0004E1CF1B25755401C05782C2D05D0057859
:108AE0005B2D02D005787D2DEDD1401C002555541D
:108AF000F0BD2DE9F04F93B007464FF0000A38461D
:108B000005F0BAFA80B2079000200590039003F0B8
:108B100009FC40B203900BAA08A93846FFF7B6FF3C
:108B20008046CBE00024C1460BAA08A94846FFF7BF
:108B3000ADFF804612E0FC4800EBC4000279FA4821
:108B400050F8341008A805F0A7FA28B9F64800EB49
:108B5000C40090F805A007E0601CC4B2F24800EB26
:108B6000C4004079FF28E6D100BF039800B1ACE013
:108B7000BAF1090F6FD2DFE80AF09E05062E4358BE
:108B80009E737D0098E00BA806F06EFDCDE9000114
:108B900005F0E7FB0646E5480660012140F2EF10CC
:108BA000FEF7BFFEE14801784FF4F870FEF7B9FE1A
:108BB000DE48417840F2F110FEF7B3FEDB488178E1
:108BC0004FF4F970FEF7ADFED848C17840F2F310CB
:108BD000FEF7A7FE70E00BA805F06DFAC6B2012EF5
:108BE0000ADD0B2E08DAD24806700146087802F03A
:108BF000BDFD0020039002E04FF0FF3003905BE0EA
:108C00000BA805F058FAC6B2012E0ADD0B2E08DAC1
:108C1000C74846700146487802F0D7FD002003900F
:108C200002E04FF0FF30039046E00BA805F043FA56
:108C3000C6B2012E10DB052E0EDC70B2BC49887066
:108C4000084690F9020081B240F2ED10FEF769FE8D
:108C50000020039003E02EE04FF0FF3003902BE064
:108C60000BA805F028FA85B2782D02DD4FF0FF3011
:108C7000039021E00598782819DC0BA806F0F4FC95
:108C8000CDE9000105F06DFB06900DF1180B02A96E
:108C900006A803F072FB0646012E0BD15946284662
:108CA00003F0EDFA0598401CC0B2059002E04FF0C9
:108CB000FF30039000E000BF00BF00BFA8EB07013A
:108CC0000798C01E8142FFF62DAF00BF99A001F0AA
:108CD0004DFC99A001F04AFC9EA104A8039A06F05D
:108CE00027F804A99CA001F041FCA0A001F03EFCE3
:108CF00013B0BDE8F08F3EB504460020009001900F
:108D0000029020680090684605F0D5F998490881DE
:108D10000020009001900290B4F80500ADF800002A
:108D2000684605F0C8F992498871002000900190CA
:108D300002902089ADF80000684605F0BCF98C4926
:108D400048710020009001900290B4F80B00ADF83B
:108D50000000684605F0AFF98549087100200090D1
:108D600001900290E089ADF80000684605F0A3F993
:108D70007F49C8700020009001900290B4F8110063
:108D8000ADF80000684605F096F9794988703EBD57
:108D90002DE9F04F95B080464FF0000A404605F0AF
:108DA0006BF980B20990D346724D002400200890E0
:108DB000079005900DAA0AA94046FFF767FE814675
:108DC000F8E00026CDF850900DAA0AA91498FFF7F4
:108DD0005DFE814612E0684800EBC60002796648F5
:108DE00050F836100AA805F057F928B9624800EB88
:108DF000C60090F805A007E0701CC6B25E4800EB04
:108E0000C6004079FF28E6D100BF059800B1D8E040
:108E1000BAF1070F7ED2DFE80AF0CA0405090A2773
:108E20002E00C5E00DA8FFF766FFC1E0C0E09DF889
:108E30003400642811D06A280BD06D2805D073281F
:108E40000FD100208DF81C000CE001208DF81C00D3
:108E500008E002208DF81C0004E003208DF81C00BF
:108E600000E000BF00BFA3E00DA805F024F9C0B2E8
:108E70008DF81D009CE09DF81C10022903D10321F0
:108E80008DF81E101FE09DF83600412812DB4728A0
:108E900010DC002109E09DF81E2001238B401A43BD
:108EA000D2B28DF81E204A1CD1B2A0F141028A42F2
:108EB000F1DA00BF302806DB392804DCA0F13001EC
:108EC000C9B28DF81E100BF1010101F0FF0BBBF1CF
:108ED000500F03DD6FF00101059169E0089909BBAE
:108EE0009DF81D1001F00F029DF81C1062F31F1178
:108EF0002246631C9CB2A9549DF81D1009099DF8D7
:108F00001E2002F00F0241EA02132146621C94B2B5
:108F10006B5400E04BE09DF81E1009092955012112
:108F2000089143E02AE0000034F90008C439002029
:108F30009A0000207B0D0A0020202266756E223ADE
:108F40002022696D706F72745F636F6E666967224D
:108F50002C0D0A0025640000202022726573756CB8
:108F600074223A20222573220D0A00007D0D0A008A
:108F7000680A0020780D0020FCF80008295D9DF8A3
:108F80001C2002F00F0241EA02112955611C8CB22B
:108F90009DF81D302146621C94B26B549DF81E3022
:108FA0002146621C94B26B540021089100E000BF7E
:108FB00000BF00BFA9EB08010998C01E8142FFF65F
:108FC00000AF00BF1020FC4908700898012803D1A9
:108FD000601C81F8F10002E0F74981F8F14000F0EF
:108FE00018FF07460FB1042F0EDB1021F34805F0E0
:108FF0002EF8F34800210160002001900120F14982
:10900000C87200F003FF02E04FF0FF300590AFF2AE
:10901000DC0001F0ABFAECA001F0A8FAAFF2CC0151
:1090200006A8059A05F084FE06A9AFF2D40001F067
:109030009DFAAFF2C80001F099FA15B0BDE8F08FC3
:1090400010B50346184604E004788C4200D1027043
:10905000401C0478002CF7D110BD2DE9F04188B0F8
:10906000E048008800287DDDDF48007840F2654157
:109070004843DE4901EB8005222227212846FFF7DD
:10908000DFFF0E2205F10801684604F0C7FF0C223D
:10909000D7A1684605F000F818B92846FFF778FE12
:1090A00064E00D22D6A1684604F0F6FF18B9284600
:1090B000FFF71FFD5AE0CC49097840F26542514361
:1090C000CA4A02EB810003F0A1FF064676B9AFF26F
:1090D0009C1001F04BFACEA001F048FAD1A001F0AB
:1090E00045FAAFF2781001F041FA39E00024002788
:1090F000D6A1304604F00FFCD0F8108018E004EB45
:109100004400D34B03EB8000027904EB440053F896
:109110002010404604F0C0FF40B904EB4400CC4AA4
:1091200002EB80008168304688470127601CC4B28A
:1091300004EB4400C64901EB800080680028DED1C2
:109140006FB9AFF2102001F011FAB1A001F00EFAE0
:10915000C0A001F00BFAAFF2EC1001F007FA00BF6B
:10916000304600E010E003F0D1F900BF9D480088D0
:10917000401E9C49088041F29411284604F067FF84
:1091800000209949087000BF08B0BDE8F081704721
:1091900010B5FFF7FCFFFFF760FF10BD70B5054687
:1091A000002403F0BFF80446002140F2EF10FEF760
:1091B000B8FB02F047FEAFF2842001F0D7F9AEA071
:1091C00001F0D4F91CB9B2A001F0D0F902E0B5A0C9
:1091D00001F0CCF9AFF26C2001F0C8F970BD70B5A8
:1091E0000446002599A1204604F095FB066901F08C
:1091F000D2FA0546AFF2C42001F0B8F90A22AEA1B6
:10920000304604F049FF80B90120AE4981F8B50429
:1092100001F0BEFAACA001F0A9F91DB99CA001F0C3
:10922000A5F902E09FA001F0A1F90922ADA1304605
:1092300004F032FF78B90020A24981F8B50401F0AA
:10924000A7FAFFF7EFFBFEF7F1FDA9A001F08EF9F9
:109250008FA001F08BF9AFF2EC2001F087F970BD1F
:109260002DE9F04385B0814600260027B046002551
:10927000AFF2403001F07AF9A3A001F077F91421A0
:10928000684604F0E4FEA848A8A10268684605F014
:109290004FFD6946A7A001F069F9ACA001F066F99D
:1092A000B3A001F063F9BDA001F060F90A2168469E
:1092B00004F0CDFEC0480278AFF26831684605F090
:1092C00037FD6946BDA001F051F90A21684604F056
:1092D000BEFEB9484278AFF28431684605F028FDF9
:1092E0006946BBA001F042F90A21684604F0AFFECE
:1092F000B14890F902603246AFF2A831684605F0F5
:1093000017FD6946B7A001F031F9AB48C07800F00D
:109310008000A8B1B9A001F029F90A21684604F03B
:1093200096FEA548C07800F07F073A46AFF2DC31E0
:10933000684605F0FDFC6946B8A001F017F902E0A7
:10934000BEA001F013F9C5A001F010F90024AAE1B4
:109350002146002002F04AFE8046B8F1010F29D1D3
:10936000681CC5B2C1A001F001F91421684604F0DF
:109370006EFE2246AFF22441684605F0D9FC6946EC
:10938000BCA001F0F3F81421684604F060FE04EB81
:1093900084004C4951F8102064A1684605F0C8FCCF
:1093A0006946B8A001F0E2F84648B0F8B004A84217
:1093B00001DD6FE175E171E1770D00202A340020B5
:1093C000790B0020B403002020202266756E223A1B
:1093D0002022616E737765725F7374617274222CE0
:1093E0000D0A00006C0000203C000020690E0020E7
:1093F000616E737765725F73746172740000000050
:10940000696D706F72745F636F6E666967000000EC
:1094100020202266756E223A20224572726F7222D7
:109420002C0D0A00202022646573637269707469D0
:109430006F6E223A20226A736F6E2073796E7461A8
:1094400078206572726F7221220D0A0066756E00B7
:1094500060F8000820202264657363726970746983
:109460006F6E223A2022756E6B6E6F7720636D648B
:1094700021220D0A0000000020202266756E223A8B
:109480002022636C6561725F776C222C0D0A0000EC
:10949000202022726573756C74223A202230220DCE
:1094A0000A000000202022726573756C74223A2035
:1094B000222D31220D0A000062696E645F737461AF
:1094C000727400000A35002020202266756E223A50
:1094D000202262696E645F7374617274222C0D0ABB
:1094E0000000000062696E645F73746F70000000BA
:1094F00020202266756E223A202262696E645F73B4
:10950000746F70222C0D0A0020202266756E223A9C
:1095100020226765745F6465766963655F696E665E
:109520006F222C0D0A000000C43900202530313094
:10953000750000002020226465766963655F6964B8
:10954000223A20222573222C0D0A000020202273AB
:109550006F6674776172655F76657273696F6E228C
:109560003A202276302E312E32222C0D0A000000B5
:1095700020202268617264776172655F766572731C
:10958000696F6E223A20225A4C2D52503535312DBA
:109590004D41494E2D46222C0D0A00002020226309
:1095A0006F6D70616E79223A20227A6B786C7465E7
:1095B0006368222C0D0A00009A00002020202274EB
:1095C000785F6368223A20222573222C0D0A00005E
:1095D00020202272785F6368223A20222573222C91
:1095E0000D0A000020202274785F706F7765722268
:1095F0003A20222573222C0D0A000000202022612F
:109600007474656E64616E63655F737461747573A1
:10961000223A20226F6E222C0D0A000020202261A7
:109620007474656E64616E63655F74785F636822ED
:109630003A20222573222C0D0A00000020202261EE
:109640007474656E64616E63655F73746174757361
:10965000223A20226F6666222C0D0A002020226CFE
:10966000697374223A205B0D0A000000202020203C
:109670007B00000020202275706F73223A20222583
:1096800073222C00202022756964223A202225733F
:1096900022000000F8A000F069FF02E0F8A000F04E
:1096A00065FF601CC4B2782CFFF652AEF6A000F045
:1096B0005DFFF3A000F05AFF05B0BDE8F0837FB571
:1096C00006460024F24D01222146641C6A542520DE
:1096D000691E0870601C81F8F1001021ED4804F04B
:1096E000B6FCED4800210160002000900120EB490C
:1096F000C87200F08BFBAFF2C47000F037FFE8A037
:1097000000F034FFAFF2782000F030FFAFF2A47029
:1097100000F02CFF7FBD7FB50646DD4D01222046BF
:10972000611CCCB22A541120691E0870601C81F89B
:10973000F1001021D74804F08AFCD74800210160CD
:10974000002000900120D549C87200F05FFBAFF601
:109750001C0000F00BFFD9A000F008FFAFF2D020F2
:1097600000F004FFAFF2FC7000F000FF7FBD2DE9B8
:10977000F843074602240425D7A1384604F0CBF865
:10978000D0F81080404604F096FCC4B2D4A138460C
:1097900004F0C1F8D0F81080404604F08CFCC5B24B
:1097A000012C14DD0B2C12DA012D10DD0B2D0EDA3D
:1097B000AC420CD0CC48047045700146087801F0EA
:1097C000D5FFC949487802F000F8002601E04FF0C3
:1097D000FF36AFF6A00000F0C9FEC4A000F0C6FE40
:1097E0003246AFF69001684605F0A2FA6946AFF638
:1097F000980000F0BBFEAFF68C0000F0B7FEBDE8AD
:10980000F883F8B506460424BFA1304604F083F877
:109810000769384604F04FFC44B2012C0CDB052CE0
:109820000ADCB148847090F9020081B240F2ED1078
:10983000FEF777F8002501E04FF0FF35AFF60C108A
:1098400000F094FEB3A000F091FE2A46AFF6FC01B2
:10985000684605F06DFA6946AFF6041000F086FE22
:10986000AFF6F80000F082FEF8BD2DE9FF5F8346F9
:109870004FF0000900F08FFF0090ADA1584604F0B2
:109880004AF8D0F81080404604F0F6FBC5B2AB4C65
:10989000002D46DD142D44DCCA4600270020206040
:1098A0006060208113E018F807003038F02101EAE9
:1098B0000010791C18F8011001F00F010843207006
:1098C000641C0AF1010000F0FF0AB81CC7B2AF42E5
:1098D000E9DB284605EBD0714910A5EB410129B120
:1098E00014F8010C40F00F0004F8010CD14606E01A
:1098F000FF202070641C09F1010000F0FF09B9F19C
:109900000A0FF5DB009848B901208D4981F8B504AC
:1099100081F8B60400F03CFF002601E04FF0FF366E
:1099200001E06FF0010604F0F2F9039085A004F065
:10993000BBF907463A46AFF2EC41039804F056F8FB
:109940003246AFF6F01101A805F0F2F901A804F0D3
:10995000ABF907463A467FA1039804F047F803980D
:1099600003F077FF0290222211460298FFF768FB6E
:109970007AA0029900F0FAFD039802F0C7FD029860
:1099800005F0F6FEBDE8FF9F2DE9F04385B0814666
:1099900000260027B0460025AFF6682000F0E6FD5F
:1099A0006FA000F0E3FD1421684604F050FB7348FB
:1099B000AFF288410268684605F0BAF9694670A0BE
:1099C00000F0D4FD0A21684604F041FB46480278C5
:1099D000AFF68021684605F0ABF96946AFF2244046
:1099E00000F0C4FD0A21684604F031FB3E4842788D
:1099F000AFF6A021684605F09BF96946AFF230400A
:109A000000F0B4FD0A21684604F021FB364890F9C5
:109A100002603246AFF6C421684605F089F969460E
:109A2000AFF2404000F0A2FD2F48C07800F0800067
:109A3000B8B1AFF2384000F099FD0A21684604F051
:109A400006FB2948C07800F07F073A46AFF6FC21B4
:109A5000684605F06DF96946AFF2404000F086FDBA
:109A600003E0AFF2284000F081FDAFF2104000F0BB
:109A70007DFD0024CEE00000207D2C0D0A000000BA
:109A8000207D0D0A0000000020205D0D0A0000006E
:109A9000780D00202A340020790B0020B403002028
:109AA00020202266756E223A20226F6E655F6B65FC
:109AB000795F6F6666222C0D0A0000002020226666
:109AC000756E223A2022616E737765725F73746FD0
:109AD00070222C0D0A00000074785F63680000009B
