:020000040800F2
:10000000F00800200101000833160008ED15000873
:1000100031160008110300080B1C00080000000046
:10002000000000000000000000000000151700089C
:100030003D0300080000000055160008CD19000817
:100040001B0100081B0100081B0100081B01000820
:100050001B0100081B0100081B0100081B01000810
:100060001B0100081B0100081B0100081B01000800
:100070001B0100081B0100081B0100081B010008F0
:100080001B0100081B0100081B0100081B010008E0
:100090001B0100081B0100081B0100081B010008D0
:1000A0001B0100081B0100081B0100081B010008C0
:1000B0001B0100081B0100081B0100081B010008B0
:1000C0001B0100081B0100081B0100081B010008A0
:1000D0001B0100081B0100081B0100081B01000890
:1000E0001B0100081B0100081B010008DFF80CD0F1
:1000F00000F050F800480047AD1F0008F00800204D
:100100000648804706480047FEE7FEE7FEE7FEE7B1
:10011000FEE7FEE7FEE7FEE7FEE7FEE7311A00082E
:10012000ED000008202A04DB203A21FA02F0002129
:10013000704721FA02F3D040C2F1200291400843F7
:1001400019467047D2B201E000F8012B491EFBD2DC
:1001500070470022F6E710B513460A4604461946D2
:10016000FFF7F0FF204610BD30B50B4601460020DA
:100170002022012409E021FA02F59D4205D303FA69
:1001800002F5491B04FA02F52844151EA2F10102EA
:10019000F1DC30BD064C074D06E0E06840F001039D
:1001A00094E8070098471034AC42F6D3FFF7A2FF5B
:1001B000582100087821000870B586B04FF000067D
:1001C0000D460400009601960296039625D1264816
:1001D000816941F004018161816901F004010491A8
:1001E000816941F004018161816901F00401049198
:1001F000816941F480418161816901F48041049108
:10020000816941F480418161806900F480400490FB
:100210001648416841F0080141601548694630F8C8
:10022000140000900220019003200390012002900E
:10023000104850F8240000F013FA0D480196801C75
:10024000694630F8140000900A48001D50F8240058
:1002500000F006FA0748001F50F8240028602846DE
:1002600001F091F806B070BD00100240000001409E
:10027000502100081C00002070B586B004004FF02B
:1002800000000090019002900390114801D0012CD1
:1002900007D1816941F004018161806900F00400A7
:1002A00004900C4E0C4D694636F814000090012065
:1002B00001900320039055F8240000F0D1F936F89E
:1002C000141055F82400002200F0ACFA06B070BDFE
:1002D0000010024054210008240000200449054A6F
:1002E00031F8101052F82000012200F09BBA0000F3
:1002F00054210008240000200349044A31F810105A
:1003000052F8200000F08ABA54210008240000208E
:10031000FEE7000030B504460020651804E000BF89
:1003200014F8011B01F061FCAC42F9D3002101F08B
:100330005CFCBDE83040002101F057BC7047000074
:1003400030B585B000250446049500F077F90A48D9
:100350000121001B800A03900095CDE9011404A936
:10036000684600F0C7F8044600F01EF914B10120F9
:1003700005B030BD0020FBE70080010810B500F09B
:100380005DF903493420C860BDE8104000F00CB9A5
:10039000002002402DE9F04116468846054600241B
:1003A00000F04CF90E4F13E058F8242000232946A2
:1003B000022000F003F910B10320BDE8F08158F8E5
:1003C00024002968814201D00220F6E7641C2D1D1B
:1003D000B44201D2BD42E7D900F0E6F80020ECE7D4
:1003E000FC7F010806490020C8610648016941F008
:1003F00004010161016941F04001016170470000A1
:100400004800002000200240064A0021D161064930
:100410000A6942F002020A614861086940F040003E
:10042000086170474800002000200240044B002271
:10043000DA61044A136943F00103136101807047D4
:1004400048000020002002400E49C868C2060E483D
:1004500003D5C26942F00202C261CA68520703D5DD
:10046000C26942F00102C261CA69D20707D0C269FB
:1004700042F00402C261C86920F00100C861142082
:10048000C8607047002002404800002070B5054653
:1004900000F0CEF90646104C09E0681C07D025B1E3
:1004A00000F0C6F9801BA84201D9032070BDE068A6
:1004B000C007F2D1E068800601D52020E060E06846
:1004C000C00605D4E068400702D4E069C007EDD05B
:1004D000FFF7BAFF012070BD0020024031B500F0E7
:1004E000A7F9044600F0A4F90099001B8842F9D34B
:1004F00038BD00002DE9F047054629488846012708
:10050000017E01290ED00121814601762868254C03
:100510004CF25036022808D0B2463046FFF7B6FFFC
:1005200060B137E00220BDE8F0873046FFF7AEFF4C
:1005300038BB0120FFF756FF30460CE02868022840
:1005400005D04FF0FF31C8F80010AE681CE06868B5
:10055000FFF748FF5046FFF799FF0746206920F054
:100560000400206116E03046FFF74EFF5046FFF7CB
:100570008DFF0700206920F00200206102D0C8F83A
:10058000006007E006F58066D5E9020100EB8120F6
:10059000B042E8D8002189F818103846C3E70000B7
:1005A00048000020002002400348016941F080011A
:1005B0000161002070470000002002402DE9F05F3B
:1005C00007461C4888460024017E15461E46012920
:1005D00009D00121814601764CF2503A5046FFF78E
:1005E00055FF18B122E00220BDE8F09F012F02D094
:1005F000022F00D00427D346DFF83CA02201284672
:100600003146FFF78FFD81B208EB4400FFF70EFF84
:100610005846FFF73BFFDAF8102022F00102CAF833
:10062000102018B9641CE4B2BC42E7D3002289F858
:100630001820D9E748000020002002400548016941
:10064000090605D50449416004494160002070470E
:10065000012070470020024023016745AB89EFCDA0
:100660002DE9F84FDFF890A100220AF1040B14469F
:1006700001274FF00F090BF1040E00BF0B6807FABA
:1006800004F52B40AB4274D1DFF870C14E68A6EB85
:100690000C0866452BD00DDC032E34D005DC36B3B8
:1006A000012E19D0022E2FD11BE0112E16D0122EA2
:1006B0002AD119E0B8F5881F19D006DCB8F5803FBB
:1006C00015D0B8F5801F1FD111E0B8F5001F0ED06E
:1006D000B8F5041F18D10AE0CA6815E0CA68121DEF
:1006E00012E0CA6808320FE0CA680C320CE08A686F
:1006F0002AB1012A4FF0080203D0456104E0042228
:1007000002E0056100E00022FF2B01D8064601E06F
:1007100000F104064FEA840501D9A5F12005D6F8B9
:1007200000C009FA05F82CEA080C02FA05F54CEAB3
:10073000050CC6F800C04D68ED0057D5304DAE69C8
:1007400046F00106AE61AD6924F0030605F001052F
:1007500000952C4D06EB050CDCF80850A6074FEA77
:10076000167809FA08F6B543274EB04202D10026A2
:1007700010E03BE0254EB04201D101260AE0244EB4
:10078000B04201D1022605E0224EB04201D103263B
:1007900000E0042606FA08F62E43CCF808604D68FF
:1007A000DAF80060ED03554601D51E4300E09E4394
:1007B0002E604D68DBF80060AD035D4601D51E4339
:1007C00000E09E432E604D68DEF80060ED02754645
:1007D00001D51E4300E09E432E604D68AD020E4DD4
:1007E0002E6801D51E4300E09E432E60641C102C31
:1007F000FFF444AFBDE8F88F000401400000111081
:10080000001002400000014000080140000C0140BF
:1008100000100140001401400C040140C2684A402D
:10082000C26070470AB1016170470904FBE700002C
:10083000014800687047000000000020024801687D
:10084000491C01607047000000000020074810B5F7
:10085000016841F010010160032000F03BF80F2017
:1008600000F006F800F015F8002010BD002002404E
:1008700010B5044600F084F94FF47A71B0FBF1F042
:1008800000F06DFD00222146501E00F003F800200C
:1008900010BD7047F0B40E4B1B680C46C3F3022327
:1008A000C3F10705042D00D90425191D072901D21C
:1008B000002300E0DB1E012606FA05F1491E214057
:1008C00099409E40761E16403143F0BC00F0B2BE07
:1008D0000CED00E0064900F0070208684FF6FF0340
:1008E000184040EA0220034A1043086070470000A5
:1008F0000CED00E00000FA052DE9F047DFF87892F2
:1009000005460E46D9F80000022300F00707012033
:1009100041044206994C41F28838B74271D2D9F865
:1009200000C02CF0070C4CEA060CC9F800C0D9F83E
:10093000007007F00707B7426FD12E78B60705D5CC
:100940006668AF6826F0F0063E4366602E78F607CC
:1009500056D06E68012E0BD0022E1ED093FAA3F152
:10096000B1FA81F141F02001490924D0216823E046
:1009700091FAA1F2B2FA82F242F02002520901D0B9
:10098000226800E0626A91FAA1F1B1FA81F101F006
:100990001F018840024240D017E092FAA2F1B1FA5A
:1009A00081F141F02001490901D0216800E0616A2C
:1009B00092FAA2F202E0616A93FAA3F2B2FA82F228
:1009C00002F01F029040014227D0606820F003002F
:1009D00030436060FFF72CFF06466868012809D0A5
:1009E0000228474613D01EE0FFF722FF801BB842C3
:1009F00001D992E047466068C0F381000128F3D135
:100A0000A1E015E0FFF714FF801BB84273D86068BF
:100A1000C0F381000228F5D195E092E0FFF708FFCE
:100A2000801BB84279D8606810F00C0FF6D18AE0CC
:100A30002F78BF0707D56768D5F808C027F0F007FB
:100A400047EA0C0767602F78FF076DD06F68012FAA
:100A50000BD0022F1ED093FAA3F1B1FA81F141F02D
:100A60002001490924D0216823E091FAA1F2B2FAC9
:100A700082F242F02002520901D0226800E0626A4C
:100A800091FAA1F1B1FA81F101F01F01884002420F
:100A900057D017E092FAA2F1B1FA81F141F02001AA
:100AA000490901D0216800E0616A92FAA2F202E0ED
:100AB000616A93FAA3F2B2FA82F202F01F02904046
:100AC00001423ED0606820F0030038436060FFF7C9
:100AD000AFFE07466868012807D0022811D01FE042
:100AE000FFF7A6FEC11B414517D86068C0F381001F
:100AF0000128F5D118E010E0FFF79AFEC11B41452F
:100B00000BD86068C0F381000228F5D10CE000BF6B
:100B1000FFF78EFEC11B414502D90320BDE8F087D7
:100B2000606810F00C0FF3D1D9F8001021F0070124
:100B30003143C9F80010D9F8000000F00700B042B6
:100B400001D00120EAE72878400705D56068E96808
:100B500020F4E060084360602878000706D56068EC
:100B6000296920F4605040EAC10060600F20FFF75F
:100B70007FFE0020D2E7000000200240001002406B
:100B800010B500F043F808494968F02292FAA2F241
:100B900001F0F001B2FA82F2D140044A515CC8403F
:100BA0000349086010BD0000001002404021000809
:100BB0000400002010B5FFF7E3FF074949684FF430
:100BC000E06292FAA2F201F4E061B2FA82F2D1405C
:100BD000024A515CC84010BD00100240402100088C
:100BE00010B5FFF7CDFF074949684FF4605292FAFC
:100BF000A2F201F46051B2FA82F2D140024A515C91
:100C0000C84010BD001002404021000810B519A3D3
:100C100085B00FCB8DE80F001AA01B4B0068049025
:100C20005A681A4802F00C0104291DD008291BD16A
:100C30004FF4701494FAA4F402F47011B4FA84F42A
:100C4000E140D2031DF8011010D55A684FF400336B
:100C500093FAA3F302F40032B3FA83F3DA4004AB5D
:100C60009A5CB0FBF2F0484305B010BD0848484319
:100C7000FAE7000002030405060708090A0B0C0D39
:100C80000E0F1010010200000010024000127A0046
:100C900000093D002DE9F84F05460078DFF85C9526
:100CA000C0074FF0010429D0D9F804004E46C0F324
:100CB00081006704012807D07068C0F38100022812
:100CC0001DD17068C0031AD597FAA7F0B0FA80F06A
:100CD00040F02000400901D0306800E0706A97FAC7
:100CE000A7F1B1FA81F101F01F0104FA01F1084204
:100CF00004D06868012801D0052879D184E03068E3
:100D000020F480303060306820F480203060FFF7BD
:100D10008FFD824641F2883806E000BFFFF788FD6C
:100D2000A0EB0A0141457DD897FAA7F0B0FA80F010
:100D300040F02000400901D0306800E0706A97FA66
:100D4000A7F1B1FA81F101F01F0104FA01F10842A3
:100D5000E4D1306820F480303060686801280BD01E
:100D6000052811D0306820F480203060686858B3BE
:100D7000FFF75EFD824611E0306820F4802030608D
:100D8000306840F48030F0E70520B070EEE700BF37
:100D9000FFF74EFDA0EB0A014145C4D897FAA7F032
:100DA000B0FA80F040F02000400901D0306800E047
:100DB000706A97FAA7F1B1FA81F101F01F0104FA04
:100DC00001F10842E4D01FE0FFF732FD824605E062
:100DD000FFF72EFDA0EB0A014145A4D897FAA7F032
:100DE000B0FA80F040F02000400902D0306801E005
:100DF000BAE0706A97FAA7F1B1FA81F101F01F0128
:100E000004FA01F10842E3D12878FD4F80074FF042
:100E1000000A4FF0020634D5D9F80410484611F004
:100E20000C0F00E0B0E108D04168C846C1F3810171
:100E3000022927D14168C90324D496FAA6F1B1FA50
:100E400081F141F02001490901D0016800E0416AC7
:100E500096FAA6F2B2FA82F202F01F0204FA02F245
:100E6000114202D0296901297ED10168F82321F0BD
:100E7000F80293FAA3F36969B3FA83F399400A433A
:100E800002604FE0286938B394FAA4F0B0FA80F019
:100E900047F82040FFF7CCFC834605E0FFF7C8FC8D
:100EA000A0EB0B00642898D896FAA6F0B0FA80F070
:100EB00040F020004009404601D0006800E0406A50
:100EC00096FAA6F1B1FA81F101F01F0104FA01F1DD
:100ED0000842E3D04046C8E794FAA4F1B1FA81F1A0
:100EE00047F821A0FFF7A4FC834605E0FFF7A0FC2C
:100EF000A0EB0B006428D6D896FAA6F0B0FA80F0E2
:100F000040F020004009404601D0006800E0406AFF
:100F100096FAA6F1B1FA81F101F01F0104FA01F18C
:100F20000842E3D12878000773D5A869D8B394FAAA
:100F3000A4F0B0FA80F007EB8000C0F88044FFF71F
:100F400077FC804606E000BFFFF772FCA0EB0800CC
:100F50006428A8D896FAA6F0B0FA80F040F06000B5
:100F6000B4EB501F04D100E0D7E1D9F800000CE049
:100F700096FAA6F0B0FA80F040F06000B6EB501F91
:100F8000484601D1006A00E0406A96FAA6F1B1FA3B
:100F900081F101F01F0204FA02F10842D4D00120CD
:100FA000FFF79CFA35E0FFE794FAA4F1B1FA81F17A
:100FB00007EB8101C1F880A4FFF73AFC804605E009
:100FC000FFF736FCA0EB0800642894D896FAA6F048
:100FD000B0FA80F040F06000B4EB501F02D1D9F8B5
:100FE00000000CE096FAA6F0B0FA80F040F0600045
:100FF000B6EB501F484601D1006A00E0406A96FAFD
:10100000A6F1B1FA81F101F01F0204FA02F10842DF
:10101000D6D1287840077DD5D9F81C1041F08051F1
:10102000C9F81C10D9F81C00DFF8D8B100F08050C6
:101030000090DBF8001041F48071CBF80010FFF74E
:10104000F7FB804606E000BFFFF7F2FBA0EB0800CD
:101050006428BAD8DBF80000C005F5D594FAA4F1ED
:10106000B1FA81F107EB8101C1F800A44FF0040B44
:101070009BFAABF1B1FA81F107EB8101C1F800A451
:10108000FFF7D6FB009007E0FFF7D2FB0099411A6B
:1010900041F28830814277D896FAA6F0B0FA80F013
:1010A00040F04000B4EB501F02D1D9F800000CE032
:1010B00096FAA6F0B0FA80F040F04000B6EB501F70
:1010C000484601D1006A00E0406A96FAA6F1B1FAFA
:1010D00081F101F01F0104FA01F1A0460842D3D1C9
:1010E000E868E0B1012850462AD094FAA4F1B1FA98
:1010F00081F107EB8101C1F800049BFAABF000BF5E
:10110000B0FA80F007EB8000C0F80044E8680128DE
:1011100021D000E083E0FFF78BFB834656E094FA92
:10112000A4F1B1FA81F107EB8101C1F800A49BFAA7
:10113000ABF1B1FA81F107EB8101C1F800A4E5E759
:101140009BFAABF1B1FA81F107EB8101C1F8000420
:1011500094FAA4F0D4E7FFF76BFB834608E000BFE6
:10116000FFF766FBA0EB0B0141F2883081420BD800
:1011700096FAA6F0B0FA80F040F04000B8EB501FAD
:1011800003D1D9F800000DE09DE096FAA6F0B0FA80
:1011900080F040F04000B6EB501F484601D1006A95
:1011A00000E0406A96FAA6F1B1FA81F101F01F025F
:1011B00008FA02F10842D3D031E000BFFFF738FB54
:1011C000A0EB0B0141F2883081427CD896FAA6F060
:1011D000B0FA80F040F04000B8EB501F02D1D9F8CF
:1011E000000012E096FAA6F0B0FA80F040F040005D
:1011F000B6EB501F484607D1006A06E000100240D7
:101200000000424200700040406A96FAA6F1B1FA2E
:1012100081F101F01F0208FA02F10842CED1E8691B
:10122000B0B3D9F804104E46C1F38101022974D03D
:1012300002284FF080714FF0007950460AD091FAA1
:10124000A1F1B1FA81F147F82100FFF7F1FA074661
:101250004D466BE08A4691FAA1F1B1FA81F1BB46A5
:1012600047F82100FFF7E4FA80464F4606E000BF4A
:10127000FFF7DEFAA0EB0800642854D897FAA7F02D
:10128000B0FA80F040F02000400902D0306801E060
:1012900061E0706A97FAA7F1B1FA81F101F01F01DC
:1012A00004FA01F10842E3D1286AB0F5803F05D184
:1012B0007068A96820F4003008437060D5E908011F
:1012C0000843716800E02EE021F474110843706057
:1012D0009AFAAAF0B0FA80F04BF82040FFF7A8FA8B
:1012E000054604E0FFF7A4FA401B64281BD897FAD0
:1012F000A7F0B0FA80F040F02000400901D030683B
:1013000000E0706A97FAA7F1B1FA81F101F01F01CC
:1013100004FA01F10842E5D01DE01EE0FFF788FA6B
:10132000C01B642802D90320BDE8F88F95FAA5F008
:10133000B0FA80F040F02000400901D0306800E0B1
:10134000706A95FAA5F1B1FA81F101F01F0104FA72
:1013500001F10842E2D10020E6E70120E4E710B500
:10136000401EB0F1807F01D3012010BD4FF0E0247A
:1013700060610F21601700F05DF90020A061072077
:101380002061002010BD70B5040004D094F839002D
:10139000002510B106E0012070BD84F838502046C9
:1013A00000F020F8022084F839002068C16821F498
:1013B0000051C160204600F05FFB2068016921F404
:1013C000904101612068416921F02A014161206852
:1013D000C16841F40051C160E563012084F839001F
:1013E000002070BD194810B5816986B041F0040134
:1013F0008161816901F004010491816941F0040176
:101400008161816901F004010491816941F48041A5
:10141000816180690E4C00F4804004904FF40070AC
:101420000090022001900120029003200390694661
:101430002046FFF715F9201500900020019069461D
:101440002046FFF70DF906B010BD00000010024065
:10145000000801402DE9F047044690F8390099460C
:101460000D46012801D0122858D12DB322B394F88B
:101470003800012852D0012684F838600027E7633D
:1014800094F8390012281AD05FF0220084F839004D
:10149000A285E2854FF48058E08D4B46401EE085E2
:1014A000A0684FF0000240454FF02001204616D1C1
:1014B00000F052FBB0B904E00120BDE8F087322013
:1014C000E4E7206900282068406803D0C1B225F80D
:1014D000011B12E0C0F3080125F8021B0DE000F02B
:1014E0003BFB08B10320E8E720690028206840683A
:1014F00001D000F07F0005F8010BE08D0028CBD172
:1015000094F83900322805D084F8396084F83870AE
:101510000020D2E7122084F83900F7E70220CCE758
:101520002DE9F047044690F8390099460D46012808
:1015300001D0222858D12DB322B394F838000128C5
:1015400052D0012684F838600027E76394F8390008
:1015500022281AD05FF0120084F83900A284E284B5
:101560004FF48058E08C4B46401EE084A0684FF05A
:10157000000240454FF08001204613D100F0ECFA04
:1015800008BB04E00120BDE8F0873220E4E72888AA
:101590002168C0F308004860206908B16D1C08E0AC
:1015A000AD1C06E000F0D8FA68B9216815F8010B07
:1015B0004860E08C0028D5D14B46002240212046CF
:1015C00000F0CAFA08B10320DDE794F839003228A8
:1015D00006D084F8396000BF84F838700020D2E764
:1015E000222084F83900F7E70220CCE7FEE700006C
:1015F000F0B500220D4B154614460A27B1FBF3F651
:1016000030368654B1FBF3F603FB1611B3FBF7F348
:10161000521C861816F8016C302E00D125B16D1CB5
:10162000641C0A2CEAD3F0BD0022F9E700CA9A3BF9
:10163000FEE770470907090E002806DA00F00F00E0
:1016400000F1E02080F8141D704700F1E02080F8E0
:1016500000147047704700002DE9F84300240F463E
:101660000646904613460C60012269462848FFF75B
:10167000F1FE050020D19DF80000182820D006DCDE
:1016800001280BD002280BD0042804D104E0412803
:1016900027D0612825D0012530700DE0802401E09D
:1016A0004FF480643070221D4346B11C1848FFF788
:1016B000D1FE050017D0002428463C60BDE8F88321
:1016C0004346012269461248FFF7C4FE18B99DF847
:1016D0000000182803D001259DF80000DCE7022453
:1016E000DAE70225D8E7F178B07881F0FF01884287
:1016F0000AD130190179407900EB01282146301DCB
:10170000FEF708FE4045D7D000240125D4E70000AD
:1017100068000020704700001FB500200090019075
:101720000290039017A000F039FB03A800F06EFAB6
:1017300004464FF49670FEF7D1FE3CB1052C19D04B
:10174000042C1BD0022C1BD01DA014E024A000F000
:1017500025FB2DA000F022FB354936A000F01EFB32
:1017600068460399FFF744FF694635A000F016FB71
:1017700038A000E041A000F011FB1FBD4FA0FAE728
:1017800055A0F8E757616974696E6720666F72202B
:101790007468652066696C6520746F2062652073CB
:1017A000656E74202E2E2E2028707265737320278C
:1017B000612720746F2061626F7274290A0D000026
:1017C0000A0D4661696C656420746F2072656365FB
:1017D000697665207468652066696C65210A0D006C
:1017E0000A0A0D2050726F6772616D6D696E672015
:1017F000436F6D706C6574656420537563636573C6
:101800007366756C6C7921000A0D2D2D2D2D2D2DF3
:101810002D2D2D2D2D2D2D2D2D2D2D2D2D2D2D2DF8
:101820002D2D2D2D2D2D2D2D2D2D2D2D2D2D2D0015
:10183000AE0400200A0D204E616D653A257300004C
:101840000A0D2053697A653A2573204279746573CD
:101850000D0A00002D2D2D2D2D2D2D2D2D2D2D2D55
:101860002D2D2D2D2D2D2D2D2D2D2D2D2D2D2D2DA8
:101870002D2D2D2D2D2D2D2D2D0D0A000A0A0D5447
:10188000686520696D6167652073697A6520697391
:1018900020686967686572207468616E2074686585
:1018A00020616C6C6F776564207370616365206D77
:1018B000656D6F7279210A0D000000000A0A0D564D
:1018C0006572696669636174696F6E206661696CCF
:1018D0006564210A0D0000000D0A0A41626F7274EE
:1018E000656420627920757365722E0A0D00000010
:1018F00001B5074890F83910032902D1012180F879
:1019000039106423012269460148FFF709FE08BD2A
:1019100068000020F0B5054600242A7820462346BA
:10192000302A2ED16A78782A01D0582A29D1022467
:101930001CE000BFA2F14106052E07D9A2F1610704
:10194000052F03D91136092E04D913E0A2F130076F
:10195000092F01D8303A04E0052E01D8373A00E0CB
:10196000573A641C02EB03130B2C04D22A5D002AA5
:10197000E0D103E000202A5D002A01D101200B60A4
:10198000F0BD2A5D62B16B2A01D04B2A02D10CB1A5
:101990009B0205E06D2A01D04D2A04D11CB11B0524
:1019A00001200B600AE0A2F13006092E0CD803EBEF
:1019B00083036FF02F0606EB43031344641C0B2CC8
:1019C000DED20128DDD1F0BD0020F0BDFEF736BF2C
:1019D00030B58FB014210AA8FEF7BBFB282168465A
:1019E000FEF7B7FB02250024CDE900540120CDE924
:1019F0000340102005904FF46010CDE90840079592
:101A000002946846FFF746F900B1FEE70F200A90FE
:101A1000CDE90B544FF48060CDE90D0402210AA8F2
:101A2000FEF76AFF002800D0FEE70FB030BD0000CF
:101A30000D48016841F00101016041680B4A114005
:101A4000416001680A4A11400160016821F4802167
:101A50000160416821F4FE0141604FF41F01816083
:101A60000449C00308607047001002400000FFF8FE
:101A7000FFFFF6FE08ED00E02DE9F04104460068A6
:101A80000169E26821F44051114301612169A068B4
:101A90000843616908432168CA6841F20C639A43AC
:101AA0000243CA6020684169A26921F44071114370
:101AB00041612849206864254FF03208884218D1D6
:101AC000FFF78EF800EBC00101EB001061688900A0
:101AD000B0FBF1F0B0FBF5F6FFF782F800EBC001C8
:101AE00001EB001061688900B0FBF1F7FFF778F8AF
:101AF00017E0FFF75FF800EBC00101EB0010616831
:101B00008900B0FBF1F0B0FBF5F6FFF753F800EBFE
:101B1000C00101EB001061688900B0FBF1F7FFF72D
:101B200049F800EBC00101EB001061688900B0FBCF
:101B3000F1F0B0FBF5F06FF01801484307EB8001BE
:101B400008EB0110B0FBF5F0216866F31F10886008
:101B5000BDE8F081003801402DE9F0471D46904670
:101B60000E460446FEF764FE07465FEA08004FF0A3
:101B700000094FF0010808D030E0681C05D095B18D
:101B8000FEF756FEC01BA8420DD82068006836EA52
:101B90000000F2D127E0681C20D025B1FEF748FEF6
:101BA000C01BA8421AD92068C16821F08001C16019
:101BB0002068C16821F02001C1602068C16821F45B
:101BC0008071C1602068416921F00101416184F8A0
:101BD000398084F838900320BDE8F08720680068D9
:101BE00036EA0000D7D00020F6E741F4807141F2D8
:101BF000210240004900CB0500D5401CC30300D59D
:101C00005040CB03F5D580B27047FEE72DE9F14F88
:101C10000027DFF878A188B03E46B9463C46D34657
:101C2000ABE000BF4FF000084546A2E04FF47A72E7
:101C300004A95748FFF710FD60B1022867D0B9F139
:101C4000000F00D0761C052E7ED91820FFF750FE1D
:101C500018208CE00498002660B1022805D04C4979
:101C60008B7843450BD0152081E00620FFF740FE1E
:101C700002247EE00620FFF73BFE012579E0B8F163
:101C8000000F16D082085846091DFEF783FBE0B30B
:101C90001820FFF72DFE1820FFF72AFE042401204C
:101CA000FEF72AFB08F1010000F0FF084FF00109E0
:101CB0005FE0087950B30020364B091D02E01A544A
:101CC000401C491C0A780AB14028F8D34FF0000C98
:101CD00003F800C060466B4601E01A54401C11F83E
:101CE000012F202A01D01028F7D303F800C006A93D
:101CF0001846FFF70FFE08984EF6612100688842EB
:101D000015D918208DF8140002E024E01DE028E029
:101D10004FF480142346012205A91F48FFF700FC59
:101D20002346012205A91C48FFF7FAFB052450466B
:101D3000FEF706FB0898069901600620FFF7D8FD1C
:101D40004320FFF7D5FDADE710E00620FFF7D0FDFB
:101D500001252F460DE0049906208B44FFF7C8FDAE
:101D60009DE71820FFF7C4FD18207FE74320FFF709
:101D7000BFFD55EA04003FF459AF57EA04003FF4B1
:101D800051AF09B02046BDE8F08F000000400008C8
:101D9000A8000020AE040020680000200FB4054B0E
:101DA00010B503A9044A029800F018F810BC5DF8B9
:101DB00014FB0000951F00084000002002E008C846
:101DC000121F08C1002AFAD170477047002001E0B5
:101DD00001C1121F002AFBD1704700002DE9FF4FFF
:101DE0008BB09A460F460546002606E025280BD004
:101DF00052460D9990476D1C761C28780028F5D125
:101E00000FB03046BDE8F08F0024A04601226049A3
:101E100000E0044315F8013F203B02FA03F00842BA
:101E2000F7D128782E2817D115F8010F44F00404B3
:101E30002A280ED06FF02F022878A0F1300109294E
:101E40000AD808EB880102EB410100EB01086D1C88
:101E5000F2E757F8048B6D1C287869283ED006DC21
:101E60000028CDD063280BD0642804D136E0732835
:101E700010D075284BD052460D999047761C85E0BE
:101E800017F8040B8DF8000000208DF80100E946DA
:101E9000012003E057F8049B4FF0FF3061074FF03B
:101EA000000401D40AE0641C44450DDA8442FADBE4
:101EB00019F804100029F6D106E0641C8442FCDB0A
:101EC00019F804100029F8D1264404E019F8010B90
:101ED00052460D999047641EF8D257E001CF4FF05B
:101EE0000A0B002802DA40422D2102E0210504D528
:101EF0002B218DF82410012103E0E10705D02021DA
:101F0000F7E70DF1200908910CE00021F9E701CF76
:101F10004FF00A0BF9E75946FEF726F901F13002B6
:101F200009F8012D0028F6D1ADEB090000F1200BD6
:101F3000600701D44FF00108D84502DDA8EB0B0083
:101F400000E000208046002406E009A85246005D1B
:101F50000D999047641C761C08988442F5DB04E0D8
:101F6000302052460D999047761CB8F10001A8F137
:101F70000108F5DC05E019F8010B52460D99904770
:101F8000761CBBF10001ABF1010BF4DC6D1C34E7F6
:101F90000928010013B54FF6FF7301226946024874
:101FA000FFF7BEFA00981CBD6800002008B5FFF7D7
:101FB0000FFDFEF74BFC0020FEF75EF90120FEF757
:101FC0005BF90020FEF78AF90120FEF787F9FEF79A
:101FD000D5F9304C2E480026C4E90106E6600C20F5
:101FE0002661C4E9050621463046FEF7E5F82AA039
:101FF000FFF7D4FE32A0FFF7D1FE206840683C4DC9
:102000003C4C6423012269462248FFF723FA6168A9
:102010001E2901D3217839B148B10020FEF76CF9AF
:102020006068401C6060ECE732208DF800009DF88D
:102030000000312818D03228E3D12FA0FFF7AEFEE0
:10204000286835490840B0F1005F16D033A0FFF78B
:10205000A5FE11A0FFF7A2FE19A0FFF79FFE8DF8C5
:10206000006001202070CCE7FFF756FB0AA0FFF7C5
:1020700095FE13A0FFF792FEC3E768682E4908603B
:102080002E490860296881F308888047B9E7000075
:10209000009411006800002070726573732027316E
:1020A0002720746F20646F776E6C6F61642070728C
:1020B0006F6772616D2E2E2E2E2E2E0D0A000000DF
:1020C00070726573732027322720746F20737461D8
:1020D00072742070726F6772616D206578656375C8
:1020E00074696F6E202E2E2E2E2E2E0D0A000000EB
:1020F000004000082C00002053746172742070723C
:102100006F6772616D20657865637574696F6E2E97
:102110002E2E2E2E2E0D0A000000FE2F4572726FFD
:10212000723A206E6F2070726F6772616D2E2E2E64
:102130002E2E2E0D0A0A00003C0000203800002040
:10214000000000000102030401020304060708095D
:1021500000020004010002007821000800000020B5
:1021600044000000BC1D0008BC2100084400002001
:10217000AC080000CC1D00080000000000A24A04CA
:102180000000000000000000010203040607080927
:1021900000380140000801400008014000080140EB
:1021A00000080140000000000000000000000000E6
:0C21B00000000000000000000000000023
:04000005080000ED02
:00000001FF
