:020000040000FA
:10000000E02A0020550100006F010000710100008E
:1000100000000000000000000000000000000000E0
:10002000000000000000000000000000730100005C
:1000300000000000000000007501000077010000D2
:10004000D93B0000A13E00007901000079010000C9
:100050007901000000000000011B0000A107000062
:1000600079010000790100007901000079010000A8
:100070007901000079010000790100007901000098
:100080007901000025440000790100007901000099
:1000900085440000F544000079010000790100006A
:1000A000790100007901000000000000000000005C
:1000B0000000000000000000000000000000000040
:1000C0000348854600F046FB004800472D5F0000CE
:1000D000E02A0020401E00BF00BF00BF00BF00BFDD
:1000E00000BF00BF00BF00BF00BF00BF00BFF1D115
:1000F00070470000401E00BF00BF00BF00BF00BF30
:1001000000BF00BF00BF00BF00BF00BF00BFF1D1F4
:1001100070470000401E00BF00BF00BF00BF00BF0F
:1001200000BF00BF00BF00BF00BF00BF00BFF1D1D4
:1001300070470000401E00BF00BF00BF00BF00BFEF
:1001400000BF00BF00BF00BF00BF00BF00BFF1D1B4
:10015000704700000321094802680A43026008480A
:1001600002680A4302600748804707480047FEE7E5
:10017000FEE7FEE7FEE7FEE7FEE70000240500409D
:1001800054050040FD440000C100000030B50B469E
:10019000014600202022012409E00D46D5409D4261
:1001A00005D31D469540491B2546954040191546E7
:1001B000521E002DF1DC30BD70B50024254600280C
:1001C00001DA01244042002901DA01254942FFF702
:1001D000DDFFAC4200D04042002C00D0494270BD4F
:1001E000F0B51FB40646002082B0054640240191B8
:1001F00000901BE0019922460F46304600F074F94A
:10020000049A059B801A994110D31046194622463C
:1002100000F05AF9361A8F41019722460120002139
:10022000009F00F051F938184D4100902046641E9F
:100230000028DFDC019B00982946324607B0F0BD5C
:1002400003460B439B0703D009E008C9121F08C0EF
:10025000042AFAD203E00B780370401C491C521E9A
:10026000F9D27047D2B201E00270401C491EFBD2A5
:1002700070470022F6E710B513460A4604461946B1
:10028000FFF7F0FF204610BDF0B51FB488B00B9902
:100290000998002448400999C00F4900490809916C
:1002A000C0070B990090490049080B9109990898DB
:1002B000A64608431CD00B990A98084318D0099801
:1002C00001244000420D4800410D09982405000317
:1002D000000B204309900B980003000B20430B9068
:1002E00050181C494018002201901446104605E0A1
:1002F000002001460DB0F0BD032801DA034600E0FE
:1003000003239C46C11A0AAE0AE05F0008ADED5B0C
:100310004F00F75B7D430027AA187C41491C5B1EF8
:100320006145F2DD410004AB5A522104120C0A432C
:10033000240C401C0828DFDB0198029000997046CD
:1003400001910090059B049A0799069800F0EAF83D
:10035000D0E700000DFCFFFFF0B50C465C4085B017
:10036000E40FE40703944C00002664085900944607
:10037000490802460296224321D062460A431ED013
:100380006200570D4A000E032303550D0124024657
:100390002C492405781B1B0B360B4018234326439E
:1003A000614600901C46501AB44103D30098401C8B
:1003B000009002E0921800985B41002803DA0020C8
:1003C000014605B0F0BD002001210905074686461B
:1003D00011E064461D46141BB54106D36546521B09
:1003E000B341744607430C43A646CD07400849086D
:1003F000284392185B4105460D43EAD11046184345
:1004000013D06046194650407140084306D06046FC
:10041000101AB34106D20122002306E00022012374
:10042000DB0702E00122D243531000987446010515
:10043000381C6141029C039D0019694100F065F878
:10044000BFE70000FD0300000EB5C217C10F50400A
:10045000CA0740180021054B0293019200910A46F9
:100460000B4600F05FF803B000BD0000330400004D
:100470000EB505490291002100910A460B460191F3
:1004800000F050F803B000BD330400004A00090337
:100490000123090B1B051943094B10B5520D9A4254
:1004A00001DA002010BD064B34339A4203DC9A1A5D
:1004B00000F01AF810BD03495118884010BD000023
:1004C000FF030000CDFBFFFF10B5202A04DB01462F
:1004D000203A9140002010BD914020239C1A0346F1
:1004E000E3401943904010BD10B5202A04DB0846B4
:1004F000203AD040002110BD0B46D340D0402024EC
:10050000A21A91400843194610BD10B5002B08DA15
:100510000024401C614192185B411A4301D14008FC
:10052000400010BDF0B51FB482B005460C0003D0EA
:10053000084604F07AFE02E004F077FE203002461E
:10054000009021462846FFF7BFFF049B059A04460A
:100550000F4618431143084314D0184610431BD0CC
:10056000009840210A1A18460599FFF7BDFF054675
:100570000E46009A05990498FFF7A6FF084305D098
:10058000012004E02046394607B0F0BD0020C11725
:1005900005430E432C43374300990E986305401AD8
:1005A0007905E40A00220C43FD0A0A3002D5002036
:1005B0000146E9E70105101969410C9C0D9D0019E0
:1005C0006941FFF7A2FFDFE7F0B50746084658404C
:1005D00087B0C00F049048000E46590040084908F3
:1005E000BC1A884105D2384631461E4617460B468E
:1005F00002465800400810434CD0300D039040058F
:100600005900400D490D0590401A0290402872DAB9
:1006100018030121000B090508430190049800927A
:10062000002805D001995242002088410092019093
:10063000029840210A1A01990098FFF745FF0546E4
:100640000C466B4607CB00F097F8C0197141039A2E
:100650000E0D0023D71756401A467A40164344D051
:10066000049A002A2DD0029A012A039A15DC120559
:10067000C01A914101263605001C7141D20F059E1A
:10068000D2070093019202962A462346FFF74AFFBB
:1006900007B0F0BD38463146FAE71605224A0F4644
:1006A000B218C01AB74101210905001C4F410018BA
:1006B0007F41114618187941E20F10436D196441CA
:1006C00013E0E2076D0815436408C2071443039A58
:1006D00001261205C01A91413605001C7141CE0752
:1006E000400830434908C01851412A462346FFF7C5
:1006F0000CFFCDE7FFE7049801224000C117121A52
:1007000000238B4104983146C417381AA141EEE703
:1007100030B40124E407634030BC55E730B4012411
:10072000E407614030BC4FE70000E0FF10B500294E
:1007300004DB0124E40740428C412146002B04DB0A
:100740001C460123DB075242A341994200D190424B
:1007500010BD0000064C0125064E05E0E36807CCFD
:100760002B430C3C98471034B442F7D3FFF7ACFC52
:10077000C47C0000E47C000010B5202A06DBCB1707
:100780000846203A1041C1170B4306E00B461341BF
:10079000D0402024A21A91400843194610BD000001
:1007A0000EB51D48C06800281CD1FF20013005F09F
:1007B0008FFC012005F094FC00BF00201749086061
:1007C00000BF01216846017000BF1448806801B273
:1007D000684681800120104988740846016868468F
:1007E000884718E004F0E4FD002814D0012005F04B
:1007F00077FC0020694608700748C06801900648E9
:10080000017C68460181012003498874084601681B
:100810006846884700BF0EBDC82200200075004012
:1008200038B50D48006800900C49684605F00AFD8F
:10083000044600BF2546002D04D000BF284604F022
:1008400025FE00BF00BF064805F0E6FC0020054974
:100850000870487038BD0000C07C0000C552000020
:10086000180000202000002010B5324840780028F1
:1008700032D0304840883049884203DD032001F0FF
:10088000E1FC56E02B4840882B496439884209DD59
:10089000284840882D218901884203DA022001F08E
:1008A000D1FC46E02348408855214901884209DDB2
:1008B0002048408820498C39884203DA012001F021
:1008C000C1FC36E01B4840881B49F039884230DAC9
:1008D000002001F0B7FC2CE0164840881649143976
:1008E000884203DB032001F0ADFC22E01148408880
:1008F000AF210901884209DB0E4840880E491439AE
:10090000884203DA022001F09DFC12E00948408889
:100910000949DC39884209DB06484088AF210901D2
:10092000884203DA012001F08DFC02E0002001F092
:1009300089FC10BD20000020680B000010B51421B8
:10094000024805F027FC05F09FFC10BD840F002035
:1009500010B50848007800280BD005F059FF002892
:1009600007D005480078002803D102490870FFF736
:10097000E5FF10BD200000200E00002010B5002172
:100980001348817601211A30417000218170C170B5
:1009900000240BE000210E481E3001555130015556
:1009A0005130015551300155601CC4B2512CF1DB5E
:1009B00000200849C870887001F0FEFB002001F09B
:1009C000ADFC054801F048FD034801F083FC10BD73
:1009D00074020020D40300200F27000010B500216E
:1009E0001648817600240AE0002115480155513847
:1009F00001555138015551380155601CC4B2512C74
:100A0000F2DB00200E494F31C87001F0D5FB002009
:100A100001F084FC0B4801F05DFC0A4801F01CFD6C
:100A200009494A7B897B0A23594352180649C97BE5
:100A300064235943501801F09FFD10BD740200203B
:100A4000850300200F270000D905002010B5612084
:100A500031494870042231492F48801CFFF7F0FBD0
:100A600004222E49091F2C48801DFFF7E9FB2A4864
:100A7000FD30807A284988720846FD30C07AC872F5
:100A80000846407B401C487300208873C8732420AC
:100A9000C8770421204820300170FF30C130807EAB
:100AA000002804D002211C482030417003E00121BD
:100AB00019482030417019481C30C17A164821303D
:100AC000417017488178144821308170144840885B
:100AD000001211492131C8700E210F48801C04F00A
:100AE00097FB04460C4820300078811C0A481F30D0
:100AF00004F08EFB44400848E030C47621210177A1
:100B0000C03800780449C97B401813300249087086
:100B100003F054F910BD000094000020DD05002012
:100B20002000002010B51D488079002834D0002016
:100B30001A4988711A48C07F242828D006DC10285A
:100B40000DD0112820D0122824D10BE025280AD05E
:100B5000F1280BD0FF281DD100F06CF81BE000F04D
:100B600023F818E017E000F061F814E00C48213099
:100B70004078002802D103F0FFF804E00848213053
:100B800040780849887006E0FFF728FF03E0FFF788
:100B90005DFF00BF00BF00BF10BD0000D4030020F8
:100BA000910100202900002010B501211C48817608
:100BB00000F042F81A481A308078012800DA10BD97
:100BC000002404E0002117480155601CC4B2512CD8
:100BD000F8DB002112481A30C17001F0EDFA002054
:100BE00001F09CFB104801F037FC0F4801F072FB4C
:100BF0000B491A31CA785531885C01F02DFC084840
:100C00001A30C178001D405C032806D104491A310E
:100C1000CA78F731885C01F05DFB00BFCFE70000C8
:100C200074020020850300200F27000010B503F098
:100C300075F810BD70470000FEB561490878FFF7F0
:100C400017FC054600225F4BFFF786FB01910090E1
:100C5000FFF71CFCC1B25A48DD3081700024A7E0C8
:100C60002046E10F091849104900611A62D1FFF7C7
:100C7000FFFB0022534B01910090FFF705FB054657
:100C8000FFF704FCC1B24E48401C405C0107090F4D
:100C90004B48E13001552046FFF7EAFB0022494B63
:100CA00001910090FFF7F0FA0546FFF7EFFBC1B2A4
:100CB0004348401C405C07112046FFF7D9FB05461E
:100CC0000022404BFFF7E0FA01910090FFF7DEFBB6
:100CD000C1B2491C3A48401C405C000107433A48F5
:100CE00007552046FFF7C4FB0022364B01910090C8
:100CF000FFF7CAFA0546FFF7C9FBC1B2491C3048E5
:100D0000401C405C07112046FFF7B2FB00222D4B30
:100D100001910090FFF7B8FA0546FFF7B7FBC1B2A3
:100D2000891C2748401C405C00010743264851307D
:100D300007553BE0601EFFF787FB0022214B019126
:100D40000090FFF7A1FA0546FFF7A0FBC1B2891C8E
:100D50001B48401C405C01111B4851380155601E66
:100D6000FFF772FB0022174B01910090FFF78CFAFE
:100D70000546FFF78BFBC1B2C91C1148401C415C02
:100D800011480155601EFFF75FFB054600220D4B21
:100D9000FFF77AFA01910090FFF778FBC1B2091DC5
:100DA0000748401C415CFF3083300155601CC4B2D1
:100DB000054855388078A04200DD51E7FEBD0000AF
:100DC000B101002000000440E302002010B500F053
:100DD000ABFB10BD10B500210C48C278F730815430
:100DE00000200B49C87001F0E7F9002001F096FAE5
:100DF0000648C178001D405C032805D10349CA7824
:100E0000F731885C01F066FA10BD00008E02002008
:100E1000D403002010B501200349487003F07EFE82
:100E200003F066FE10BD00000E00002010B5022089
:100E30000349487003F072FE03F05AFE10BD000033
:100E40000E00002010B503200349487003F066FE31
:100E500003F04EFE10BD00000E00002010B504206F
:100E60000349487003F05AFE03F042FE10BD000033
:100E70000E0000207047000010B500F0E3FF254889
:100E80004078002844D000202249487004F090F8AF
:100E900004F078F81F48C078030004F0F5F919371A
:100EA0000E0F1011121314373737151625281C1979
:100EB000221F37372B2E3134370000BF00BF00BF51
:100EC00000BF00BF00BF00BF00BF00F09DF81EE0E4
:100ED00000F01AFA1BE0FFF7CDFF18E0FFF77AFFEA
:100EE00015E000F013FA12E000F016F80FE000F041
:100EF00093F90CE0FFF78EFF09E0FFF797FF06E09C
:100F0000FFF7A0FF03E0FFF7A9FF00E000BF00BF6D
:100F100010BD00001000002010B53948807E002868
:100F200000D110BD36481A30C078002808D13448A6
:100F30001A308078401EC1B231481A30C17007E0C3
:100F40002F481A30C078401EC1B22D481A30C170E7
:100F50002B481A30C178001D405C002806D00128BB
:100F600005D002281AD0032846D12EE000BF01F098
:100F700023F9002001F0D2F9224801F0ABF9204911
:100F80001A31CA78F731885C01F0FCF91C491A3132
:100F9000CA785531885C01F05FFA2EE001F00CF957
:100FA000002001F0BBF9174801F094F914491A31F7
:100FB000CA78F731885C01F0B1F911491A31CA7861
:100FC0005531885C01F048FA17E001F0F5F800208F
:100FD00001F0A4F90B4801F07DF909491A31CA78EA
:100FE000F731885C01F076F905491A31CA78553134
:100FF000885C01F031FA00E000BF00BF00BF90E75D
:10100000740200200F27000010B500247F48807E66
:1010100000287DD07D481A30C178001D405C002832
:1010200006D0012832D0022857D0032871D174E0AD
:101030007748C178491E0120884074491A31CA781E
:10104000A631895C08400446002C17D06F481A303E
:10105000C178F730405C204000280AD06B481A3035
:10106000C178F730415C6140F738C278F73081547D
:1010700004E066481A30C178F730445463491A31A5
:10108000CA78F731885C01F07DF960E05F481A307A
:10109000C178F730405C5E49C978491E01228A4018
:1010A0005040C1B259481A30C278F7308154F738ED
:1010B000C178F730415CF738C278A630805C0140D7
:1010C00052481A30C278F73081540146F739CA784D
:1010D0000146885C01F056F939E04D48C0780B288C
:1010E00006D1012149481A30C278F730815409E00D
:1010F0004748C0780C2805D1022144481A30C278EC
:10110000F730815441491A31CA78F731885C01E0DF
:101110001EE01BE001F002F919E03D48C1783B48B0
:101120001A30C278A630805C401C814206DA38480A
:10113000C17836481A30C278F730815433491A31B1
:10114000CA78F731885C01F0C5F800E000BF5CE0C8
:101150002F48C078072825DA2E488078012812D039
:10116000002001F0DBF801202A4988700020C870B7
:101170000846C0782649C978491E01228A40504055
:101180002449C8700AE02348C1782148C078401E2D
:10119000012282405140C8B21E49C8701D49C8781A
:1011A00001F0F0F81A48C0780B2803D01848C0782E
:1011B0000C282AD117488078022814D000F0FCFFB0
:1011C0000220144988700020C8701148C0780B288C
:1011D00001D10120C8700E48C0780C2811D102201E
:1011E0000C49C8700DE00A48C0780B2802D10120D4
:1011F0000849C8700648C0780C2802D10220054969
:10120000C8700449C87801F089F810BD7402002044
:1012100010000020D403002010B53948807E00283B
:1012200000D110BD36481A308078401E34491A313A
:10123000C978884204D1002131481A30C17007E0D2
:101240002F481A30C078401CC1B22D481A30C170E6
:101250002B481A30C178001D405C002806D00128B8
:1012600005D002281AD0032846D12EE000BF00F096
:10127000A3FF002001F052F8224801F02BF820498A
:101280001A31CA78F731885C01F07CF81C491A31B0
:10129000CA785531885C01F0DFF82EE000F08CFF51
:1012A000002001F03BF8174801F014F814491A31F6
:1012B000CA78F731885C01F031F811491A31CA78DF
:1012C0005531885C01F0C8F817E000F075FF002088
:1012D00001F024F80B4800F0FDFF09491A31CA78E3
:1012E000F731885C00F0F6FF05491A31CA785531AC
:1012F000885C01F0B1F800E000BF00BF00BF90E7DC
:10130000740200200F27000070470000F0B585B080
:10131000002004907F48807E002801D105B0F0BDF8
:101320007C481A304078002800D1F7E7012004906B
:10133000049800287DD061207749487004227749BD
:101340007548801CFEF77CFF04227449091F72480F
:10135000801DFEF775FF6F48E338807A6E4988720A
:101360000846FD30C07AC8720846407B401C48736E
:1013700000208873C8731020C877FF31FB3188784C
:10138000FFF776F805460022654BFEF77DFF0191D9
:10139000009004F00BFA03910290FFF777F8C1B2C6
:1013A0005D4820300170002490E02046E10F0918CC
:1013B00049104900611A48D1FFF75AF80022584BEA
:1013C00003910290FEF760FF0546FFF75FF8C1B298
:1013D000514A21324F481E30005D03071B0F4D4814
:1013E0006F30005D0001034353542046FFF740F87F
:1013F00000224B4B03910290FEF746FF0546FFF794
:1014000045F8C1B2491C444A213242486F30005D60
:1014100003114448005D0001034353542046FFF785
:1014200027F800223E4B03910290FEF72DFF054660
:1014300000E06CE0FFF72AF8C2B2921C3649213175
:101440003848005D001188543EE0601EFEF7FCFF46
:1014500005460022324BFEF717FF03910290FFF77B
:1014600015F8C0B2801C2C49213147183978294819
:101470001E30005D000101433970601EFEF7E4FF7D
:101480000022274B03910290FEF7FEFE0546FEF771
:10149000FDFFC2B2D21C204921311E486F30005DD1
:1014A0008854601EFEF7D0FF054600221C4BFEF755
:1014B000EBFE03910290FEF7E9FFC1B2091D164A47
:1014C00021321848005D5054601CC4B211481A30D3
:1014D0008078A04200DD68E70E210F48801C03F0F1
:1014E00097FE05460C4820300078811C0A481F30C2
:1014F00003F08EFE45400848E030C5762121017793
:10150000C038007813300449087002F057FC00BF5F
:1015100004E700007402002094000020DD05002094
:10152000000004408503002030B585B0002400256C
:1015300053480078002875D0042251490B31514896
:10154000FEF77EFE04224E49091D4E48001FFEF79D
:1015500077FE04214B48001DFEF78BFE4848C07BF8
:101560004849091F08734648417C46481C300173AE
:101570004348817C43481C3041734148C07C030090
:1015800003F082FE061D18130E09041D04213D48B8
:101590001C30C17318E000213A481C30C17313E0BD
:1015A000FC2138481C30C1730EE0F82135481C304E
:1015B000C17309E0F42133481C30C17304E00421F5
:1015C00030481C30C17300BF00BF002414E0204627
:1015D0000D302B490931085C001161006A465054F6
:1015E00020460D3026490931085C0107090F6000CB
:1015F000401C1154601C44B20A2CE8DB1324002563
:101600000CE0684600570A2806DA6846015D1D4866
:1016100009304155681C45B2601E44B2002CF0DA16
:101620001DE0FFE704211748FEF723FE04211548BB
:10163000001FFEF71EFE04211248001DFEF719FED2
:1016400000201049091F087302210E481C30017345
:1016500004214173C17314211338FEF70AFE0020E0
:10166000094988710021094881761A30C170012129
:101670004170002004494871087105B030BD000078
:101680000A0F0020DD050020D40300207402002092
:1016900070B586B0002400265C4803F0A1FD01F07F
:1016A000C7FA5A480938407A000258490939897AF4
:1016B000084305460A2D17DDE81E81B25348801CF9
:1016C00003F0A6FD691E514A515C884204D10120F5
:1016D0001146093908700BE000204C49093908709F
:1016E000652000F0FFF903E000204849093908703F
:1016F00046480938007800287ED004224349891CD6
:101700004348FEF79DFD04224049491F4048001F01
:10171000FEF796FD3D480938C07B3D49091F087317
:1017200001213B481C30817338480938417C3848D6
:101730001C30017335480938817C35481C304173B1
:1017400032480938C07C030003F09EFD061D1813C3
:101750000E09041D04212E481C30C17318E000211D
:101760002B481C30C17313E0FC2129481C30C17385
:101770000EE0F82126481C30C17309E0F42124480A
:101780001C30C17304E0042121481C30C17300BF28
:1017900000BF002412E020460D301C49085C0011F7
:1017A000610001AA505420460D301849085C010719
:1017B000090F6000401C1154601C44B20A2CEADB83
:1017C000132400260CE001A8005D0A2806DA01A80F
:1017D000015D0F4809308155701C46B2601E44B24D
:1017E000002CF0DA0A49091F4A7B897B0A235943F6
:1017F00052180749091F00E005E0C97B64235943DB
:10180000501800F0B9FE06B070BD0000130F0020A4
:10181000DD05002001201049087000204870887004
:101820000920C8700D48007908710C4841790A48B0
:1018300041710A488179084881710848C179064890
:10184000C171002101724172702181721021C17237
:10185000FF21017370470000B80F00200A0F00201D
:1018600010B504202F49C86021208860002008613D
:10187000C42005F035FF0406662005F031FF0004A2
:101880000443BC2005F02CFF00020443332005F084
:1018900027FF044323484462C82005F021FF0406C3
:1018A000C72005F01DFF00040443C62005F018FF03
:1018B00000020443C52005F013FF04431948846265
:1018C000194803F05DFF1749C861184803F058FF35
:1018D000144908620020C8620120086300204861A2
:1018E00013488861022048630846406B8007800FD8
:1018F000022804D10F48C8630F4888630BE00948E9
:10190000406B8007800F012805D1FF200549C8637F
:10191000FF200830886300200849086008494860B3
:1019200010BD000000150040E7540D20C212F0DE8B
:1019300009090301FFFF000021100100001200400F
:101940000013004070B53E488078002875D03C48B0
:101950000078002871D004F05BFF00286DD00020D3
:10196000374988700120487003F0ACFA04F08CFE0F
:1019700034488078012801D000F070F8FFF770FF3C
:101980002F48001D30494860002030490860012080
:101990002F4908602F4C07E0601E80B2041E03D15F
:1019A00001202749887070BD284800680028F3D0BE
:1019B00001202749886000202449C860254C07E0A1
:1019C000601E80B2041E03D101201D498870EAE721
:1019D0001E48C0680028F3D000201C49086101207F
:1019E0001B4908611B4C07E0601E80B2041E03D136
:1019F000012013498870D6E7144800690028F3D005
:101A000000200F49487002F08BFA0E4880780128B8
:101A100002D103F0FDF901E000F028F811210120C6
:101A200088400D4B5A68034693430B4DAB601346F9
:101A30000340EB6000BF00BF00BF00BFB3E7000082
:101A4000B80F0020240000200015004000110040C5
:101A500000100040FF0F00000005005010B504F01A
:101A600051FC002801D104F06FFC10BD10B504F04A
:101A700049FC002801D004F04DFC10BD70B504F005
:101A80008BFC044600BF2546002D04D000BF28462D
:101A900003F0FCFC00BF00BF00F003F800F00AF800
:101AA00070BD10B504F0A0FC002801D104F0A2FC28
:101AB00010BD000010B50249282004F0EDFB10BD58
:101AC0004D44000010B500F001F810BD10B5002025
:101AD000034908700A210248801CFEF7CAFB10BDAA
:101AE000AC0F0020054909784A000449891C885236
:101AF000891E0978491C014A11707047AC0F0020FB
:101B0000F0B58BB0002700200A90FF20013009902B
:101B10000125002416E0099805F082F900280BD071
:101B200000BF704840682840002805D0099805F09B
:101B30006FF93846284307466D000998001D80B2AA
:101B40000990641C042CE6D3FF207D3005F068F971
:101B500000280AD0FF207D3005F05AF90120C00787
:101B6000074300BF604800690A903807000F00284B
:101B70002AD00125002425E02846384000281FD01F
:101B800000BF5A48512109014018A10040581F21A7
:101B900009020840000A089000BF54485121090179
:101BA0004018A1004058032109040840000C079088
:101BB000204603F06FFE064607990898B04700BF1D
:101BC0006D00641C042CD7D3F80FC00700287DD00B
:101BD000002008900790401E069000BF002008904B
:101BE000002464E04248005D0590C02105988843C8
:101BF00006463F480057401C002857D00120B040FF
:101C000006990840002851D0C0210598084080114D
:101C10000490304603F082FE029003F03BFE0390F6
:101C20000398002802D1049803283ED10120B04037
:101C300005460498032802D107982843079000BF5F
:101C400005200007072109024018B1004058032170
:101C500009040840000C02900A982840002802D08D
:101C60000298022806D00A98284000281CD1029821
:101C7000032819D1049803280FD10298022801D112
:101C8000032000E0022001903046019905F025F87C
:101C90000898401CC0B2089000BF0398002803D0E9
:101CA0003046039A0499904700BF00BF641C072C7C
:101CB00098D3089800280ED000BF0B490969084640
:101CC0000A99884203D10021089103E008E00A90B4
:101CD0000799069100BF0898002800D07EE700BF52
:101CE0000BB0F0BD006300400005005000600040F4
:101CF000C0220020002000BF08E0022105221207B8
:101D000007231B02D2188300D150401C2028F4D393
:101D1000704701460878C0221040C02801D1002039
:101D200070471020FCE7000070B504F085FC044605
:101D300000BF2546002D04D000BF284603F0A6FBB7
:101D400000BF00BF00F05CF800F038F800F00AF8BF
:101D500000200349087048708870C87070BD00008A
:101D600010000020F8B50721042005F038F8002203
:101D70000321104605F026F80E4800680090002563
:101D800015E00D4A6946284604F0DCFB044600BF16
:101D90002646002E04D000BF304603F077FB00BF7C
:101DA00000BF0021284604F069FB681CC5B2042D61
:101DB000E7DBF8BDB47C0000F956000038B500211F
:101DC0000C2004F059FF0C48006800900B4A69464B
:101DD0000C2004F0B7FB044600BF2546002D04D0BC
:101DE00000BF284603F052FB00BF00BF00210C20BB
:101DF00004F044FB38BD0000B87C0000F956000038
:101E000038B500211E2004F037FF0C480068009010
:101E10000B4A69461E2004F095FB044600BF254688
:101E2000002D04D000BF284603F030FB00BF00BFE8
:101E300000211E2004F022FB38BD0000BC7C000005
:101E4000F956000070B500250024D6480078012816
:101E500076D10020D349087008468078002804D045
:101E6000012842D002286CD184E0002004F0A2FFB7
:101E7000044600220721042004F0A4FF002004F0FF
:101E800099FF05460721042004F0A9FF2007000F51
:101E9000F02129400843C44908701E2004F05AFF6D
:101EA000002802D11E20C0490870C0488078002850
:101EB00006D001280ED002280DD0032812D10BE045
:101EC000B94800781E2804D10120B649887002F074
:101ED000DDFD08E000BF00BF0120B249887002F0BC
:101EE000D5FD00E000BF00BF59E1002004F062FF13
:101EF000044600220721042004F064FF002004F0BF
:101F000059FF05460721042004F069FF2007000F50
:101F1000F02129400843A64908701E2004F01AFF4A
:101F2000002802D11E20A2490870A048807800280D
:101F300008D0012807D0022806D0032817D104E0D2
:101F40002EE121E100BF00BF00BF9948007896490B
:101F50000978884203D102209249887006E002F095
:101F6000ADFD00208F4988709249088000E000BFD5
:101F700000BF14E1002004F01DFF044600220721E9
:101F8000042004F01FFF002004F014FF0546072181
:101F9000042004F024FF2007000FF021294008430B
:101FA000834908701E2004F0D5FE002802D11E20AF
:101FB0007F4908707D488078002806D0012836D0F7
:101FC00002281FD0032876D132E0794800781E28F5
:101FD00012D178480088401C80B2764908802828B1
:101FE0000FDB01F073FE00207249088002F066FDED
:101FF00000206C49887004E002F060FD002069490F
:102000008870BFE06A4800781E2802D101F0C2FE45
:102010000CE06748007864490978884206D002F0ED
:102020004DFD00205F49887001F0B4FEAAE000BFBA
:102030005F4800781E2812D15E480088401C80B29C
:102040005C490880282809DB01F068FE0020594916
:10205000088002F033FD00205249887090E0544817
:1020600000785149097888426FD04F4800784D2850
:102070002BD014DC272848D008DC17284DD01B288B
:1020800037D01D2829D01E286CD14EE02B282CD00B
:102090002D281ED0472834D04B2863D121E08E282C
:1020A00047D009DC4E2848D0872826D08B2838D046
:1020B0008D2857D12DE064E099284BD0A92845D030
:1020C000C9283ED0CB284DD148E001203549C87001
:1020D00049E002203349C87045E003203149C87007
:1020E00041E004202F49C8703DE005202D49C8700B
:1020F00039E006202B49C87035E007202949C8700F
:1021000031E00B202749C8702DE00C202549C8700C
:1021100029E00D202349C87025E00E202149C87010
:1021200021E00F201F49C8701DE010201D49C87014
:1021300019E011201B49C87015E012201949C87018
:1021400011E015201749C8700DE019E01620154957
:10215000C87008E017201349C87004E0182011491E
:10216000C87000E000BF00BF01200E49487002F0B7
:10217000A5FC00200B4988700B4908700C490870B9
:1021800000E000BF00BF0AE002F098FC0020054913
:102190008870C870044908700549087000BF00BF06
:1021A00070BD00001000002014000020240000205A
:1021B00015000020160000201248807BF7210840FF
:1021C000104988730846007BF72108400D490873C1
:1021D0000846807AF72108400A4988720846007A42
:1021E000F72108400749087208468079F72108401E
:1021F0000449887108460079F721084001490871AF
:1022000070470000720F0020044A125C08231A4035
:10221000024B1A5400225A5470470000720F0020DB
:1022200010B512210148FEF724F810BD720F0020EE
:1022300010B5FF2212210248FEF714F810BD00006D
:10224000720F00202249497CF7221140204A517424
:102250001146097CF12211401D4A11741146097C76
:10226000022211431A4A1174002806D0012805D011
:1022700002280AD003281CD10EE027E01449097C6B
:1022800004221143124A117420E01149097C0C22E6
:1022900011430F4A117419E00D49097C0C221143B6
:1022A0000B4A11741146497C08221143084A5174A3
:1022B0000CE00749097C0C221143054A11741146B0
:1022C000497C08221143024A517400BF00BF704785
:1022D000720F002070B504460F48844208D10A21CD
:1022E000022000F0DDF80A21012000F0D9F811E009
:1022F0000A212046FDF760FFC5B22946022000F002
:10230000CFF80A212046FDF757FFCDB2294601201C
:1023100000F0C6F870BD00000F270000002804D0B0
:1023200001280FD0022827D119E015490978F72292
:102330001140134A117011468978F7221140104A52
:1023400091701AE00E490978F72211400C4A117079
:102350001146897808221143094A91700DE0084915
:102360008978F7221140064A9170114609780822AF
:102370001143034A117000E000BF00BF7047000026
:10238000720F0020C107C90F002906D03149897B8F
:10239000082211432F4A917305E02E49897BF722C9
:1023A00011402C4A917302210140022906D129498A
:1023B000097B08221143274A117305E02549097B4F
:1023C000F7221140234A117304210140042906D148
:1023D0002049897A082211431E4A917205E01D495D
:1023E000897AF72211401B4A91720821014008297D
:1023F00006D11849097A08221143164A117205E0DC
:102400001449097AF7221140124A11721021014031
:10241000102906D10F498979082211430D4A91717B
:1024200005E00C498979F72211400A4A917120216F
:102430000140202906D10749097908221143054A9C
:10244000117105E003490979F7221140014A117120
:1024500070470000720F002070B504460F48844298
:1024600008D10A21042000F01BF80A21032000F003
:1024700017F811E00A212046FDF79EFEC5B2294655
:10248000042000F00DF80A212046FDF795FECDB29C
:102490002946032000F004F870BD00000F2700005B
:1024A00070B504460D46230002F0EEFE082F050B22
:1024B00011171D23292F2A460121002000F0C2F800
:1024C00024E02A460321022000F0BCF81EE02A4640
:1024D0000521042000F0B6F818E02A46072106205E
:1024E00000F0B0F812E02A460921082000F0AAF80E
:1024F0000CE02A460B210A2000F0A4F806E02A4648
:102500000D210C2000F09EF800E000BF00BF70BD60
:10251000002804D001280FD0022827D119E015493E
:10252000897BFD221140134A91731146897BFB225E
:102530001140104A91731AE00E49897BFB22114029
:102540000C4A91731146897B02221143094A917307
:102550000DE00849897BFD221140064A917311461E
:10256000897B04221143034A917300E000BF00BF3E
:1025700070470000720F002070B50446174884426F
:102580000CD10A210720FFF78BFF0A210620FFF755
:1025900087FF0A210520FFF783FF1EE06421204604
:1025A000FDF70AFEC5B229460720FFF779FF0A2189
:1025B0002046FDF701FE06460A21FDF7FDFDCDB2DE
:1025C00029460620FFF76CFF0A212046FDF7F4FD9F
:1025D000CDB229460520FFF763FF70BD0F2700002D
:1025E00010B50A2004F061FB082004F05EFB09200E
:1025F00004F05BFB122004F058FB0A2004F0C4FB3B
:10260000082004F0C1FB092004F0BEFB122004F0F6
:10261000BBFB0A20FDF76EFD012002490870002077
:10262000487010BD0E00002030B5054C245C1443EA
:10263000034D2C542C46645C1C436C5430BD00008C
:10264000720F002070B505460E461446230002F0B6
:102650001BFE0B07121D28333E49545F6A757A0032
:1026600031462846FFF7D0FD0F2305223146284684
:10267000FFF7DAFF68E031462846FFF7C5FD002383
:10268000052231462846FFF7CFFF5DE03146284658
:10269000FFF7BAFD0D23032231462846FFF7C4FF9A
:1026A00052E031462846FFF7AFFD092307223146A5
:1026B0002846FFF7B9FF47E031462846FFF7A4FD5B
:1026C0000223072231462846FFF7AEFF3CE03146A1
:1026D0002846FFF799FD0B23062231462846FFF7CF
:1026E000A3FF31E031462846FFF78EFD0F23062277
:1026F00031462846FFF798FF26E031462846FFF787
:1027000083FD0123052231462846FFF78DFF1BE09C
:1027100031462846FFF778FD0F2307223146284629
:10272000FFF782FF10E031462846FFF76DFD0B23CF
:10273000072231462846FFF777FF05E03146284655
:10274000FFF762FD00E000BF00BF70BD10B502F0F2
:1027500077FA002005490870022000F0B3F8002045
:1027600000F0B0F8122004F00FFB10BD0E000020A6
:1027700010B586B03F480078002879D000203D4948
:10278000087008464078030002F07EFD05040A2325
:1027900037506D00384A1221002000F009F966E038
:1027A0001222354901A8FDF74BFD0120FFF7E4FE99
:1027B0000020FFF751FE0520FFF78CFD2E4A122165
:1027C000002000F0F5F8122201A92B48FDF738FD92
:1027D0004DE01222284901A8FDF732FD2749C87AA9
:1027E000FFF7CAFE244A1221002000F0E1F812226D
:1027F00001A92148FDF724FD39E012221E4901A854
:10280000FDF71EFD1E4948880A21FDF7D5FC84B25C
:102810002046FFF7B1FE184A1221002000F0C8F848
:10282000122201A91448FDF70BFD20E012221249E3
:1028300001A8FDF705FD1349C87CFFF79DFE0F4970
:10284000087BFFF709FE0D49487BFFF743FD0A4A65
:102850001221002000F0ACF8122201A90648FDF771
:10286000EFFC04E004E000200249487000BF00BF14
:1028700006B010BD0E000020720F0020F9050020E8
:10288000200000200A0F002010B5122001218140F5
:102890000A4AD16000BF292000F014F8182000F087
:1028A00011F8012000F00EF8032000F00BF80120D1
:1028B0000349087002F0ACF910BD0000000500509B
:1028C0000E00002010B504460A2004F031FA00BFC3
:1028D00000BF00BF00BF00220321802000F022F8CB
:1028E00000220821204600F01DF8092004F020FAFB
:1028F00000BF00BF00BF00BF082004F019FA00BFEE
:1029000000BF00BF00BF092004F036FA00BF00BFBF
:1029100000BF00BF0A2004F02FFA00BF00BF00BFB5
:1029200000BF10BDF8B505460E461746002F20D152
:1029300000241BE0092004F0FBF900BF00BF00BF2A
:1029400000BF802028400146082004F025FA00BF7F
:1029500000BF00BF00BF092004F00EFA00BF00BF97
:1029600000BF00BF6806050E601CC4B2B442E1DBC4
:102970001DE0002419E0092004F0DAF900BF00BFCF
:1029800000BF00BFE907C90F082004F005FA00BF27
:1029900000BF00BF00BF092004F0EEF900BF00BF78
:1029A00000BF00BF6D10601CC4B2B442E3DBF8BDD1
:1029B000F8B505460E4617460A2004F0B9F900BFDF
:1029C00000BF00BF00BF00220321A020FFF7AAFF25
:1029D000A906080E00220621FFF7A4FF002406E046
:1029E000385D01220421FFF79DFF601CC4B2B44290
:1029F000F6DB0A2004F0C0F900BF00BF00BF00BF33
:102A0000F8BD00B500F004F800F008F800BD0000C3
:102A1000002001490870704728000020F8B51120F7
:102A200001210A4600231F46009354000C439D00D9
:102A30002C433D022C43009D2D042C4305252D07DE
:102A400007263602AD198600AC5100BF00BFF8BDA5
:102A50000FB4F8B506460C9D0B9C00202080F007B3
:102A6000C00F002810D042480078002801D1012072
:102A700000E000203E490870084600780221084323
:102A80002288511C2180A854394800780821084028
:102A9000002805D0374801782288501C2080A9548E
:102AA00002203040002805D06846017F2288501C53
:102AB0002080A95404203040002805D06846417F7A
:102AC0002288501C2080A95408203040002805D0BE
:102AD0006846817F2288501C2080A95410203040F5
:102AE000002805D06846C17F2288501C2080A95448
:102AF00020203040002805D008A801782288501CEA
:102B00002080A9544020304000280BD008AB1A7810
:102B1000238858190999FDF793FB208808AB197889
:102B20004018208080203040002805D007A8017B75
:102B30002288501C2080A954FF20013030400028FA
:102B400011D02178284600F05DF807462288501CF5
:102B50002080AF543846FF21090208400112228824
:102B6000501C2080A954F8BC08BC04B018470000D1
:102B7000040000200300002010B50D2004F0D0F860
:102B80000E2004F0F1F800BF1E20FDF7A3FA00BFED
:102B900003210E2004F063F800BF1E20FDF79AFA0F
:102BA00000BF0E2004F0CCF8C4B20D2004F0DCF815
:102BB00000BF1E20FDF78EFA00BF0D2004F0B0F814
:102BC0000E2004F066F8012C01D1002010BD012078
:102BD000FCE700000146002208480068884204D152
:102BE0000748064B18600120704704480068044BF2
:102BF000984201D10120F7E70020F5E70800002006
:102C0000EFBEADDEF8B504460D460848009000BFA3
:102C10002678641C6946304600F0D6FD681EC0B2B6
:102C2000051EF5D168460088F8BD0000636300000A
:102C300038B516A0006800906946032000F028FD12
:102C40000446002C01D0012000E00020002800D024
:102C50001AE000F02DFA0446002C01D0012000E01B
:102C60000020002800D00FE06946032000F00AFB96
:102C70000446002C01D0012000E00020002800D0F4
:102C800002E00920000338BD1120FCE7C2E0B400D7
:102C9000FEB506460024F2222146641C68464254D2
:102CA0002146641C46540221FFF7ACFF074621462B
:102CB000641C68464754FF20000238400212214637
:102CC000641C684642542046694600F0E1FC85B227
:102CD000002D01D0012000E00020002800D01EE0DF
:102CE00000F012F985B2002D01D0012000E0002093
:102CF000002800D013E06946052000F0EDFA85B207
:102D0000002D01D0012000E00020002800D006E0C6
:102D10000521684600F0FAF805462846FEBD112058
:102D2000FCE738B5262000906946012000F0B0FC91
:102D3000044600F0BDF90446002C01D0012000E05B
:102D40000020002800D006E0002C02D1092000035A
:102D500038BDA0B2FCE71120FAE770B5044600F0D8
:102D6000FFF8054600F0E2FA054600F00BFC0546C8
:102D700022460721082000F0BBF9054600BF70BDC0
:102D800010B50B2003F085FF0D2003F082FF0E200D
:102D900003F07FFF0B2003F0C3FF0D2003F0E4FFDF
:102DA0000E2003F0E1FF10BD10B50E2003F0DCFF94
:102DB00000BF1E20FDF78EF900BF0D2003F0D4FFE9
:102DC00000BF1E20FDF786F900BF0E2003F0A8FF0C
:102DD00000BF1E20FDF77EF900BF00BF1E20FDF7DB
:102DE00079F900BF10BD10B50E2003F099FF00BFA8
:102DF0001E20FDF76FF900BF0D2003F0B5FF00BFE7
:102E00001E20FDF767F900BF0E2003F0ADFF00BFE5
:102E10001E20FDF75FF900BF00BF1E20FDF75AF925
:102E200000BF10BD10B5FFF7ABFF00F007F800F0D2
:102E300097F8032000F0B8F810BD00000020064904
:102E4000087048708870C8700871002102480173CA
:102E50000249816070470000EC0C0020FC0C00204F
:102E6000F8B504460E4600257D27FF00FFF7DAFF80
:102E70000F2E01DA0020F8BDFFF753FF054607E0EB
:102E8000012003F079F9FFF74CFF0546781E87B261
:102E900009200003854201D0002FF1D10920000351
:102EA000854201D00020E6E700F040FA05460920FF
:102EB0000003854201D0012000E00020002800D05E
:102EC0001EE000F09FFA054609200003854201D06C
:102ED000012000E00020002800D011E02246314609
:102EE000002000F0A0F909210903884207D1607A87
:102EF0000002A17A0843034908800120BBE700BF14
:102F00000020B8E70C0000200020704770B5044690
:102F10000D460026002D04D029462046FFF772FEFC
:102F20000646002E09D1281F205C0002FF2109025D
:102F30000840E91E615C084370BD0026052120465B
:102F4000FFF760FE0646002E01D01220F4E76078FD
:102F50000002FF2109020840A1780843ECE70000C5
:102F600038B510A0006800906946012000F090FB81
:102F70000446002C01D0012000E00020002800D0F1
:102F80000DE000F095F80446002C01D0012000E08F
:102F90000020002800D002E00920000338BD1120E5
:102FA000FCE700005200000030B585B00446002068
:102FB0000090019002900390052C02DD142005B0D2
:102FC00030BD00F0B3F900F0DDFA04AA01210420BD
:102FD00000F08EF86946087CF021084020430490F8
:102FE00000F0D0FA6A461021032000F0FFFB04AA8B
:102FF0000121042000F080FB05462846DFE70000A1
:10300000F8B505460E4600247D27FF0025480068D8
:10301000254988423DD12548864203D1FFF7A0FFCC
:10302000044611E0FFF77DFE044607E0012003F0AF
:10303000A3F8FFF776FE0446781E87B20920000346
:10304000844201D0002FF1D109200003844201D035
:103050000020F8BD00F06AF904460920000384420C
:1030600001D0012000E00020002800D018E0284610
:1030700000F030FA044609200003844201D0012008
:1030800000E00020002800D00AE00648056001208A
:10309000DFE704480068A84201D10120D9E700BF5A
:1030A0000020D6E708000020EFBEADDEFFFF0000E5
:1030B00070B50E4C00250520FDF70CF800BFFFF79A
:1030C00073FEAC2000F004FCFFF756FD0546FFF749
:1030D0008AFE002D03D1601E80B2041EEFDC002C9E
:1030E00001DD002070BD00BF1120FBE7FF0F0000D5
:1030F000F7B584B007460C46284D002028490870D3
:10310000B0204870FF200002384000128870CF7055
:103110000846047303A8029501900846C068009011
:1031200008460EC8FF20A030FFF792FC6946898947
:10313000C8B2294600F0ACFA86B2002E01D00120B8
:1031400000E00020002800D026E0FFF7B1FF86B2A3
:10315000002E01D0012000E00020002800D01BE05C
:10316000611DC8B2294600F0B7F886B2002E01D022
:10317000012000E00020002800D00DE0601DC1B259
:103180002846FFF7C3FE06462246691C0698FDF74F
:1031900057F8304607B0F0BD1120FBE7FB0D0020CB
:1031A000EC0C002070B5012600240E2003F0DCFD9D
:1031B00000BF1E20FCF78EFF00BF03210E2003F08E
:1031C0004EFD002525E00D2003F0AAFD00BF1E20C6
:1031D000FCF780FF00BF00BF1E20FCF77BFF00BF95
:1031E0000D2003F0C1FD0E2003F0AAFDC6B2002E93
:1031F00002D00120044301E0FE20044000BF1E2055
:10320000FCF768FF00BF072D01DA6006040E681C9A
:10321000C5B2082DD7DB0D2003F082FD0E2003F090
:1032200038FD204670BDF8B506460C461746F62C0C
:1032300020DD00BF3A46F6213046FFF759FF05462C
:103240003046F63086B2F6372046F63884B2F62C91
:1032500003DD092000038542ECD0092000038542EC
:103260000ED1002C0CD0E1B23A463046FFF740FFB9
:10327000054605E0E1B23A463046FFF739FF05461C
:103280002846F8BDF8B505460E46124F0024FFF754
:103290008BFDAD2000F01CFB05E03846791E8FB297
:1032A000002800D112E0FFF767FC0028F5D00024C9
:1032B00006E0FFF777FF305500F0CCF9601CC4B290
:1032C000AC42F6DBFFF78FFD0020F8BDFFF78BFD6A
:1032D0001120FAE7FF070000F8B505460E46124F29
:1032E0000024FFF761FDAD2000F0F2FA05E038465A
:1032F000791E8FB2002800D112E0FFF73DFC0028B4
:10330000F5D0002406E0FFF74DFF305500F0A2F99C
:10331000601CC4B2AC42F6DBFFF765FD0020F8BDCF
:10332000FFF761FD1120FAE7FF070000F0B589B053
:103330002F4D052607272FA103C9089107900020CC
:10334000069001208002059000202C490870A420DE
:103350004870FF210902059808400012274988702B
:103360000598C870084607713A46886807A9FCF7AF
:1033700067FF22490698087304A802950190084641
:10338000C068009008460EC81D48FFF761FB6946FB
:10339000098AC8B2294600F07BF984B2002C01D01A
:1033A000012000E00020002800D01FE0FFF780FE91
:1033B00084B2002C01D0012000E00020002800D0C1
:1033C00014E029463046FFF787FF84B2002C01D075
:1033D000012000E00020002800D007E03146284608
:1033E000FFF794FD0446204609B0F0BD1120FBE72D
:1033F000FB0D0020D276000085010100EC0C0020BE
:10340000FF010000F0B587B02F4D05270220069080
:103410000C262E48059000202D490870A4204870E5
:10342000FF2000023040001288700846C6700698DF
:103430000871FF210902059808400112244880689C
:1034400001700598C1B222488068417004A80295B5
:1034500001901F48C06800901D480EC8FF208030B2
:10346000FFF7F6FA6946098AC8B2294600F010F952
:1034700084B2002C01D0012000E00020002800D000
:103480001FE0FFF715FE84B2002C01D0012000E000
:103490000020002800D014E029463846FFF71CFF22
:1034A00084B2002C01D0012000E00020002800D0D0
:1034B00007E039462846FFF729FD0446204607B0B5
:1034C000F0BD1120FBE70000FB0D002003E1000030
:1034D000EC0C0020F0B587B00446284D052006907E
:1034E000022005900C27002025490870A420487070
:1034F000FF2000023840001288700846C770059807
:103500000871FF200002204001121D4880680170F0
:103510001B488068447004A8029501901848C06850
:10352000009017480EC8FF208030FFF791FA6946D7
:10353000098AC8B2294600F0ABF886B2002E01D045
:10354000012000E00020002800D014E02946069861
:10355000FFF7C2FE86B2002E01D0012000E000205D
:10356000002800D007E028460699FFF7CFFC064662
:10357000304607B0F0BD1120FBE70000FB0D002036
:10358000EC0C0020F0B587B02F4D052702200690E7
:103590000C262E48059000202D490870A420487064
:1035A000FF2000023040001288700846C67006985E
:1035B0000871FF210902059808400112244880681B
:1035C00001700598C1B222488068417004A8029534
:1035D00001901F48C06800901D480EC8FF20803031
:1035E000FFF736FA6946098AC8B2294600F050F852
:1035F00084B2002C01D0012000E00020002800D07F
:103600001FE0FFF755FD84B2002C01D0012000E03F
:103610000020002800D014E029463846FFF75CFE61
:1036200084B2002C01D0012000E00020002800D04E
:1036300007E039462846FFF769FC0446204607B0F4
:10364000F0BD1120FBE70000FB0D002001E10000B0
:10365000EC0C002010B50D2003F062FB00BF1E2013
:10366000FCF738FD00BF0E2003F05AFB00BF1E2000
:10367000FCF730FD00BF0D2003F076FB00BF1E20DD
:10368000FCF728FD00BF0D2003F04AFB10BD000031
:10369000F8B505460E46174F0024FFF785FBAC2012
:1036A00000F016F905E03846791E8FB2002800D1E7
:1036B0001CE0FFF761FA0028F5D0002410E0305D2F
:1036C00000F006F90B4F05E03846791E8FB200284E
:1036D00000D10BE0FFF750FA0028F5D0601CC4B20F
:1036E000AC42ECDBFFF77FFB0020F8BDFFF77BFB74
:1036F0001120FAE7FF0F0000F7B584B006460F4629
:103700002F4C00202F490870D6204870FF2000025F
:10371000304000128870CE70084607713A468868BB
:103720000699FCF78DFD03A8029401902548C06816
:10373000009024480EC8FF208030FFF789F96946C1
:103740008989C8B22146FFF7A3FF85B2002D01D0B9
:10375000012000E00020002800D02FE0FFF7A8FCA7
:1037600085B2002D01D0012000E00020002800D00B
:1037700024E021460520FFF7AFFD85B2002D01D0E2
:10378000012000E00020002800D017E02046FEF7CE
:10379000C0FA00280AD104212046FFF7B7FB1228FF
:1037A00009D06078FFF774FA054604E00521204649
:1037B000FFF7ACFB0546284607B0F0BD1120FBE73C
:1037C000FB0D0020EC0C002002460878424010015E
:1037D0005040C2B20888001213025840D30058402B
:1037E000131158400880088870470000F7B584B06E
:1037F00005460C46344E0027032D02DD142007B089
:10380000F0BD002C03D0102C01D01420F7E70020CD
:103810002E49087020204870FF2000022840001226
:103820008870CD7008460471102C11D1224688682A
:103830000699FCF705FD03A8029601902348C0688D
:10384000009022480EC8FF208030FFF701F90BE0FE
:1038500003A8029601901D48C06800901B480EC83E
:10386000FF204030FFF7F4F869468989C8B2314635
:10387000FFF70EFF87B2002F01D0012000E00020EB
:10388000002800D01EE0FFF713FC87B2002F01D004
:10389000012000E00020002800D013E03146052080
:1038A000FFF71AFD87B2002F01D0012000E00020B1
:1038B000002800D006E005213046FFF727FB074629
:1038C00038469CE711209AE7FB0D0020EC0C002005
:1038D00070B50446002500BF23E00D2003F020FA58
:1038E00000BF1E20FCF7F6FB00BF80202040802890
:1038F00003D10E2003F038FA02E00E2003F010FA94
:1039000000BF1E20FCF7E6FB00BF0D2003F02CFAE1
:1039100000BF1E20FCF7DEFB00BF6006040E681C23
:10392000C5B2082DD9DB70BD70B504460025002650
:10393000224602210020FFF776FC054609200003FD
:1039400085420ED120780602601C044600780643AA
:10395000601E04460246B01C81B20020FFF763FCE3
:10396000054609200003854201D1012070BD0020D9
:10397000FCE7000010B5002401F0F2FB1848FFF747
:10398000ECF91748083001F02BFCFFF751F9144807
:10399000401E407A00021249491E897A08430446B3
:1039A0000A2C18DDE01E81B20D480A3001F030FC0F
:1039B000611E0B4A0832515C884204D10120114635
:1039C000093908700BE000200549491E0870652080
:1039D000FEF788F803E000200149491E087010BD79
:1039E0000B0F0020C206D20E01219140014A116046
:1039F0007047000080E200E0C206D20E0121914033
:103A0000014A11607047000080E200E0C206D20E59
:103A100001219140014A11607047000080E100E0FF
:103A2000C206D20E01219140014A11607047000088
:103A300000E100E0C206D20E01219140014A11606E
:103A40007047000000E100E0C206D20E0121914063
:103A5000014A11607047000000E200E0C206D20E89
:103A600001219140014A11607047000000E200E02E
:103A700010B5002819DA1A4A03071B0F083B9B08E8
:103A80009B00D2588307DC0EFF23A3409A438B0789
:103A90001B0E8407E40EA3401A43114B0407240FA6
:103AA000083CA408A4001A5118E00E4A03231B0284
:103AB000D21883089B00D2588307DC0EFF23A34053
:103AC0009A438B071B0E8407E40EA3401A43054B51
:103AD000032424021B198408A4001A5110BD0000FD
:103AE0001CED00E000E100E010B5002819DA1A4AE8
:103AF00003071B0F083B9B089B00D2588307DC0E73
:103B0000FF23A3409A438B071B0E8407E40EA340B8
:103B10001A43114B0407240F083CA408A4001A51AF
:103B200018E00E4A03231B02D21883089B00D258C8
:103B30008307DC0EFF23A3409A438B071B0E8407E9
:103B4000E40EA3401A43054B032424021B198408E6
:103B5000A4001A5110BD00001CED00E000E100E0DF
:103B600010B5002819DA1A4A03071B0F083B9B08F7
:103B70009B00D2588307DC0EFF23A3409A438B0798
:103B80001B0E8407E40EA3401A43114B0407240FB5
:103B9000083CA408A4001A5118E00E4A03231B0293
:103BA000D21883089B00D2588307DC0EFF23A34062
:103BB0009A438B071B0E8407E40EA3401A43054B60
:103BC000032424021B198408A4001A5110BD00000C
:103BD0001CED00E000E100E010B5FF20013002F034
:103BE0008BFA00280ED0FF20013002F090FA01205D
:103BF00002F0A6FA01202949487200212748001D39
:103C000001F0E6FEFF20053002F076FA00280ED023
:103C1000FF20053002F07BFA022002F091FA012029
:103C20001E49887201211D48103001F0D1FEFF208D
:103C3000113002F061FA00280AD0FF20113002F0A2
:103C400066FA102002F07CFA1448143002F07CFB73
:103C5000FF200D3002F050FA00281ED0FF200D305A
:103C600002F055FA082002F06BFA02F053FB0B4801
:103C700020300078042801D1032000E0022004460F
:103C800000210648203001702038C069002803D088
:103C90000248C1692046884700BF10BD502200205D
:103CA0000020014988637047400500400120014918
:103CB0008863704740050040002003498870087001
:103CC000C8704870704700002400002010B5012023
:103CD0000F498870FDF7C2FEFEF7D6FD00F0A6FE84
:103CE00001F096F801F04EF901F07EF909494A7B9E
:103CF000897B0A23594352180649C97B64235943D7
:103D00005018FEF739FC00200349487010BD000030
:103D100024000020D90500202000002010B500203C
:103D20000A49887000F0F6FA01F08AFCFEF778FA8A
:103D3000FEF70CFDFDF79AFEFCF720FE002004497B
:103D40004871087101F050F910BD000024000020F6
:103D5000D403002010B5022006498870FDF786FEC6
:103D600000F0D8FA00F078FE01F0D0F8FEF7EEFC93
:103D700010BD00002400002010B503200349887006
:103D800001F016F901200249087010BD240000203E
:103D90002900002010B5012007498870FDF75EFE5C
:103DA00000F036FB00F042FE01F0ECF801F0CAF83A
:103DB000FEF76AFD10BD00002400002010B50121AF
:103DC00004484170002141720348417000F07EFFB9
:103DD00010BD0000F90500208E02002010B58AB049
:103DE00029A00068099029A103C908910790182209
:103DF000284901A8FCF724FA0121684601714B21EA
:103E0000C900018200210173234802900121684604
:103E100041710176FA21C1752049487B02F0A4FD69
:103E2000044600BF002C02D020460AB010BD00BFDF
:103E30001A49C87B02F0B0FD044600BF002C01D037
:103E40002046F2E700BF09A802F040FD044600BF8B
:103E5000002C01D02046E8E700BF082107A802F0A7
:103E600053FD044600BF002C01D02046DDE700BF13
:103E700001A802F077FC044600BF002C01D02046C8
:103E8000D3E700BF2046D0E7E7E7E7E7E7C2C3C4D0
:103E9000C5C6C7C85C7C0000D1660000F9050020DB
:103EA00010B51B480068002808D01A484068C007B1
:103EB000C00F002802D00020154908601448C068CF
:103EC00000280FD01348406808210840002809D076
:103ED00000200F49C86010480068002802D00E4832
:103EE000006880470A48006900280FD009484068E8
:103EF00010210840002809D0002005490861074822
:103F00000068002802D005480068804710BD000006
:103F10000011004000130040600000205C00002001
:103F200070B500210C48C17001714171817303218A
:103F300081716421C17114210172FFF74FFF0446A2
:103F400000BF2546002D04D000BF284601F09EFA90
:103F500000BF00BF70BD0000F905002010B5612052
:103F600024494870042224492248801CFCF768F93F
:103F700004222149091F1F48801DFCF761F91D48D3
:103F8000FD30807A1B4988720846FD30C07AC872BD
:103F90000846FD30007B08730846407B48730120CB
:103FA00088730020C873FF20C87700211148203093
:103FB00001700E211E3801F02BF9044602210D4834
:103FC0001F3001F025F944400A48E030C476212131
:103FD000017713200749087004220749091F074881
:103FE00003F066FB002802D000F09AF901E000F02F
:103FF000A7FE10BD94000020DD050020E004002095
:1040000010B5BC4802F00EFC00287DD1B9484079BB
:104010006128FAD1B7480078401EB649491D085CAE
:104020002128F2D1481F0078C01E81B2B148801DFE
:1040300001F0EEF8AF490978891EAE4A521D515C75
:104040008842E2D1501F0178AB484177501F417937
:10405000A9481D3041700422A649891D801CFCF727
:10406000EFF80422A3490A31A3482330FCF7E8F80B
:10407000A048817BA0481D3081729E48C17B9E482C
:104080001D30C1729B48017C9B481D3001739948CB
:10409000417C99481D3041739648817C96481D307B
:1040A00081739448C17C94481D30C173C27B91498F
:1040B00014311030FCF7C4F88F481D30C07B0F302E
:1040C0008C49491D095C8C481D30C177C07B10307C
:1040D0008849491D095C88483D30017002782038C4
:1040E000C37B84481630191883483E30FCF7A8F883
:1040F00080480078801E7F49491D095C7E48FD305C
:10410000C1767C48007800E08CE0401E7949491D6A
:10411000095C7948FD30017704227849DA3803F0E8
:10412000C7FA00287ED004227449091D72481F3046
:1041300003F0BEFA002808D104227049091F6E4816
:104140001F3003F0B5FA0028ECD06A4880784106A9
:10415000490E6A481C30C172664880784006400E9D
:104160006749487064481D30807B002804D00128CE
:104170005CD002287CD15EE0002160481C30417197
:104180005D481D30407B5F494979884225D05A48B7
:104190001D30007B5B49087157481D30407B4871DA
:1041A000564A121F117BCA17520F5218D310524A87
:1041B0002D32D25C514B1B1F187BC3175B0F1B1892
:1041C000DB10DB00C31A1A41D407E40F002C01D125
:1041D000FFF7C4FE00F098F827E047481D30007B49
:1041E00048490979884220D043481D30007B454921
:1041F0000871424A121F117BCA17520F5218D3106E
:104200003D4A2D32D25C3D4B1B1F187BC3175B0F01
:104210001B18DB10DB00C31A1A41D407E40F002C73
:1042200003D100E064E0FFF799FE60E0012133482C
:104230001C3081705BE03348407900281FD12F4843
:104240001C304079002850D101212C481C3041718C
:1042500029481D30007B401D6E280ADA26491D3191
:10426000097B6E22511A491FC8B200F03FFF3CE0A3
:104270003CE022491C31087A00F086FD35E01F4AF7
:10428000121F117BCA17520F5218D3101A4A2D321F
:10429000D25C1A4B1B1F187BC3175B0F1B18DB105C
:1042A000DB00C31A1A41D407E40F002C1DD01348B9
:1042B0001C304079002818D1012110481C30417170
:1042C0000D481D30007B401D6E2809DA0A491D315A
:1042D000097B6E22511A491FC8B200F007FF04E0A3
:1042E00006491C31087A00F04FFD00E000BF00BF16
:1042F00010BD0000DA04002074010020DD0500205C
:1043000029000020D4030020012001498871704752
:10431000D403002010B500F0D5FD02F0B7FB10BDAE
:1043200070B53248807B002817D13048007B401C94
:104330002E4908730E212D48801C00F069FF0546A8
:104340002A4820300078811C28481F3000F060FF88
:1043500045402648E030C57600E000BF234800789D
:1043600023490870002048700120C8700F221F499F
:10437000491C1F48401DFBF763FF1C48C27B0146D8
:1043800010311B481430FBF75BFF1848C17B1848FD
:10439000143009181548C01C027F0A70407F48700D
:1043A000124920310A782039CB7B1149163158182F
:1043B0000E492131FBF744FF0C48E030C27E0C4827
:1043C0000078801E0A49491D0A540848E030027FDF
:1043D000481F0078401E0A54002404E0044802F0FC
:1043E0007FFB601CC4B2022CF8DB70BD940000207F
:1043F000DB03002010B50220FEF78AF800F054FE1F
:1044000010BD10B50120FEF783F800F04DFE10BD81
:1044100010B500210248C17000F0FAFC10BD000088
:10442000F905002010B50020074908600021064862
:1044300041608160C16000200349403908604860E4
:1044400003F0A0FA10BD00004011014010B5044671
:10445000002C06D0012C05D0022C04D0032C0CD14A
:1044600006E00BE00AE00649282001F015FF05E010
:104470000349282001F010FF00E000BF00BF10BD7D
:104480004D4400003EB519480068019002A802F0B2
:1044900047F90446002C27D115480068002823D08E
:1044A0000298C007C00F002806D000206946087097
:1044B00068460F4909688847022102980840002889
:1044C00006D001206946087068460949096888478E
:1044D000042102980840002806D00220694608708E
:1044E00068460349096888473EBD00005400002023
:1044F0003400002010B503F039F910BD10B501F0FB
:10450000C5FB002805D0104810494860C813104961
:10451000886101F09FFB002802D001200D498860CE
:1045200001F0EAFB00280ED00B480068012807D0F4
:104530000A480949086000BF074800680128FBD104
:10454000C0200549486110BDDFFF07C000050040DD
:10455000006C00400006004000EC0640759300002F
:1045600000200249087048708870704729000020B8
:1045700010B5FDF767FC2C484078002852D0002089
:10458000294948700846C078030000F07DFE1349B1
:104590000B0F13171B1F23494949272B4145332F65
:1045A0003B3749000120FDF7E7FF3AE00220FDF725
:1045B000E3FF36E00320FDF7DFFF32E00420FDF7E4
:1045C000DBFF2EE00520FDF7D7FF2AE00620FDF7F0
:1045D000D3FF26E00720FDF7CFFF22E00820FDF7FC
:1045E000CBFF1EE00920FDF7C7FF1AE00D20FDF705
:1045F000C3FF16E00B20FDF7BFFF12E00F20FDF711
:10460000BBFF0EE00E20FDF7B7FF00F00FF808E04B
:104610000A20FDF7B1FF04E00C20FDF7ADFF00E03C
:1046200000BF00BF10BD00001000002010B56120C9
:1046300024494870042224492248801CFBF700FECC
:1046400004222149091F1F48801DFBF7F9FD1D4861
:10465000FD30807A1B4988720846FD30C07AC872E6
:104660000846407B401C487300208873C873F120C3
:10467000C87702211348203001701448417811484E
:1046800020304170114881780E48213041700E2150
:104690001F3800F0BDFD04460A4820300078811C18
:1046A00008481F3000F0B4FD44400648E030C476AE
:1046B00021210177C0380078133002490870FFF7D4
:1046C0007DFB10BD94000020DD05002029000020A6
:1046D00010B51348007800281ED00020104908703B
:1046E000002417E0FDF7A4FD0E4A12210020FEF77A
:1046F0005FF9FF20F53001F03FFDFDF791FD094A1C
:1047000012210020FEF754F9FF20F53001F034FDAE
:10471000601CC4B2032CE5DBFCF7A6F810BD00005A
:1047200029000020720F002010B504494878FDF7D9
:1047300093FE02498878FDF7CDFD10BD29000020C9
:1047400070B500208A49087000BF0023894A1021F3
:10475000184600F0CDFE054600BF2E46002E04D0C0
:1047600000BF304600F092FE00BF00BF00BF824A8B
:104770000121824800F09AFE044600BF2546002D24
:1047800004D000BF284600F081FE00BF00BF7C4A75
:1047900001217C4800F08AFE044600BF2546002D1A
:1047A00004D000BF284600F071FE00BF00BF764A6B
:1047B0000121764800F07AFE044600BF2546002D10
:1047C00004D000BF284600F061FE00BF00BF704A61
:1047D0000121704800F06AFE044600BF2546002D06
:1047E00004D000BF284600F051FE00BF00BF6A4A57
:1047F00001216A4800F05AFE044600BF2546002DFC
:1048000004D000BF284600F041FE00BF00BF644A4C
:104810000121644800F04AFE044600BF2546002DF1
:1048200004D000BF284600F031FE00BF00BF5E4A42
:1048300000215E4800F03AFE044600BF2546002DE8
:1048400004D000BF284600F021FE00BF00BF584A38
:104850000021584800F02AFE044600BF2546002DDE
:1048600004D000BF284600F011FE00BF00BF524A2E
:104870000021524800F01AFE044600BF2546002DD4
:1048800004D000BF284600F001FE00BF00BF4C4A24
:1048900000214C4800F00AFE044600BF2546002DCA
:1048A00004D000BF284600F0F1FD00BF00BF464A1B
:1048B0000021464800F0FAFD044600BF2546002DC1
:1048C00004D000BF284600F0E1FD00BF00BF404A11
:1048D0000121404800F0EAFD044600BF2546002DB6
:1048E00004D000BF284600F0D1FD00BF00BF3A4A07
:1048F00000213A4800F0DAFD044600BF2546002DAD
:1049000004D000BF284600F0C1FD00BF00BF344AFC
:104910000121344800F0CAFD044600BF2546002DA1
:1049200004D000BF284600F0B1FD00BF00BF2E4AF2
:1049300001212E4800F0BAFD044600BF2546002D97
:1049400004D000BF284600F0A1FD00BF00BF284AE8
:104950000121284800F0AAFD044600BF2546002D8D
:1049600004D000BF284600F091FD00BF00BF70BD1D
:10497000000000200C080020D94F0000747C0000CB
:10498000814A0000787C0000054C00007C7C00001F
:10499000F54D0000807C0000D5500000847C0000B4
:1049A000B94C0000887C0000195000008C7C00008D
:1049B00091500000907C00002D4D0000947C000080
:1049C0006D4F0000987C0000794F00009C7C000037
:1049D000ED4E0000A07C0000E54A0000A47C000031
:1049E000F9490000A87C0000454B0000AC7C0000A9
:1049F000DD4F0000B07C00000A49497800290DD045
:104A000009490978491CC9B2074A1170142908DDFF
:104A1000002111700121034A117002E00121014AB5
:104A200011707047200000200100002070B50022A6
:104A30002B2149010748006800F0B6FD044600BF7D
:104A40002546002D04D000BF284600F01FFD00BF02
:104A500000BF70BDA87C000070B50848006800F079
:104A6000D1FD044600BF2546002D04D000BF2846D6
:104A700000F00CFD00BF00BF70BD0000A87C00006E
:104A80000121014A117070471000002070B500220A
:104A900008490948006800F087FD044600BF254624
:104AA000002D04D000BF284600F0F0FC00BF00BF7E
:104AB00070BD000066060000787C000070B50848F4
:104AC000006800F09FFD044600BF2546002D04D07D
:104AD00000BF284600F0DAFC00BF00BF70BD000038
:104AE000787C00000021014A517070470E000020C0
:104AF00070B50022012109040748006800F054FD48
:104B0000044600BF2546002D04D000BF284600F013
:104B1000BDFC00BF00BF70BDA47C000070B508489C
:104B2000006800F06FFD044600BF2546002D04D04C
:104B300000BF284600F0AAFC00BF00BF70BD000007
:104B4000A47C000010B5044610480078002802D16B
:104B500000F022F810BD0D4800780D490978884210
:104B60000CDD0B490A780978491C094B1970520071
:104B70000649891C885AFDF7FFFC05E0002004491E
:104B800008700448FDF7F8FC00BFE3E7AC0F002015
:104B9000020000200F27000070B50848006800F0F0
:104BA00031FD044600BF2546002D04D000BF284635
:104BB00000F06CFC00BF00BF70BD0000AC7C0000CA
:104BC00010B50F480078002819D00D48007804214E
:104BD0000840002806D00A48007888430849087031
:104BE00000F0A0F80648007802210840002806D00E
:104BF0000348007888430249087000F035F810BD7A
:104C0000000000200121014A117070470E000020B1
:104C100070B5002208490948006800F0C5FC044648
:104C200000BF2546002D04D000BF284600F02EFC12
:104C300000BF00BF70BD0000CD0C00007C7C0000F8
:104C400070B50848006800F0DDFC044600BF25464A
:104C5000002D04D000BF284600F018FC00BF00BFA4
:104C600070BD00007C7C000010B51248407A401CEA
:104C7000C1B2104841728078012809D100210D4845
:104C800081704170417200F039F8FFF7BAFB0FE014
:104C90000848407A032809DD0021064881704170E8
:104CA000417200F02BF8FFF7A5FB01E0FFF738FB9E
:104CB00010BD0000F90500200349097802221143C4
:104CC000014A1170704700000000002070B50022FA
:104CD00008490948006800F067FC044600BF254603
:104CE000002D04D000BF284600F0D0FB00BF00BF5D
:104CF00070BD000066060000887C000070B50848A2
:104D0000006800F07FFC044600BF2546002D04D05B
:104D100000BF284600F0BAFB00BF00BF70BD000016
:104D2000887C000010B5FFF7FBFA10BD0349097835
:104D300004221143014A1170704700000000002056
:104D4000F8B500BF0026002504E000F029FF861911
:104D5000681CC5B2082DF8DBB0003018401D00906B
:104D6000002208480099006800F01EFC044600BFBD
:104D70002746002F04D000BF384600F087FB00BF55
:104D800000BFF8BD947C0000F8B50446FEF78EFF26
:104D9000012001F02FF901F017FE00F093F82046F2
:104DA0000121C90300F058FAFF23F5330022C5188A
:104DB00051415A0000232846FBF712FA002201460F
:104DC00000900A48006800F0EFFB074600BF3D4630
:104DD000002D04D000BF284600F058FB00BF00BFE4
:104DE00001210348C1700171F8BD0000807C000002
:104DF000F905002010B504460021044841710171F5
:104E000000F060F800F004F810BD0000F905002083
:104E1000F8B52A48C078002820D0FEF741FF01F0FD
:104E200035FE2648C0790121C90300F015FAFF2399
:104E3000F5330022C51851415A0000232846FBF7DC
:104E4000CFF90746002239461D48006800F0ACFB48
:104E5000044600211948C170017123E0FEF726FFC6
:104E6000012001F0C7F801F0AFFD1448807901215D
:104E7000C90300F0F1F9FF23F5330022C5185141B1
:104E80005A0000232846FBF7ABF9074600223946B3
:104E90000B48006800F088FB044601210748C170F8
:104EA0000021017100BF2546002D04D000BF284617
:104EB00000F0ECFA00BF00BFF8BD0000F9050020CB
:104EC000807C000070B50848006800F09BFB044639
:104ED00000BF2546002D04D000BF284600F0D6FABA
:104EE00000BF00BF70BD0000807C000010B504460C
:104EF0000548C078401CC0B20349C8702D2801DDA8
:104F0000FEF70CFF10BD00002400002070B5002249
:104F10000F2149040948006800F046FB044600BF21
:104F20002546002D04D000BF284600F0AFFA00BF90
:104F300000BF00200249C87070BD0000A07C0000C6
:104F40002400002070B50848006800F05BFB0446B0
:104F500000BF2546002D04D000BF284600F096FA79
:104F600000BF00BF70BD0000A07C00000121014A0D
:104F7000517070472400002010B50446FEF7EAFE89
:104F800010BD000070B500220F2109040748006819
:104F900000F00AFB044600BF2546002D04D000BFE8
:104FA000284600F073FA00BF00BF70BD9C7C000073
:104FB00070B50848006800F025FB044600BF254690
:104FC000002D04D000BF284600F060FA00BF00BFEB
:104FD00070BD00009C7C0000704700000121014A68
:104FE00091707047B80F002070B500220849094839
:104FF000006800F0D9FA044600BF2546002D04D011
:1050000000BF284600F042FA00BF00BF70BD00009C
:10501000CD8C0000B07C000010B5044600F0D8FD37
:10502000002807D0FFF74EFF002000F0E3FF01F05B
:1050300015FD01E0FFF7ECFE10BD000070B5002289
:10504000FF21ED310748006800F0AEFA044600BFCA
:105050002546002D04D000BF284600F017FA00BFF7
:1050600000BF70BD8C7C000070B50848006800F07F
:10507000C9FA044600BF2546002D04D000BF2846CB
:1050800000F004FA00BF00BF70BD00008C7C00007F
:1050900010B504460020FDF73BFA0121014841709C
:1050A00010BD00008E02002070B500220121C9034E
:1050B0000748006800F078FA044600BF2546002D36
:1050C00004D000BF284600F0E1F900BF00BF70BD6A
:1050D000907C000010B5044600F02EF80249087AD2
:1050E000FFF752FE10BD0000F9050020F8B5044698
:1050F00020460121C90300F0AFF8FF23F533002259
:10510000C51851415A0000232846FBF769F80022D0
:10511000014600900748006800F046FA074600BFC5
:105120003D46002D04D000BF284600F0AFF900BF77
:1051300000BFF8BD847C000070B50848006800F02E
:1051400061FA044600BF2546002D04D000BF284662
:1051500000F09CF900BF00BF70BD0000847C00001F
:105160007FB501251D4C0F216846FDF779FE0546E8
:10517000684600780102684640780143218068460D
:105180008078A0706846C0780102684600790143C3
:10519000A180684640790102684680790143E18038
:1051A0006846C07920726846007A60726846407A24
:1051B00001026846807A014361816846C07A010233
:1051C0006846007B0143A1816846407BA073684626
:1051D000807BE073284604B070BD0000FA0E00200A
:1051E00070B505460026084C60890849FDF708FFA0
:1051F000012806D12846FEF797FB06466089FDF791
:10520000E9FC304670BD0000FA0E0020FFFF0000F0
:1052100010B502460B461078012103E0545C604053
:105220004C1CA1B29942F9DB10BD2021020C01D027
:1052300010211046020A01D010460839020901D097
:105240001046091F820801D01046891E420801D06D
:10525000881E7047081A7047F8B582B28BB2040CEA
:105260000D0C10465843002126465E43370C360489
:105270008019794116466E43370C360480197941FE
:1052800026466E438919F8BD30B47446641E2578ED
:10529000641CAB4204D3635D5B00E31830BC184769
:1052A0001D46F8E702E008C8121F08C1002AFAD11B
:1052B00070477047002001E001C1121F002AFBD196
:1052C0007047000070B5064600243078002868D189
:1052D0001421344800F0E8F9052505E0680031495B
:1052E000085E0419681CC5B20F2DF7DBE121090126
:1052F000614308460A21FAF749FF840A2A494C808B
:1053000008464078002826D02848844203D9032044
:10531000FCF798FF42E025486438844207D92D20E5
:105320008001844203D20220FCF78CFF36E0552036
:105330004001844207D91D488C38844203D20120A1
:10534000FCF780FF2AE01948F038844226D200207A
:10535000FCF778FF22E015481438844203D3032079
:10536000FCF770FF1AE0AF200001844207D30F481A
:105370001438844203D20220FCF764FF0EE00B488D
:10538000DC38844207D3AF200001844203D20120DD
:10539000FCF758FF02E00020FCF754FF012002490F
:1053A000487070BD840F002020000020680B0000B2
:1053B00010B5FF20013000F08BFE00BF00201E4919
:1053C000086000BF00BF0846806800B21B49C9687A
:1053D0001A4A527C520088521848407C401C174997
:1053E00048740846407C097C884223DA002413482C
:1053F00080684068002804D1104840680F498860E0
:1054000005E00E48806840680C49886001240B491B
:105410008968086800F04AFE00BF0120064908605C
:1054200000BF002C04D000BF054A106000BF00BFC1
:10543000002010BD0120FCE700750040C8220020BC
:105440000070004010B50446204600F075F900BA1F
:1054500010BD000000BF00BF00BF00BF00BFBFF312
:105460004F8F00BF00BF00BF06480749C86000BF9C
:1054700000BF00BFBFF34F8F00BF00BF00BF00BF22
:1054800000BFFDE70400FA0500ED00E03EB504466C
:10549000002000900190029002946A460021024888
:1054A000FFF7D8FF3EBD00000140000010B50346E5
:1054B0000C4600BF0D480068002801D1082010BD2F
:1054C00000BF002A01D10720F9E7002B01D10720F6
:1054D000F5E71868007C002801D00820EFE719687C
:1054E000002008744C744A6100BFE8E76C0000209B
:1054F000FFB581B00E4614461F4620468107890F2E
:10550000002901D1012100E00021002902D107205A
:1055100005B0F0BD002C04D100201C490860072014
:10552000F6E701F065FF1A48076003201949087083
:1055300016480460183400250CE0E900134A12688C
:1055400088180021017041708670446018217143F1
:105550000C196D1C032DF0DB00200F4908600F496A
:1055600008700F4908701520FEF746FA0321152030
:10557000FEF7BAFA1520FEF75DFA019801F00EFF6A
:1055800001F006FF074908600020C1E76C00002019
:1055900084000020680000207000002080000020AF
:1055A0008100002074000020FEB504460D46174619
:1055B000264600BF12480068002801D10820FEBD21
:1055C00000BF002C01D10820F9E7052D01D20720EA
:1055D000F5E77069002801D10820F0E7707C012808
:1055E00001D1284600E00020029002F00DFB009758
:1055F00001902A463146029B02F058F9DFE700008D
:105600006C00002070B50446254600BF0B480068BA
:10561000002801D1082070BD00BF002C02D06869AD
:10562000002801D10820F6E70020287402F0ECFAE7
:105630000646294602F086F9EDE700006C000020DE
:1056400010B500BF06480068002801D1082010BD31
:1056500000BF02F0D9FA044602F054F9F7E700005F
:105660006C00002000B5024600F006F800BD00B551
:10567000024600F00BF800BD72B603480068401CFB
:1056800001490860704700008C0000200548006850
:10569000401E0449086008460068002800D162B630
:1056A000704700008C000020F8B505460E4601202A
:1056B000009000271AE000200090701E84B211E0D4
:1056C0006000295E601E4000285E814208DA621E8A
:1056D000520051196200501901F0FBFF01200090A7
:1056E000601E84B2BC42EBDC781C87B2B74202DA9F
:1056F00000980028DFD1F8BD70B504460D460C2C8B
:1057000010D10A48807800280CD04B20C00000F04F
:1057100033FDFBF7BDFFFBF731F900200449487169
:10572000087102E001200349087070BD24000020C8
:10573000D403002010000020014608680D4A0240F2
:1057400012090C4BDB4303401B011A4310460A4A63
:1057500002409208084BDB4303409B001A4310466B
:10576000064A02405208054BDB4303405B001A43E4
:1057700010467047F0F0F0F0CCCCCCCCAAAAAAAA84
:1057800070B50446200E01F0ABFF0506200C01F0B9
:10579000A7FF00040543200A01F0A2FF0002054311
:1057A000204601F09DFF284370BD0000F8B54A0077
:1057B0002B4B520DD6182B4A0C460546142E2BDACD
:1057C000002E12DA284BFAF7FFFE00221346FAF7F2
:1057D000ADFF40D2002C03DA0124E40700253AE0B3
:1057E0002046284337D0214C14E0214F0B46F74088
:1057F0003B402B4331D01C4BFAF7E6FE0022134608
:10580000FAF794FF27D2002C03DD01200005F040B9
:105810000419BC4300251EE0332E1EDC334600274E
:10582000143BFF43DF40384217D00F4BFAF776FFA7
:1058300000221346FAF77AFF0DD2002C0ADD142E4F
:105840000CD03420811B012088404019A84200D28E
:10585000641C0546BD4321462846F8BD641CF9E793
:1058600001FCFFFF9C7500883CE4377E0000F03FA0
:10587000FFFF0F000021C9438200054B9950042807
:1058800004DB0B46011F024A4C32535470470000A0
:105890007422002001468800014A10587047000019
:1058A00074220020F7B585B00B460020C043049059
:1058B000002A01D0002000E004200390002A01D03B
:1058C000042000E00B20029003991EE08800124C97
:1058D0002058401C002817D10846059C00930192CF
:1058E00046B20D4D2C352E5585000B4E009B735145
:1058F000019A002A04D166B2051F074F4C377E5526
:1059000000BF48B2049003E0491C02988142DDD3F5
:1059100000BF049808B0F0BD742200200146014881
:1059200040567047A022002010B5FF2014301049C7
:1059300008601049C87C1049096888470F48104919
:10594000486000200F49086101200F49086100BF2D
:105950000C4800690028FBD000200A490861FF209C
:1059600018300349086001200749486010BD000055
:1059700000120040C80F00206400002024210020F5
:1059800000150040001100400010004010B5044612
:105990000E48007804280ED100F0BCFC00210B4812
:1059A00001702038C06900280ED008482038C1692D
:1059B0000320884708E0082000F0C8FB03210348C3
:1059C0000170102000F0D2FB10BD000070220020FA
:1059D00070B506460C460BE0304600F0B7F90546B8
:1059E000002D03D020466968884700E001E000BF31
:1059F000F2E700BF70BD0000FEB51F480068002838
:105A000036D01D480068056801F0C2FC01901B48B3
:105A100004682146019801F085FEC61C18480078EC
:105A2000002801D101F0C6FCAE4201D2284600E0B8
:105A3000304604192402240A204601F0A3FC01F098
:105A4000A7FC00900199009801F06CFEC71C20464D
:105A5000019901F067FE874209D901F099FC0746D8
:105A600001F090FC2F20FAF765FB01F0D5FF01E073
:105A700001F0BEFCFEBD000070000020740000209C
:105A80008800002010B500BFEFF30580C105C90DE7
:105A900000291FD00A46103A50B200280CDA0E4BEB
:105AA0000407240F083CA408A4001B598407E40E33
:105AB000E3401B069B0F0BE0084B032424021B1939
:105AC0008408A4001B598407E40EE3401B069B0FC7
:105AD000D8B210BD0420FCE71CED00E000E100E0BE
